{
  "contractName": "Char",
  "abi": [
    {
      "inputs": [
        {
          "internalType": "string",
          "name": "name",
          "type": "string"
        },
        {
          "internalType": "string",
          "name": "symbol",
          "type": "string"
        }
      ],
      "stateMutability": "nonpayable",
      "type": "constructor"
    },
    {
      "anonymous": false,
      "inputs": [
        {
          "indexed": true,
          "internalType": "address",
          "name": "owner",
          "type": "address"
        },
        {
          "indexed": true,
          "internalType": "address",
          "name": "approved",
          "type": "address"
        },
        {
          "indexed": true,
          "internalType": "uint256",
          "name": "tokenId",
          "type": "uint256"
        }
      ],
      "name": "Approval",
      "type": "event"
    },
    {
      "anonymous": false,
      "inputs": [
        {
          "indexed": true,
          "internalType": "address",
          "name": "owner",
          "type": "address"
        },
        {
          "indexed": true,
          "internalType": "address",
          "name": "operator",
          "type": "address"
        },
        {
          "indexed": false,
          "internalType": "bool",
          "name": "approved",
          "type": "bool"
        }
      ],
      "name": "ApprovalForAll",
      "type": "event"
    },
    {
      "anonymous": false,
      "inputs": [
        {
          "indexed": true,
          "internalType": "address",
          "name": "previousOwner",
          "type": "address"
        },
        {
          "indexed": true,
          "internalType": "address",
          "name": "newOwner",
          "type": "address"
        }
      ],
      "name": "OwnershipTransferred",
      "type": "event"
    },
    {
      "anonymous": false,
      "inputs": [
        {
          "indexed": true,
          "internalType": "address",
          "name": "from",
          "type": "address"
        },
        {
          "indexed": true,
          "internalType": "address",
          "name": "to",
          "type": "address"
        },
        {
          "indexed": true,
          "internalType": "uint256",
          "name": "tokenId",
          "type": "uint256"
        }
      ],
      "name": "Transfer",
      "type": "event"
    },
    {
      "inputs": [
        {
          "internalType": "address",
          "name": "to",
          "type": "address"
        },
        {
          "internalType": "uint256",
          "name": "tokenId",
          "type": "uint256"
        }
      ],
      "name": "approve",
      "outputs": [],
      "stateMutability": "nonpayable",
      "type": "function"
    },
    {
      "inputs": [
        {
          "internalType": "address",
          "name": "owner",
          "type": "address"
        }
      ],
      "name": "balanceOf",
      "outputs": [
        {
          "internalType": "uint256",
          "name": "",
          "type": "uint256"
        }
      ],
      "stateMutability": "view",
      "type": "function",
      "constant": true
    },
    {
      "inputs": [
        {
          "internalType": "uint256",
          "name": "tokenId",
          "type": "uint256"
        }
      ],
      "name": "getApproved",
      "outputs": [
        {
          "internalType": "address",
          "name": "",
          "type": "address"
        }
      ],
      "stateMutability": "view",
      "type": "function",
      "constant": true
    },
    {
      "inputs": [
        {
          "internalType": "address",
          "name": "owner",
          "type": "address"
        },
        {
          "internalType": "address",
          "name": "operator",
          "type": "address"
        }
      ],
      "name": "isApprovedForAll",
      "outputs": [
        {
          "internalType": "bool",
          "name": "",
          "type": "bool"
        }
      ],
      "stateMutability": "view",
      "type": "function",
      "constant": true
    },
    {
      "inputs": [],
      "name": "name",
      "outputs": [
        {
          "internalType": "string",
          "name": "",
          "type": "string"
        }
      ],
      "stateMutability": "view",
      "type": "function",
      "constant": true
    },
    {
      "inputs": [],
      "name": "owner",
      "outputs": [
        {
          "internalType": "address",
          "name": "",
          "type": "address"
        }
      ],
      "stateMutability": "view",
      "type": "function",
      "constant": true
    },
    {
      "inputs": [
        {
          "internalType": "uint256",
          "name": "tokenId",
          "type": "uint256"
        }
      ],
      "name": "ownerOf",
      "outputs": [
        {
          "internalType": "address",
          "name": "",
          "type": "address"
        }
      ],
      "stateMutability": "view",
      "type": "function",
      "constant": true
    },
    {
      "inputs": [],
      "name": "renounceOwnership",
      "outputs": [],
      "stateMutability": "nonpayable",
      "type": "function"
    },
    {
      "inputs": [
        {
          "internalType": "address",
          "name": "from",
          "type": "address"
        },
        {
          "internalType": "address",
          "name": "to",
          "type": "address"
        },
        {
          "internalType": "uint256",
          "name": "tokenId",
          "type": "uint256"
        }
      ],
      "name": "safeTransferFrom",
      "outputs": [],
      "stateMutability": "nonpayable",
      "type": "function"
    },
    {
      "inputs": [
        {
          "internalType": "address",
          "name": "from",
          "type": "address"
        },
        {
          "internalType": "address",
          "name": "to",
          "type": "address"
        },
        {
          "internalType": "uint256",
          "name": "tokenId",
          "type": "uint256"
        },
        {
          "internalType": "bytes",
          "name": "_data",
          "type": "bytes"
        }
      ],
      "name": "safeTransferFrom",
      "outputs": [],
      "stateMutability": "nonpayable",
      "type": "function"
    },
    {
      "inputs": [
        {
          "internalType": "address",
          "name": "operator",
          "type": "address"
        },
        {
          "internalType": "bool",
          "name": "approved",
          "type": "bool"
        }
      ],
      "name": "setApprovalForAll",
      "outputs": [],
      "stateMutability": "nonpayable",
      "type": "function"
    },
    {
      "inputs": [
        {
          "internalType": "bytes4",
          "name": "interfaceId",
          "type": "bytes4"
        }
      ],
      "name": "supportsInterface",
      "outputs": [
        {
          "internalType": "bool",
          "name": "",
          "type": "bool"
        }
      ],
      "stateMutability": "view",
      "type": "function",
      "constant": true
    },
    {
      "inputs": [],
      "name": "symbol",
      "outputs": [
        {
          "internalType": "string",
          "name": "",
          "type": "string"
        }
      ],
      "stateMutability": "view",
      "type": "function",
      "constant": true
    },
    {
      "inputs": [
        {
          "internalType": "uint256",
          "name": "tokenId",
          "type": "uint256"
        }
      ],
      "name": "tokenURI",
      "outputs": [
        {
          "internalType": "string",
          "name": "",
          "type": "string"
        }
      ],
      "stateMutability": "view",
      "type": "function",
      "constant": true
    },
    {
      "inputs": [
        {
          "internalType": "address",
          "name": "from",
          "type": "address"
        },
        {
          "internalType": "address",
          "name": "to",
          "type": "address"
        },
        {
          "internalType": "uint256",
          "name": "tokenId",
          "type": "uint256"
        }
      ],
      "name": "transferFrom",
      "outputs": [],
      "stateMutability": "nonpayable",
      "type": "function"
    },
    {
      "inputs": [
        {
          "internalType": "address",
          "name": "newOwner",
          "type": "address"
        }
      ],
      "name": "transferOwnership",
      "outputs": [],
      "stateMutability": "nonpayable",
      "type": "function"
    },
    {
      "inputs": [
        {
          "internalType": "uint256",
          "name": "_fee",
          "type": "uint256"
        }
      ],
      "name": "updateFee",
      "outputs": [],
      "stateMutability": "nonpayable",
      "type": "function"
    },
    {
      "inputs": [],
      "name": "withdraw",
      "outputs": [],
      "stateMutability": "payable",
      "type": "function",
      "payable": true
    },
    {
      "inputs": [
        {
          "internalType": "address",
          "name": "_to",
          "type": "address"
        },
        {
          "internalType": "uint256",
          "name": "_tokenId",
          "type": "uint256"
        },
        {
          "internalType": "string",
          "name": "_uri",
          "type": "string"
        }
      ],
      "name": "mintToken",
      "outputs": [],
      "stateMutability": "nonpayable",
      "type": "function"
    },
    {
      "inputs": [
        {
          "internalType": "address",
          "name": "receiver",
          "type": "address"
        },
        {
          "internalType": "uint256",
          "name": "amount",
          "type": "uint256"
        }
      ],
      "name": "sendCoin",
      "outputs": [
        {
          "internalType": "bool",
          "name": "success",
          "type": "bool"
        }
      ],
      "stateMutability": "nonpayable",
      "type": "function"
    },
    {
      "inputs": [],
      "name": "mint",
      "outputs": [],
      "stateMutability": "payable",
      "type": "function",
      "payable": true
    },
    {
      "inputs": [
        {
          "internalType": "uint256",
          "name": "tokenId",
          "type": "uint256"
        }
      ],
      "name": "feed",
      "outputs": [],
      "stateMutability": "nonpayable",
      "type": "function"
    },
    {
      "inputs": [
        {
          "internalType": "uint256",
          "name": "tokenId",
          "type": "uint256"
        }
      ],
      "name": "attack",
      "outputs": [],
      "stateMutability": "payable",
      "type": "function",
      "payable": true
    },
    {
      "inputs": [
        {
          "internalType": "uint256",
          "name": "tokenId",
          "type": "uint256"
        }
      ],
      "name": "getTokenDetails",
      "outputs": [
        {
          "components": [
            {
              "internalType": "uint8",
              "name": "head",
              "type": "uint8"
            },
            {
              "internalType": "uint8",
              "name": "eye",
              "type": "uint8"
            },
            {
              "internalType": "uint256",
              "name": "eyebrow",
              "type": "uint256"
            },
            {
              "internalType": "uint8",
              "name": "mount",
              "type": "uint8"
            },
            {
              "internalType": "uint8",
              "name": "nose",
              "type": "uint8"
            },
            {
              "internalType": "uint8",
              "name": "background",
              "type": "uint8"
            }
          ],
          "internalType": "struct Char.Face",
          "name": "",
          "type": "tuple"
        }
      ],
      "stateMutability": "view",
      "type": "function",
      "constant": true
    },
    {
      "inputs": [
        {
          "internalType": "address",
          "name": "user",
          "type": "address"
        }
      ],
      "name": "getAllTokensForUser",
      "outputs": [
        {
          "internalType": "uint256[]",
          "name": "",
          "type": "uint256[]"
        }
      ],
      "stateMutability": "view",
      "type": "function",
      "constant": true
    }
  ],
  "bytecode": "0x608060405260006007556000600860006101000a81548160ff021916908360ff16021790555066071afd498d00006009556063600a55730176c767110458db7eee8df1f234bbcfaefb5900600c60006101000a81548173ffffffffffffffffffffffffffffffffffffffff021916908373ffffffffffffffffffffffffffffffffffffffff1602179055503480156200009757600080fd5b5060405162003d2f38038062003d2f8339818101604052810190620000bd91906200030b565b81818160009080519060200190620000d7929190620001e9565b508060019080519060200190620000f0929190620001e9565b50505062000113620001076200011b60201b60201c565b6200012360201b60201c565b5050620004af565b600033905090565b6000600660009054906101000a900473ffffffffffffffffffffffffffffffffffffffff16905081600660006101000a81548173ffffffffffffffffffffffffffffffffffffffff021916908373ffffffffffffffffffffffffffffffffffffffff1602179055508173ffffffffffffffffffffffffffffffffffffffff168173ffffffffffffffffffffffffffffffffffffffff167f8be0079c531659141344cd1fd0a4f28419497f9722a3daafe3b4186f6b6457e060405160405180910390a35050565b828054620001f7906200041b565b90600052602060002090601f0160209004810192826200021b576000855562000267565b82601f106200023657805160ff191683800117855562000267565b8280016001018555821562000267579182015b828111156200026657825182559160200191906001019062000249565b5b5090506200027691906200027a565b5090565b5b80821115620002955760008160009055506001016200027b565b5090565b6000620002b0620002aa84620003b2565b6200037e565b905082815260208101848484011115620002c957600080fd5b620002d6848285620003e5565b509392505050565b600082601f830112620002f057600080fd5b81516200030284826020860162000299565b91505092915050565b600080604083850312156200031f57600080fd5b600083015167ffffffffffffffff8111156200033a57600080fd5b6200034885828601620002de565b925050602083015167ffffffffffffffff8111156200036657600080fd5b6200037485828601620002de565b9150509250929050565b6000604051905081810181811067ffffffffffffffff82111715620003a857620003a762000480565b5b8060405250919050565b600067ffffffffffffffff821115620003d057620003cf62000480565b5b601f19601f8301169050602081019050919050565b60005b8381101562000405578082015181840152602081019050620003e8565b8381111562000415576000848401525b50505050565b600060028204905060018216806200043457607f821691505b602082108114156200044b576200044a62000451565b5b50919050565b7f4e487b7100000000000000000000000000000000000000000000000000000000600052602260045260246000fd5b7f4e487b7100000000000000000000000000000000000000000000000000000000600052604160045260246000fd5b61387080620004bf6000396000f3fe6080604052600436106101665760003560e01c806382de8fe9116100d1578063b88d4fde1161008a578063e985e9c511610064578063e985e9c514610511578063f2fde38b1461054e578063f59dfdfb14610577578063f76e8ba9146105a057610166565b8063b88d4fde1461046e578063c1e0372814610497578063c87b56dd146104d457610166565b806382de8fe91461034c5780638da5cb5b146103895780639012c4a8146103b457806390b98a11146103dd57806395d89b411461041a578063a22cb4651461044557610166565b80633ccfd60b116101235780633ccfd60b1461026c57806342842e0e146102765780636352211e1461029f57806364dd891a146102dc57806370a08231146102f8578063715018a61461033557610166565b806301ffc9a71461016b57806306fdde03146101a8578063081812fc146101d3578063095ea7b3146102105780631249c58b1461023957806323b872dd14610243575b600080fd5b34801561017757600080fd5b50610192600480360381019061018d91906127c8565b6105c9565b60405161019f9190613102565b60405180910390f35b3480156101b457600080fd5b506101bd6106ab565b6040516101ca919061311d565b60405180910390f35b3480156101df57600080fd5b506101fa60048036038101906101f5919061281a565b61073d565b6040516102079190613079565b60405180910390f35b34801561021c57600080fd5b5061023760048036038101906102329190612720565b6107c2565b005b6102416108da565b005b34801561024f57600080fd5b5061026a6004803603810190610265919061261a565b610ac0565b005b610274610b20565b005b34801561028257600080fd5b5061029d6004803603810190610298919061261a565b610bf2565b005b3480156102ab57600080fd5b506102c660048036038101906102c1919061281a565b610c12565b6040516102d39190613079565b60405180910390f35b6102f660048036038101906102f1919061281a565b610cc4565b005b34801561030457600080fd5b5061031f600480360381019061031a91906125b5565b610cfd565b60405161032c919061335a565b60405180910390f35b34801561034157600080fd5b5061034a610db5565b005b34801561035857600080fd5b50610373600480360381019061036e91906125b5565b610e3d565b60405161038091906130e0565b60405180910390f35b34801561039557600080fd5b5061039e611005565b6040516103ab9190613079565b60405180910390f35b3480156103c057600080fd5b506103db60048036038101906103d6919061281a565b61102f565b005b3480156103e957600080fd5b5061040460048036038101906103ff9190612720565b6110b5565b6040516104119190613102565b60405180910390f35b34801561042657600080fd5b5061042f611219565b60405161043c919061311d565b60405180910390f35b34801561045157600080fd5b5061046c600480360381019061046791906126e4565b6112ab565b005b34801561047a57600080fd5b5061049560048036038101906104909190612669565b61142c565b005b3480156104a357600080fd5b506104be60048036038101906104b9919061281a565b61148e565b6040516104cb919061333f565b60405180910390f35b3480156104e057600080fd5b506104fb60048036038101906104f6919061281a565b611556565b604051610508919061311d565b60405180910390f35b34801561051d57600080fd5b50610538600480360381019061053391906125de565b6115fd565b6040516105459190613102565b60405180910390f35b34801561055a57600080fd5b50610575600480360381019061057091906125b5565b611691565b005b34801561058357600080fd5b5061059e6004803603810190610599919061281a565b611789565b005b3480156105ac57600080fd5b506105c760048036038101906105c2919061275c565b6117a4565b005b60007f80ac58cd000000000000000000000000000000000000000000000000000000007bffffffffffffffffffffffffffffffffffffffffffffffffffffffff1916827bffffffffffffffffffffffffffffffffffffffffffffffffffffffff1916148061069457507f5b5e139f000000000000000000000000000000000000000000000000000000007bffffffffffffffffffffffffffffffffffffffffffffffffffffffff1916827bffffffffffffffffffffffffffffffffffffffffffffffffffffffff1916145b806106a457506106a382611830565b5b9050919050565b6060600080546106ba9061362a565b80601f01602080910402602001604051908101604052809291908181526020018280546106e69061362a565b80156107335780601f1061070857610100808354040283529160200191610733565b820191906000526020600020905b81548152906001019060200180831161071657829003601f168201915b5050505050905090565b60006107488261189a565b610787576040517f08c379a000000000000000000000000000000000000000000000000000000000815260040161077e9061327f565b60405180910390fd5b6004600083815260200190815260200160002060009054906101000a900473ffffffffffffffffffffffffffffffffffffffff169050919050565b60006107cd82610c12565b90508073ffffffffffffffffffffffffffffffffffffffff168373ffffffffffffffffffffffffffffffffffffffff16141561083e576040517f08c379a0000000000000000000000000000000000000000000000000000000008152600401610835906132ff565b60405180910390fd5b8073ffffffffffffffffffffffffffffffffffffffff1661085d611906565b73ffffffffffffffffffffffffffffffffffffffff16148061088c575061088b81610886611906565b6115fd565b5b6108cb576040517f08c379a00000000000000000000000000000000000000000000000000000000081526004016108c2906131ff565b60405180910390fd5b6108d5838361190e565b505050565b6000600190506000600190506000600190506000600190506000600190506000600190506000603281101561090e57600296505b610918605a6119c7565b9050603281101561092857600295505b61093260506119c7565b9050603281101561094257600294505b61094c60466119c7565b9050603281101561095c57600293505b610966603c6119c7565b9050603281101561097657600292505b61098060326119c7565b9050603281101561099057600291505b6040518060c001604052808860ff1681526020018760ff1681526020018681526020018560ff1681526020018460ff1681526020018360ff16815250600b6000600754815260200190815260200160002060008201518160000160006101000a81548160ff021916908360ff16021790555060208201518160000160016101000a81548160ff021916908360ff1602179055506040820151816001015560608201518160020160006101000a81548160ff021916908360ff16021790555060808201518160020160016101000a81548160ff021916908360ff16021790555060a08201518160020160026101000a81548160ff021916908360ff160217905550905050610a9f33600754611a25565b60076000815480929190610ab29061365c565b919050555050505050505050565b610ad1610acb611906565b82611a43565b610b10576040517f08c379a0000000000000000000000000000000000000000000000000000000008152600401610b079061331f565b60405180910390fd5b610b1b838383611b21565b505050565b610b28611906565b73ffffffffffffffffffffffffffffffffffffffff16610b46611005565b73ffffffffffffffffffffffffffffffffffffffff1614610b9c576040517f08c379a0000000000000000000000000000000000000000000000000000000008152600401610b939061329f565b60405180910390fd5b6000610ba6611005565b90508073ffffffffffffffffffffffffffffffffffffffff166108fc479081150290604051600060405180830381858888f19350505050158015610bee573d6000803e3d6000fd5b5050565b610c0d8383836040518060200160405280600081525061142c565b505050565b6000806002600084815260200190815260200160002060009054906101000a900473ffffffffffffffffffffffffffffffffffffffff169050600073ffffffffffffffffffffffffffffffffffffffff168173ffffffffffffffffffffffffffffffffffffffff161415610cbb576040517f08c379a0000000000000000000000000000000000000000000000000000000008152600401610cb29061323f565b60405180910390fd5b80915050919050565b600954341415610cd357600080fd5b6000600b600083815260200190815260200160002090506000610cf660646119c7565b9050505050565b60008073ffffffffffffffffffffffffffffffffffffffff168273ffffffffffffffffffffffffffffffffffffffff161415610d6e576040517f08c379a0000000000000000000000000000000000000000000000000000000008152600401610d659061321f565b60405180910390fd5b600360008373ffffffffffffffffffffffffffffffffffffffff1673ffffffffffffffffffffffffffffffffffffffff168152602001908152602001600020549050919050565b610dbd611906565b73ffffffffffffffffffffffffffffffffffffffff16610ddb611005565b73ffffffffffffffffffffffffffffffffffffffff1614610e31576040517f08c379a0000000000000000000000000000000000000000000000000000000008152600401610e289061329f565b60405180910390fd5b610e3b6000611d7d565b565b60606000610e4a83610cfd565b90506000811415610ecd57600067ffffffffffffffff811115610e96577f4e487b7100000000000000000000000000000000000000000000000000000000600052604160045260246000fd5b604051908082528060200260200182016040528015610ec45781602001602082028036833780820191505090505b50915050611000565b60008167ffffffffffffffff811115610f0f577f4e487b7100000000000000000000000000000000000000000000000000000000600052604160045260246000fd5b604051908082528060200260200182016040528015610f3d5781602001602082028036833780820191505090505b509050600060075490506000805b82811015610ff7578673ffffffffffffffffffffffffffffffffffffffff16610f7382610c12565b73ffffffffffffffffffffffffffffffffffffffff161415610fe45780848381518110610fc9577f4e487b7100000000000000000000000000000000000000000000000000000000600052603260045260246000fd5b6020026020010181815250508180610fe09061365c565b9250505b8080610fef9061365c565b915050610f4b565b83955050505050505b919050565b6000600660009054906101000a900473ffffffffffffffffffffffffffffffffffffffff16905090565b611037611906565b73ffffffffffffffffffffffffffffffffffffffff16611055611005565b73ffffffffffffffffffffffffffffffffffffffff16146110ab576040517f08c379a00000000000000000000000000000000000000000000000000000000081526004016110a29061329f565b60405180910390fd5b8060098190555050565b600081600d60003373ffffffffffffffffffffffffffffffffffffffff1673ffffffffffffffffffffffffffffffffffffffff1681526020019081526020016000205410156111075760009050611213565b81600d60003373ffffffffffffffffffffffffffffffffffffffff1673ffffffffffffffffffffffffffffffffffffffff16815260200190815260200160002060008282546111569190613533565b9250508190555081600d60008573ffffffffffffffffffffffffffffffffffffffff1673ffffffffffffffffffffffffffffffffffffffff16815260200190815260200160002060008282546111ac9190613452565b92505081905550818373ffffffffffffffffffffffffffffffffffffffff163373ffffffffffffffffffffffffffffffffffffffff167fddf252ad1be2c89b69c2b068fc378daa952ba7f163c4a11628f55a4df523b3ef60405160405180910390a4600190505b92915050565b6060600180546112289061362a565b80601f01602080910402602001604051908101604052809291908181526020018280546112549061362a565b80156112a15780601f10611276576101008083540402835291602001916112a1565b820191906000526020600020905b81548152906001019060200180831161128457829003601f168201915b5050505050905090565b6112b3611906565b73ffffffffffffffffffffffffffffffffffffffff168273ffffffffffffffffffffffffffffffffffffffff161415611321576040517f08c379a0000000000000000000000000000000000000000000000000000000008152600401611318906131bf565b60405180910390fd5b806005600061132e611906565b73ffffffffffffffffffffffffffffffffffffffff1673ffffffffffffffffffffffffffffffffffffffff16815260200190815260200160002060008473ffffffffffffffffffffffffffffffffffffffff1673ffffffffffffffffffffffffffffffffffffffff16815260200190815260200160002060006101000a81548160ff0219169083151502179055508173ffffffffffffffffffffffffffffffffffffffff166113db611906565b73ffffffffffffffffffffffffffffffffffffffff167f17307eab39ab6107e8899845ad3d59bd9653f200f220920489ca2b5937696c31836040516114209190613102565b60405180910390a35050565b61143d611437611906565b83611a43565b61147c576040517f08c379a00000000000000000000000000000000000000000000000000000000081526004016114739061331f565b60405180910390fd5b61148884848484611e43565b50505050565b611496612455565b600b60008381526020019081526020016000206040518060c00160405290816000820160009054906101000a900460ff1660ff1660ff1681526020016000820160019054906101000a900460ff1660ff1660ff168152602001600182015481526020016002820160009054906101000a900460ff1660ff1660ff1681526020016002820160019054906101000a900460ff1660ff1660ff1681526020016002820160029054906101000a900460ff1660ff1660ff16815250509050919050565b60606115618261189a565b6115a0576040517f08c379a0000000000000000000000000000000000000000000000000000000008152600401611597906132df565b60405180910390fd5b60006115aa611e9f565b905060008151116115ca57604051806020016040528060008152506115f5565b806115d484611eb6565b6040516020016115e5929190613018565b6040516020818303038152906040525b915050919050565b6000600560008473ffffffffffffffffffffffffffffffffffffffff1673ffffffffffffffffffffffffffffffffffffffff16815260200190815260200160002060008373ffffffffffffffffffffffffffffffffffffffff1673ffffffffffffffffffffffffffffffffffffffff16815260200190815260200160002060009054906101000a900460ff16905092915050565b611699611906565b73ffffffffffffffffffffffffffffffffffffffff166116b7611005565b73ffffffffffffffffffffffffffffffffffffffff161461170d576040517f08c379a00000000000000000000000000000000000000000000000000000000081526004016117049061329f565b60405180910390fd5b600073ffffffffffffffffffffffffffffffffffffffff168173ffffffffffffffffffffffffffffffffffffffff16141561177d576040517f08c379a00000000000000000000000000000000000000000000000000000000081526004016117749061315f565b60405180910390fd5b61178681611d7d565b50565b6000600b600083815260200190815260200160002090505050565b6117ac611906565b73ffffffffffffffffffffffffffffffffffffffff166117ca611005565b73ffffffffffffffffffffffffffffffffffffffff1614611820576040517f08c379a00000000000000000000000000000000000000000000000000000000081526004016118179061329f565b60405180910390fd5b61182a8484611a25565b50505050565b60007f01ffc9a7000000000000000000000000000000000000000000000000000000007bffffffffffffffffffffffffffffffffffffffffffffffffffffffff1916827bffffffffffffffffffffffffffffffffffffffffffffffffffffffff1916149050919050565b60008073ffffffffffffffffffffffffffffffffffffffff166002600084815260200190815260200160002060009054906101000a900473ffffffffffffffffffffffffffffffffffffffff1673ffffffffffffffffffffffffffffffffffffffff1614159050919050565b600033905090565b816004600083815260200190815260200160002060006101000a81548173ffffffffffffffffffffffffffffffffffffffff021916908373ffffffffffffffffffffffffffffffffffffffff160217905550808273ffffffffffffffffffffffffffffffffffffffff1661198183610c12565b73ffffffffffffffffffffffffffffffffffffffff167f8c5be1e5ebec7d5bd14f71427d1e84f3dd0314c0f7b2291e5b200ac8c7c3b92560405160405180910390a45050565b60008060496007546119d991906134d9565b905060008360ff164233846040516020016119f69392919061303c565b6040516020818303038152906040528051906020012060001c611a1991906136d3565b90508092505050919050565b611a3f828260405180602001604052806000815250612063565b5050565b6000611a4e8261189a565b611a8d576040517f08c379a0000000000000000000000000000000000000000000000000000000008152600401611a84906131df565b60405180910390fd5b6000611a9883610c12565b90508073ffffffffffffffffffffffffffffffffffffffff168473ffffffffffffffffffffffffffffffffffffffff161480611b0757508373ffffffffffffffffffffffffffffffffffffffff16611aef8461073d565b73ffffffffffffffffffffffffffffffffffffffff16145b80611b185750611b1781856115fd565b5b91505092915050565b8273ffffffffffffffffffffffffffffffffffffffff16611b4182610c12565b73ffffffffffffffffffffffffffffffffffffffff1614611b97576040517f08c379a0000000000000000000000000000000000000000000000000000000008152600401611b8e906132bf565b60405180910390fd5b600073ffffffffffffffffffffffffffffffffffffffff168273ffffffffffffffffffffffffffffffffffffffff161415611c07576040517f08c379a0000000000000000000000000000000000000000000000000000000008152600401611bfe9061319f565b60405180910390fd5b611c128383836120be565b611c1d60008261190e565b6001600360008573ffffffffffffffffffffffffffffffffffffffff1673ffffffffffffffffffffffffffffffffffffffff1681526020019081526020016000206000828254611c6d9190613533565b925050819055506001600360008473ffffffffffffffffffffffffffffffffffffffff1673ffffffffffffffffffffffffffffffffffffffff1681526020019081526020016000206000828254611cc49190613452565b92505081905550816002600083815260200190815260200160002060006101000a81548173ffffffffffffffffffffffffffffffffffffffff021916908373ffffffffffffffffffffffffffffffffffffffff160217905550808273ffffffffffffffffffffffffffffffffffffffff168473ffffffffffffffffffffffffffffffffffffffff167fddf252ad1be2c89b69c2b068fc378daa952ba7f163c4a11628f55a4df523b3ef60405160405180910390a4505050565b6000600660009054906101000a900473ffffffffffffffffffffffffffffffffffffffff16905081600660006101000a81548173ffffffffffffffffffffffffffffffffffffffff021916908373ffffffffffffffffffffffffffffffffffffffff1602179055508173ffffffffffffffffffffffffffffffffffffffff168173ffffffffffffffffffffffffffffffffffffffff167f8be0079c531659141344cd1fd0a4f28419497f9722a3daafe3b4186f6b6457e060405160405180910390a35050565b611e4e848484611b21565b611e5a848484846120dd565b611e99576040517f08c379a0000000000000000000000000000000000000000000000000000000008152600401611e909061313f565b60405180910390fd5b50505050565b606060405180602001604052806000815250905090565b60606000821415611efe576040518060400160405280600181526020017f3000000000000000000000000000000000000000000000000000000000000000815250905061205e565b600082905060005b60008214611f30578080611f199061365c565b915050600a82611f2991906134a8565b9150611f06565b60008167ffffffffffffffff811115611f72577f4e487b7100000000000000000000000000000000000000000000000000000000600052604160045260246000fd5b6040519080825280601f01601f191660200182016040528015611fa45781602001600182028036833780820191505090505b5090505b6000851461205757600182611fbd9190613533565b9150600a85611fcc91906136d3565b6030611fd89190613452565b60f81b818381518110612014577f4e487b7100000000000000000000000000000000000000000000000000000000600052603260045260246000fd5b60200101907effffffffffffffffffffffffffffffffffffffffffffffffffffffffffffff1916908160001a905350600a8561205091906134a8565b9450611fa8565b8093505050505b919050565b61206d8383612274565b61207a60008484846120dd565b6120b9576040517f08c379a00000000000000000000000000000000000000000000000000000000081526004016120b09061313f565b60405180910390fd5b505050565b6000600b60006007548152602001908152602001600020905050505050565b60006120fe8473ffffffffffffffffffffffffffffffffffffffff16612442565b15612267578373ffffffffffffffffffffffffffffffffffffffff1663150b7a02612127611906565b8786866040518563ffffffff1660e01b81526004016121499493929190613094565b602060405180830381600087803b15801561216357600080fd5b505af192505050801561219457506040513d601f19601f8201168201806040525081019061219191906127f1565b60015b612217573d80600081146121c4576040519150601f19603f3d011682016040523d82523d6000602084013e6121c9565b606091505b5060008151141561220f576040517f08c379a00000000000000000000000000000000000000000000000000000000081526004016122069061313f565b60405180910390fd5b805181602001fd5b63150b7a0260e01b7bffffffffffffffffffffffffffffffffffffffffffffffffffffffff1916817bffffffffffffffffffffffffffffffffffffffffffffffffffffffff19161491505061226c565b600190505b949350505050565b600073ffffffffffffffffffffffffffffffffffffffff168273ffffffffffffffffffffffffffffffffffffffff1614156122e4576040517f08c379a00000000000000000000000000000000000000000000000000000000081526004016122db9061325f565b60405180910390fd5b6122ed8161189a565b1561232d576040517f08c379a00000000000000000000000000000000000000000000000000000000081526004016123249061317f565b60405180910390fd5b612339600083836120be565b6001600360008473ffffffffffffffffffffffffffffffffffffffff1673ffffffffffffffffffffffffffffffffffffffff16815260200190815260200160002060008282546123899190613452565b92505081905550816002600083815260200190815260200160002060006101000a81548173ffffffffffffffffffffffffffffffffffffffff021916908373ffffffffffffffffffffffffffffffffffffffff160217905550808273ffffffffffffffffffffffffffffffffffffffff16600073ffffffffffffffffffffffffffffffffffffffff167fddf252ad1be2c89b69c2b068fc378daa952ba7f163c4a11628f55a4df523b3ef60405160405180910390a45050565b600080823b905060008111915050919050565b6040518060c00160405280600060ff168152602001600060ff16815260200160008152602001600060ff168152602001600060ff168152602001600060ff1681525090565b60006124ad6124a8846133a6565b613375565b9050828152602081018484840111156124c557600080fd5b6124d08482856135e8565b509392505050565b6000813590506124e7816137de565b92915050565b6000813590506124fc816137f5565b92915050565b6000813590506125118161380c565b92915050565b6000815190506125268161380c565b92915050565b600082601f83011261253d57600080fd5b813561254d84826020860161249a565b91505092915050565b60008083601f84011261256857600080fd5b8235905067ffffffffffffffff81111561258157600080fd5b60208301915083600182028301111561259957600080fd5b9250929050565b6000813590506125af81613823565b92915050565b6000602082840312156125c757600080fd5b60006125d5848285016124d8565b91505092915050565b600080604083850312156125f157600080fd5b60006125ff858286016124d8565b9250506020612610858286016124d8565b9150509250929050565b60008060006060848603121561262f57600080fd5b600061263d868287016124d8565b935050602061264e868287016124d8565b925050604061265f868287016125a0565b9150509250925092565b6000806000806080858703121561267f57600080fd5b600061268d878288016124d8565b945050602061269e878288016124d8565b93505060406126af878288016125a0565b925050606085013567ffffffffffffffff8111156126cc57600080fd5b6126d88782880161252c565b91505092959194509250565b600080604083850312156126f757600080fd5b6000612705858286016124d8565b9250506020612716858286016124ed565b9150509250929050565b6000806040838503121561273357600080fd5b6000612741858286016124d8565b9250506020612752858286016125a0565b9150509250929050565b6000806000806060858703121561277257600080fd5b6000612780878288016124d8565b9450506020612791878288016125a0565b935050604085013567ffffffffffffffff8111156127ae57600080fd5b6127ba87828801612556565b925092505092959194509250565b6000602082840312156127da57600080fd5b60006127e884828501612502565b91505092915050565b60006020828403121561280357600080fd5b600061281184828501612517565b91505092915050565b60006020828403121561282c57600080fd5b600061283a848285016125a0565b91505092915050565b600061284f8383612fd4565b60208301905092915050565b61286481613567565b82525050565b61287b61287682613567565b6136a5565b82525050565b600061288c826133e6565b6128968185613414565b93506128a1836133d6565b8060005b838110156128d25781516128b98882612843565b97506128c483613407565b9250506001810190506128a5565b5085935050505092915050565b6128e881613579565b82525050565b60006128f9826133f1565b6129038185613425565b93506129138185602086016135f7565b61291c816137c0565b840191505092915050565b6000612932826133fc565b61293c8185613436565b935061294c8185602086016135f7565b612955816137c0565b840191505092915050565b600061296b826133fc565b6129758185613447565b93506129858185602086016135f7565b80840191505092915050565b600061299e603283613436565b91507f4552433732313a207472616e7366657220746f206e6f6e20455243373231526560008301527f63656976657220696d706c656d656e74657200000000000000000000000000006020830152604082019050919050565b6000612a04602683613436565b91507f4f776e61626c653a206e6577206f776e657220697320746865207a65726f206160008301527f64647265737300000000000000000000000000000000000000000000000000006020830152604082019050919050565b6000612a6a601c83613436565b91507f4552433732313a20746f6b656e20616c7265616479206d696e746564000000006000830152602082019050919050565b6000612aaa602483613436565b91507f4552433732313a207472616e7366657220746f20746865207a65726f2061646460008301527f72657373000000000000000000000000000000000000000000000000000000006020830152604082019050919050565b6000612b10601983613436565b91507f4552433732313a20617070726f766520746f2063616c6c6572000000000000006000830152602082019050919050565b6000612b50602c83613436565b91507f4552433732313a206f70657261746f7220717565727920666f72206e6f6e657860008301527f697374656e7420746f6b656e00000000000000000000000000000000000000006020830152604082019050919050565b6000612bb6603883613436565b91507f4552433732313a20617070726f76652063616c6c6572206973206e6f74206f7760008301527f6e6572206e6f7220617070726f76656420666f7220616c6c00000000000000006020830152604082019050919050565b6000612c1c602a83613436565b91507f4552433732313a2062616c616e636520717565727920666f7220746865207a6560008301527f726f2061646472657373000000000000000000000000000000000000000000006020830152604082019050919050565b6000612c82602983613436565b91507f4552433732313a206f776e657220717565727920666f72206e6f6e657869737460008301527f656e7420746f6b656e00000000000000000000000000000000000000000000006020830152604082019050919050565b6000612ce8602083613436565b91507f4552433732313a206d696e7420746f20746865207a65726f20616464726573736000830152602082019050919050565b6000612d28602c83613436565b91507f4552433732313a20617070726f76656420717565727920666f72206e6f6e657860008301527f697374656e7420746f6b656e00000000000000000000000000000000000000006020830152604082019050919050565b6000612d8e602083613436565b91507f4f776e61626c653a2063616c6c6572206973206e6f7420746865206f776e65726000830152602082019050919050565b6000612dce602983613436565b91507f4552433732313a207472616e73666572206f6620746f6b656e2074686174206960008301527f73206e6f74206f776e00000000000000000000000000000000000000000000006020830152604082019050919050565b6000612e34602f83613436565b91507f4552433732314d657461646174613a2055524920717565727920666f72206e6f60008301527f6e6578697374656e7420746f6b656e00000000000000000000000000000000006020830152604082019050919050565b6000612e9a602183613436565b91507f4552433732313a20617070726f76616c20746f2063757272656e74206f776e6560008301527f72000000000000000000000000000000000000000000000000000000000000006020830152604082019050919050565b6000612f00603183613436565b91507f4552433732313a207472616e736665722063616c6c6572206973206e6f74206f60008301527f776e6572206e6f7220617070726f7665640000000000000000000000000000006020830152604082019050919050565b60c082016000820151612f6f6000850182613009565b506020820151612f826020850182613009565b506040820151612f956040850182612fd4565b506060820151612fa86060850182613009565b506080820151612fbb6080850182613009565b5060a0820151612fce60a0850182613009565b50505050565b612fdd816135d1565b82525050565b612fec816135d1565b82525050565b613003612ffe826135d1565b6136c9565b82525050565b613012816135db565b82525050565b60006130248285612960565b91506130308284612960565b91508190509392505050565b60006130488286612ff2565b602082019150613058828561286a565b6014820191506130688284612ff2565b602082019150819050949350505050565b600060208201905061308e600083018461285b565b92915050565b60006080820190506130a9600083018761285b565b6130b6602083018661285b565b6130c36040830185612fe3565b81810360608301526130d581846128ee565b905095945050505050565b600060208201905081810360008301526130fa8184612881565b905092915050565b600060208201905061311760008301846128df565b92915050565b600060208201905081810360008301526131378184612927565b905092915050565b6000602082019050818103600083015261315881612991565b9050919050565b60006020820190508181036000830152613178816129f7565b9050919050565b6000602082019050818103600083015261319881612a5d565b9050919050565b600060208201905081810360008301526131b881612a9d565b9050919050565b600060208201905081810360008301526131d881612b03565b9050919050565b600060208201905081810360008301526131f881612b43565b9050919050565b6000602082019050818103600083015261321881612ba9565b9050919050565b6000602082019050818103600083015261323881612c0f565b9050919050565b6000602082019050818103600083015261325881612c75565b9050919050565b6000602082019050818103600083015261327881612cdb565b9050919050565b6000602082019050818103600083015261329881612d1b565b9050919050565b600060208201905081810360008301526132b881612d81565b9050919050565b600060208201905081810360008301526132d881612dc1565b9050919050565b600060208201905081810360008301526132f881612e27565b9050919050565b6000602082019050818103600083015261331881612e8d565b9050919050565b6000602082019050818103600083015261333881612ef3565b9050919050565b600060c0820190506133546000830184612f59565b92915050565b600060208201905061336f6000830184612fe3565b92915050565b6000604051905081810181811067ffffffffffffffff8211171561339c5761339b613791565b5b8060405250919050565b600067ffffffffffffffff8211156133c1576133c0613791565b5b601f19601f8301169050602081019050919050565b6000819050602082019050919050565b600081519050919050565b600081519050919050565b600081519050919050565b6000602082019050919050565b600082825260208201905092915050565b600082825260208201905092915050565b600082825260208201905092915050565b600081905092915050565b600061345d826135d1565b9150613468836135d1565b9250827fffffffffffffffffffffffffffffffffffffffffffffffffffffffffffffffff0382111561349d5761349c613704565b5b828201905092915050565b60006134b3826135d1565b91506134be836135d1565b9250826134ce576134cd613733565b5b828204905092915050565b60006134e4826135d1565b91506134ef836135d1565b9250817fffffffffffffffffffffffffffffffffffffffffffffffffffffffffffffffff048311821515161561352857613527613704565b5b828202905092915050565b600061353e826135d1565b9150613549836135d1565b92508282101561355c5761355b613704565b5b828203905092915050565b6000613572826135b1565b9050919050565b60008115159050919050565b60007fffffffff0000000000000000000000000000000000000000000000000000000082169050919050565b600073ffffffffffffffffffffffffffffffffffffffff82169050919050565b6000819050919050565b600060ff82169050919050565b82818337600083830152505050565b60005b838110156136155780820151818401526020810190506135fa565b83811115613624576000848401525b50505050565b6000600282049050600182168061364257607f821691505b6020821081141561365657613655613762565b5b50919050565b6000613667826135d1565b91507fffffffffffffffffffffffffffffffffffffffffffffffffffffffffffffffff82141561369a57613699613704565b5b600182019050919050565b60006136b0826136b7565b9050919050565b60006136c2826137d1565b9050919050565b6000819050919050565b60006136de826135d1565b91506136e9836135d1565b9250826136f9576136f8613733565b5b828206905092915050565b7f4e487b7100000000000000000000000000000000000000000000000000000000600052601160045260246000fd5b7f4e487b7100000000000000000000000000000000000000000000000000000000600052601260045260246000fd5b7f4e487b7100000000000000000000000000000000000000000000000000000000600052602260045260246000fd5b7f4e487b7100000000000000000000000000000000000000000000000000000000600052604160045260246000fd5b6000601f19601f8301169050919050565b60008160601b9050919050565b6137e781613567565b81146137f257600080fd5b50565b6137fe81613579565b811461380957600080fd5b50565b61381581613585565b811461382057600080fd5b50565b61382c816135d1565b811461383757600080fd5b5056fea264697066735822122043f419add0e5877d8105e785e1c9927bf8a289ed7e1254dbf6e426839bd7d17464736f6c63430008000033",
  "immutableReferences": {},
  "source": "pragma solidity 0.8.0;\r\nimport \"../node_modules/@openzeppelin/contracts/token/ERC721/ERC721.sol\";\r\nimport \"../node_modules/@openzeppelin/contracts/access/Ownable.sol\";\r\n\r\n\r\ninterface MyCoin {\r\nfunction mintTLP(address to,uint256 amount) external;\r\n}\r\n\r\n\r\ncontract Char is ERC721, Ownable {\r\n\r\n\r\n    struct Face{\r\n        uint8 head;\r\n        uint8 eye;\r\n        uint256 eyebrow;\r\n        uint8 mount;\r\n        uint8 nose;\r\n        uint8 background;\r\n    }\r\n\r\n    uint256 nextId = 0;\r\n    uint8 randNonce = 0;\r\n\r\n    uint256 fee = 0.002 ether;\r\n\r\n\r\n\r\n\r\n    //string fees = 0.002;\r\n\r\n    uint attackVictoryProbability = 99;\r\n    mapping ( uint256 => Face) private _tokenDetails;\r\n    address myTokenAddress = 0x0176c767110458dB7eEE8dF1F234bbcFaEfB5900;\r\n\r\n    constructor( string memory name, string memory symbol)\r\n    ERC721(name, symbol){}\r\n\r\n    function updateFee(uint256 _fee) external onlyOwner(){\r\n        fee = _fee;\r\n    }\r\n\r\n    function withdraw() external payable onlyOwner(){\r\n        address payable _owner = payable(owner());\r\n        _owner.transfer(address(this).balance);\r\n    }\r\n\r\n\r\n   function mintToken(address _to, uint256 _tokenId, string calldata _uri) external onlyOwner {\r\n    _safeMint(_to, _tokenId);\r\n    //super._setTokenUri(_tokenId, _uri);\r\n  }\r\n\r\n   mapping (address => uint) balances;\r\n\r\n\r\n    function sendCoin(address receiver, uint amount)\r\n    public returns(bool success) {\r\n        if (balances[msg.sender] < amount) return false;\r\n        balances[msg.sender] -= amount;\r\n        balances[receiver] += amount;\r\n        emit Transfer(msg.sender, receiver, amount);\r\n        return true;    }\r\n\r\n    function mint() public payable {\r\n\r\n\r\n        uint8 head = 1 ;\r\n        uint8 eye = 1 ;\r\n        uint256 eyebrow = 1 ;\r\n        uint8 mount = 1 ;\r\n        uint8 nose = 1 ;\r\n        uint8 background = 1 ;\r\n        uint ran_number = 0;\r\n\r\n\r\n        if (ran_number < 50) {head = 2; }\r\n         ran_number = randMod(90);\r\n        if (ran_number < 50) {eye = 2; }\r\n         ran_number = randMod(80);\r\n        if (ran_number < 50) {eyebrow = 2; }\r\n         ran_number = randMod(70);\r\n        if (ran_number < 50) {mount = 2; }\r\n         ran_number = randMod(60);\r\n        if (ran_number < 50) {nose = 2; }\r\n         ran_number = randMod(50);\r\n        if (ran_number < 50) {background = 2; }\r\n\r\n        _tokenDetails[nextId] = Face(head, eye, eyebrow, mount,nose,background);\r\n        _safeMint(msg.sender, nextId);\r\n\r\n        nextId++;\r\n    }\r\n\r\n    function randMod(uint8 _modulus) internal returns(uint256) {\r\n\r\n            uint256 ran_n = nextId * 73;\r\n            uint256 abc = uint(keccak256(abi.encodePacked(block.timestamp, msg.sender,ran_n))) % _modulus;\r\n    return abc ;\r\n    }\r\n\r\n\r\n    // function gift(uint8 damage, uint8 magic, uint256 endurance,address _to) public payable onlyOwner() {\r\n    //     //require(msg.value >= fee );\r\n    //     _tokenDetails[nextId] = Pet(damage, magic, block.timestamp, endurance);\r\n    //     //_safeMint(_to, nextId);\r\n    //     _safeMint(msg.sender, nextId);\r\n    //     nextId++;\r\n    // }\r\n\r\n    function feed(uint256 tokenId) public{\r\n            Face storage face = _tokenDetails[tokenId];\r\n            //require(face.lastMeal + face.endurance > block.timestamp);\r\n            //face.eyebrow = block.timestamp;\r\n\r\n        }\r\n\r\n\r\n    //MyCoin public myCoin = new MyCoin(\"MyCoin\",\"COIN\");\r\n\r\n    function attack(uint256 tokenId) public payable{\r\n            require(msg.value != fee );\r\n            Face storage face = _tokenDetails[tokenId];\r\n            //require(face.lastMeal + face.endurance > block.timestamp);\r\n            uint rand = randMod(100);\r\n            //_mint(msg.sender,1000);\r\n            // if (rand <= attackVictoryProbability) {\r\n            //      face.damage = face.damage +10;\r\n            //      //myCoin.mintTLP(msg.sender,100);\r\n            //     MyCoin(myTokenAddress).mintTLP(msg.sender,22 * 10 ** 18);\r\n            // } else {\r\n            //      face.damage = face.damage -20;\r\n            // }\r\n\r\n        }\r\n\r\n\r\n    function _beforeTokenTransfer(address from, address to, uint256 tokenId) internal override {\r\n                Face storage face = _tokenDetails[nextId];\r\n                // require(face.lastMeal + face.endurance > block.timestamp);\r\n            }\r\n\r\n    function getTokenDetails(uint256 tokenId) public view returns (Face memory)\r\n                {\r\n                    return _tokenDetails[tokenId];\r\n                }\r\n\r\n    function getAllTokensForUser(address user) public view returns (uint256[] memory){\r\n                    uint256 tokenCount = balanceOf(user);\r\n                    if(tokenCount ==0){\r\n                        return new uint256[](0);\r\n\r\n                    }\r\n                    else{\r\n                        uint[] memory result = new uint256[](tokenCount);\r\n                        uint256 totalPets = nextId;\r\n                        uint256 resultIndex = 0;\r\n                        uint256 i;\r\n                        for (i =0; i< totalPets; i++){\r\n                            if(ownerOf(i) == user){\r\n                                result[resultIndex] = i;\r\n                                resultIndex++;\r\n                            }\r\n                        }\r\n                        return result;\r\n                    }\r\n\r\n                }\r\n}",
  "sourcePath": "C:\\Users\\admin\\PycharmProjects\\Arma\\contracts\\Char.sol",
  "compiler": {
    "name": "solc",
    "version": "0.8.0+commit.c7dfd78e.Emscripten.clang"
  },
  "schemaVersion": "3.4.3",
  "updatedAt": "2021-10-06T09:46:03.942Z",
  "networkType": "ethereum",
  "devdoc": {
    "kind": "dev",
    "methods": {
      "approve(address,uint256)": {
        "details": "See {IERC721-approve}."
      },
      "balanceOf(address)": {
        "details": "See {IERC721-balanceOf}."
      },
      "getApproved(uint256)": {
        "details": "See {IERC721-getApproved}."
      },
      "isApprovedForAll(address,address)": {
        "details": "See {IERC721-isApprovedForAll}."
      },
      "name()": {
        "details": "See {IERC721Metadata-name}."
      },
      "owner()": {
        "details": "Returns the address of the current owner."
      },
      "ownerOf(uint256)": {
        "details": "See {IERC721-ownerOf}."
      },
      "renounceOwnership()": {
        "details": "Leaves the contract without owner. It will not be possible to call `onlyOwner` functions anymore. Can only be called by the current owner. NOTE: Renouncing ownership will leave the contract without an owner, thereby removing any functionality that is only available to the owner."
      },
      "safeTransferFrom(address,address,uint256)": {
        "details": "See {IERC721-safeTransferFrom}."
      },
      "safeTransferFrom(address,address,uint256,bytes)": {
        "details": "See {IERC721-safeTransferFrom}."
      },
      "setApprovalForAll(address,bool)": {
        "details": "See {IERC721-setApprovalForAll}."
      },
      "supportsInterface(bytes4)": {
        "details": "See {IERC165-supportsInterface}."
      },
      "symbol()": {
        "details": "See {IERC721Metadata-symbol}."
      },
      "tokenURI(uint256)": {
        "details": "See {IERC721Metadata-tokenURI}."
      },
      "transferFrom(address,address,uint256)": {
        "details": "See {IERC721-transferFrom}."
      },
      "transferOwnership(address)": {
        "details": "Transfers ownership of the contract to a new account (`newOwner`). Can only be called by the current owner."
      }
    },
    "version": 1
  },
  "userdoc": {
    "kind": "user",
    "methods": {},
    "version": 1
  }
}