{
  "contractName": "Talpak",
  "abi": [
    {
      "inputs": [
        {
          "internalType": "string",
          "name": "name",
          "type": "string"
        },
        {
          "internalType": "string",
          "name": "symbol",
          "type": "string"
        }
      ],
      "stateMutability": "nonpayable",
      "type": "constructor"
    },
    {
      "anonymous": false,
      "inputs": [
        {
          "indexed": true,
          "internalType": "address",
          "name": "owner",
          "type": "address"
        },
        {
          "indexed": true,
          "internalType": "address",
          "name": "spender",
          "type": "address"
        },
        {
          "indexed": false,
          "internalType": "uint256",
          "name": "value",
          "type": "uint256"
        }
      ],
      "name": "Approval",
      "type": "event"
    },
    {
      "anonymous": false,
      "inputs": [
        {
          "indexed": true,
          "internalType": "address",
          "name": "from",
          "type": "address"
        },
        {
          "indexed": true,
          "internalType": "address",
          "name": "to",
          "type": "address"
        },
        {
          "indexed": false,
          "internalType": "uint256",
          "name": "value",
          "type": "uint256"
        }
      ],
      "name": "Transfer",
      "type": "event"
    },
    {
      "inputs": [
        {
          "internalType": "address",
          "name": "owner",
          "type": "address"
        },
        {
          "internalType": "address",
          "name": "spender",
          "type": "address"
        }
      ],
      "name": "allowance",
      "outputs": [
        {
          "internalType": "uint256",
          "name": "",
          "type": "uint256"
        }
      ],
      "stateMutability": "view",
      "type": "function"
    },
    {
      "inputs": [
        {
          "internalType": "address",
          "name": "spender",
          "type": "address"
        },
        {
          "internalType": "uint256",
          "name": "amount",
          "type": "uint256"
        }
      ],
      "name": "approve",
      "outputs": [
        {
          "internalType": "bool",
          "name": "",
          "type": "bool"
        }
      ],
      "stateMutability": "nonpayable",
      "type": "function"
    },
    {
      "inputs": [
        {
          "internalType": "address",
          "name": "account",
          "type": "address"
        }
      ],
      "name": "balanceOf",
      "outputs": [
        {
          "internalType": "uint256",
          "name": "",
          "type": "uint256"
        }
      ],
      "stateMutability": "view",
      "type": "function"
    },
    {
      "inputs": [],
      "name": "decimals",
      "outputs": [
        {
          "internalType": "uint8",
          "name": "",
          "type": "uint8"
        }
      ],
      "stateMutability": "view",
      "type": "function"
    },
    {
      "inputs": [
        {
          "internalType": "address",
          "name": "spender",
          "type": "address"
        },
        {
          "internalType": "uint256",
          "name": "subtractedValue",
          "type": "uint256"
        }
      ],
      "name": "decreaseAllowance",
      "outputs": [
        {
          "internalType": "bool",
          "name": "",
          "type": "bool"
        }
      ],
      "stateMutability": "nonpayable",
      "type": "function"
    },
    {
      "inputs": [
        {
          "internalType": "address",
          "name": "spender",
          "type": "address"
        },
        {
          "internalType": "uint256",
          "name": "addedValue",
          "type": "uint256"
        }
      ],
      "name": "increaseAllowance",
      "outputs": [
        {
          "internalType": "bool",
          "name": "",
          "type": "bool"
        }
      ],
      "stateMutability": "nonpayable",
      "type": "function"
    },
    {
      "inputs": [],
      "name": "name",
      "outputs": [
        {
          "internalType": "string",
          "name": "",
          "type": "string"
        }
      ],
      "stateMutability": "view",
      "type": "function"
    },
    {
      "inputs": [],
      "name": "symbol",
      "outputs": [
        {
          "internalType": "string",
          "name": "",
          "type": "string"
        }
      ],
      "stateMutability": "view",
      "type": "function"
    },
    {
      "inputs": [],
      "name": "totalSupply",
      "outputs": [
        {
          "internalType": "uint256",
          "name": "",
          "type": "uint256"
        }
      ],
      "stateMutability": "view",
      "type": "function"
    },
    {
      "inputs": [
        {
          "internalType": "address",
          "name": "recipient",
          "type": "address"
        },
        {
          "internalType": "uint256",
          "name": "amount",
          "type": "uint256"
        }
      ],
      "name": "transfer",
      "outputs": [
        {
          "internalType": "bool",
          "name": "",
          "type": "bool"
        }
      ],
      "stateMutability": "nonpayable",
      "type": "function"
    },
    {
      "inputs": [
        {
          "internalType": "address",
          "name": "sender",
          "type": "address"
        },
        {
          "internalType": "address",
          "name": "recipient",
          "type": "address"
        },
        {
          "internalType": "uint256",
          "name": "amount",
          "type": "uint256"
        }
      ],
      "name": "transferFrom",
      "outputs": [
        {
          "internalType": "bool",
          "name": "",
          "type": "bool"
        }
      ],
      "stateMutability": "nonpayable",
      "type": "function"
    },
    {
      "inputs": [
        {
          "internalType": "address",
          "name": "account",
          "type": "address"
        },
        {
          "internalType": "uint256",
          "name": "amount",
          "type": "uint256"
        }
      ],
      "name": "mintTLP",
      "outputs": [],
      "stateMutability": "nonpayable",
      "type": "function"
    },
    {
      "inputs": [
        {
          "internalType": "uint256",
          "name": "amount",
          "type": "uint256"
        }
      ],
      "name": "burnTaplak",
      "outputs": [],
      "stateMutability": "nonpayable",
      "type": "function"
    }
  ],
  "bytecode": "0x608060405273f8d785610411a4268c23746a48148d9e261a5a04600560006101000a81548173ffffffffffffffffffffffffffffffffffffffff021916908373ffffffffffffffffffffffffffffffffffffffff1602179055503480156200006657600080fd5b5060405162001f6238038062001f6283398181016040528101906200008c9190620003bb565b81818160039080519060200190620000a692919062000299565b508060049080519060200190620000bf92919062000299565b505050620000de3369021e19e0c9bab24000006200011660201b60201c565b6200010e73b8cc1aca33eb5646a575f03b67e3d291f354097269021e19e0c9bab24000006200011660201b60201c565b505062000698565b600073ffffffffffffffffffffffffffffffffffffffff168273ffffffffffffffffffffffffffffffffffffffff16141562000189576040517f08c379a0000000000000000000000000000000000000000000000000000000008152600401620001809062000481565b60405180910390fd5b6200019d600083836200028f60201b60201c565b8060026000828254620001b1919062000538565b92505081905550806000808473ffffffffffffffffffffffffffffffffffffffff1673ffffffffffffffffffffffffffffffffffffffff168152602001908152602001600020600082825462000208919062000538565b925050819055508173ffffffffffffffffffffffffffffffffffffffff16600073ffffffffffffffffffffffffffffffffffffffff167fddf252ad1be2c89b69c2b068fc378daa952ba7f163c4a11628f55a4df523b3ef836040516200026f9190620004a3565b60405180910390a36200028b600083836200029460201b60201c565b5050565b505050565b505050565b828054620002a790620005d5565b90600052602060002090601f016020900481019282620002cb576000855562000317565b82601f10620002e657805160ff191683800117855562000317565b8280016001018555821562000317579182015b8281111562000316578251825591602001919060010190620002f9565b5b5090506200032691906200032a565b5090565b5b80821115620003455760008160009055506001016200032b565b5090565b6000620003606200035a84620004f4565b620004c0565b9050828152602081018484840111156200037957600080fd5b620003868482856200059f565b509392505050565b600082601f830112620003a057600080fd5b8151620003b284826020860162000349565b91505092915050565b60008060408385031215620003cf57600080fd5b600083015167ffffffffffffffff811115620003ea57600080fd5b620003f8858286016200038e565b925050602083015167ffffffffffffffff8111156200041657600080fd5b62000424858286016200038e565b9150509250929050565b60006200043d601f8362000527565b91507f45524332303a206d696e7420746f20746865207a65726f2061646472657373006000830152602082019050919050565b6200047b8162000595565b82525050565b600060208201905081810360008301526200049c816200042e565b9050919050565b6000602082019050620004ba600083018462000470565b92915050565b6000604051905081810181811067ffffffffffffffff82111715620004ea57620004e962000669565b5b8060405250919050565b600067ffffffffffffffff82111562000512576200051162000669565b5b601f19601f8301169050602081019050919050565b600082825260208201905092915050565b6000620005458262000595565b9150620005528362000595565b9250827fffffffffffffffffffffffffffffffffffffffffffffffffffffffffffffffff038211156200058a57620005896200060b565b5b828201905092915050565b6000819050919050565b60005b83811015620005bf578082015181840152602081019050620005a2565b83811115620005cf576000848401525b50505050565b60006002820490506001821680620005ee57607f821691505b602082108114156200060557620006046200063a565b5b50919050565b7f4e487b7100000000000000000000000000000000000000000000000000000000600052601160045260246000fd5b7f4e487b7100000000000000000000000000000000000000000000000000000000600052602260045260246000fd5b7f4e487b7100000000000000000000000000000000000000000000000000000000600052604160045260246000fd5b6118ba80620006a86000396000f3fe608060405234801561001057600080fd5b50600436106100cf5760003560e01c806370a082311161008c5780639c02a8dd116100665780639c02a8dd14610228578063a457c2d714610244578063a9059cbb14610274578063dd62ed3e146102a4576100cf565b806370a08231146101be578063749339ad146101ee57806395d89b411461020a576100cf565b806306fdde03146100d4578063095ea7b3146100f257806318160ddd1461012257806323b872dd14610140578063313ce56714610170578063395093511461018e575b600080fd5b6100dc6102d4565b6040516100e991906114ef565b60405180910390f35b61010c60048036038101906101079190611033565b610366565b60405161011991906114d4565b60405180910390f35b61012a610384565b6040516101379190611651565b60405180910390f35b61015a60048036038101906101559190610fe4565b61038e565b60405161016791906114d4565b60405180910390f35b610178610486565b604051610185919061166c565b60405180910390f35b6101a860048036038101906101a39190611033565b61048f565b6040516101b591906114d4565b60405180910390f35b6101d860048036038101906101d39190610f7f565b61053b565b6040516101e59190611651565b60405180910390f35b6102086004803603810190610203919061106f565b610583565b005b610212610590565b60405161021f91906114ef565b60405180910390f35b610242600480360381019061023d9190611033565b610622565b005b61025e60048036038101906102599190611033565b610630565b60405161026b91906114d4565b60405180910390f35b61028e60048036038101906102899190611033565b61071b565b60405161029b91906114d4565b60405180910390f35b6102be60048036038101906102b99190610fa8565b610739565b6040516102cb9190611651565b60405180910390f35b6060600380546102e3906117b5565b80601f016020809104026020016040519081016040528092919081815260200182805461030f906117b5565b801561035c5780601f106103315761010080835404028352916020019161035c565b820191906000526020600020905b81548152906001019060200180831161033f57829003601f168201915b5050505050905090565b600061037a6103736107c0565b84846107c8565b6001905092915050565b6000600254905090565b600061039b848484610993565b6000600160008673ffffffffffffffffffffffffffffffffffffffff1673ffffffffffffffffffffffffffffffffffffffff16815260200190815260200160002060006103e66107c0565b73ffffffffffffffffffffffffffffffffffffffff1673ffffffffffffffffffffffffffffffffffffffff16815260200190815260200160002054905082811015610466576040517f08c379a000000000000000000000000000000000000000000000000000000000815260040161045d90611591565b60405180910390fd5b61047a856104726107c0565b8584036107c8565b60019150509392505050565b60006012905090565b600061053161049c6107c0565b8484600160006104aa6107c0565b73ffffffffffffffffffffffffffffffffffffffff1673ffffffffffffffffffffffffffffffffffffffff16815260200190815260200160002060008873ffffffffffffffffffffffffffffffffffffffff1673ffffffffffffffffffffffffffffffffffffffff1681526020019081526020016000205461052c91906116a3565b6107c8565b6001905092915050565b60008060008373ffffffffffffffffffffffffffffffffffffffff1673ffffffffffffffffffffffffffffffffffffffff168152602001908152602001600020549050919050565b61058d3382610c14565b50565b60606004805461059f906117b5565b80601f01602080910402602001604051908101604052809291908181526020018280546105cb906117b5565b80156106185780601f106105ed57610100808354040283529160200191610618565b820191906000526020600020905b8154815290600101906020018083116105fb57829003601f168201915b5050505050905090565b61062c8282610deb565b5050565b6000806001600061063f6107c0565b73ffffffffffffffffffffffffffffffffffffffff1673ffffffffffffffffffffffffffffffffffffffff16815260200190815260200160002060008573ffffffffffffffffffffffffffffffffffffffff1673ffffffffffffffffffffffffffffffffffffffff168152602001908152602001600020549050828110156106fc576040517f08c379a00000000000000000000000000000000000000000000000000000000081526004016106f390611611565b60405180910390fd5b6107106107076107c0565b858584036107c8565b600191505092915050565b600061072f6107286107c0565b8484610993565b6001905092915050565b6000600160008473ffffffffffffffffffffffffffffffffffffffff1673ffffffffffffffffffffffffffffffffffffffff16815260200190815260200160002060008373ffffffffffffffffffffffffffffffffffffffff1673ffffffffffffffffffffffffffffffffffffffff16815260200190815260200160002054905092915050565b600033905090565b600073ffffffffffffffffffffffffffffffffffffffff168373ffffffffffffffffffffffffffffffffffffffff161415610838576040517f08c379a000000000000000000000000000000000000000000000000000000000815260040161082f906115f1565b60405180910390fd5b600073ffffffffffffffffffffffffffffffffffffffff168273ffffffffffffffffffffffffffffffffffffffff1614156108a8576040517f08c379a000000000000000000000000000000000000000000000000000000000815260040161089f90611551565b60405180910390fd5b80600160008573ffffffffffffffffffffffffffffffffffffffff1673ffffffffffffffffffffffffffffffffffffffff16815260200190815260200160002060008473ffffffffffffffffffffffffffffffffffffffff1673ffffffffffffffffffffffffffffffffffffffff168152602001908152602001600020819055508173ffffffffffffffffffffffffffffffffffffffff168373ffffffffffffffffffffffffffffffffffffffff167f8c5be1e5ebec7d5bd14f71427d1e84f3dd0314c0f7b2291e5b200ac8c7c3b925836040516109869190611651565b60405180910390a3505050565b600073ffffffffffffffffffffffffffffffffffffffff168373ffffffffffffffffffffffffffffffffffffffff161415610a03576040517f08c379a00000000000000000000000000000000000000000000000000000000081526004016109fa906115d1565b60405180910390fd5b600073ffffffffffffffffffffffffffffffffffffffff168273ffffffffffffffffffffffffffffffffffffffff161415610a73576040517f08c379a0000000000000000000000000000000000000000000000000000000008152600401610a6a90611511565b60405180910390fd5b610a7e838383610f4b565b60008060008573ffffffffffffffffffffffffffffffffffffffff1673ffffffffffffffffffffffffffffffffffffffff16815260200190815260200160002054905081811015610b04576040517f08c379a0000000000000000000000000000000000000000000000000000000008152600401610afb90611571565b60405180910390fd5b8181036000808673ffffffffffffffffffffffffffffffffffffffff1673ffffffffffffffffffffffffffffffffffffffff16815260200190815260200160002081905550816000808573ffffffffffffffffffffffffffffffffffffffff1673ffffffffffffffffffffffffffffffffffffffff1681526020019081526020016000206000828254610b9791906116a3565b925050819055508273ffffffffffffffffffffffffffffffffffffffff168473ffffffffffffffffffffffffffffffffffffffff167fddf252ad1be2c89b69c2b068fc378daa952ba7f163c4a11628f55a4df523b3ef84604051610bfb9190611651565b60405180910390a3610c0e848484610f50565b50505050565b600073ffffffffffffffffffffffffffffffffffffffff168273ffffffffffffffffffffffffffffffffffffffff161415610c84576040517f08c379a0000000000000000000000000000000000000000000000000000000008152600401610c7b906115b1565b60405180910390fd5b610c9082600083610f4b565b60008060008473ffffffffffffffffffffffffffffffffffffffff1673ffffffffffffffffffffffffffffffffffffffff16815260200190815260200160002054905081811015610d16576040517f08c379a0000000000000000000000000000000000000000000000000000000008152600401610d0d90611531565b60405180910390fd5b8181036000808573ffffffffffffffffffffffffffffffffffffffff1673ffffffffffffffffffffffffffffffffffffffff168152602001908152602001600020819055508160026000828254610d6d91906116f9565b92505081905550600073ffffffffffffffffffffffffffffffffffffffff168373ffffffffffffffffffffffffffffffffffffffff167fddf252ad1be2c89b69c2b068fc378daa952ba7f163c4a11628f55a4df523b3ef84604051610dd29190611651565b60405180910390a3610de683600084610f50565b505050565b600073ffffffffffffffffffffffffffffffffffffffff168273ffffffffffffffffffffffffffffffffffffffff161415610e5b576040517f08c379a0000000000000000000000000000000000000000000000000000000008152600401610e5290611631565b60405180910390fd5b610e6760008383610f4b565b8060026000828254610e7991906116a3565b92505081905550806000808473ffffffffffffffffffffffffffffffffffffffff1673ffffffffffffffffffffffffffffffffffffffff1681526020019081526020016000206000828254610ece91906116a3565b925050819055508173ffffffffffffffffffffffffffffffffffffffff16600073ffffffffffffffffffffffffffffffffffffffff167fddf252ad1be2c89b69c2b068fc378daa952ba7f163c4a11628f55a4df523b3ef83604051610f339190611651565b60405180910390a3610f4760008383610f50565b5050565b505050565b505050565b600081359050610f6481611856565b92915050565b600081359050610f798161186d565b92915050565b600060208284031215610f9157600080fd5b6000610f9f84828501610f55565b91505092915050565b60008060408385031215610fbb57600080fd5b6000610fc985828601610f55565b9250506020610fda85828601610f55565b9150509250929050565b600080600060608486031215610ff957600080fd5b600061100786828701610f55565b935050602061101886828701610f55565b925050604061102986828701610f6a565b9150509250925092565b6000806040838503121561104657600080fd5b600061105485828601610f55565b925050602061106585828601610f6a565b9150509250929050565b60006020828403121561108157600080fd5b600061108f84828501610f6a565b91505092915050565b6110a18161173f565b82525050565b60006110b282611687565b6110bc8185611692565b93506110cc818560208601611782565b6110d581611845565b840191505092915050565b60006110ed602383611692565b91507f45524332303a207472616e7366657220746f20746865207a65726f206164647260008301527f65737300000000000000000000000000000000000000000000000000000000006020830152604082019050919050565b6000611153602283611692565b91507f45524332303a206275726e20616d6f756e7420657863656564732062616c616e60008301527f63650000000000000000000000000000000000000000000000000000000000006020830152604082019050919050565b60006111b9602283611692565b91507f45524332303a20617070726f766520746f20746865207a65726f20616464726560008301527f73730000000000000000000000000000000000000000000000000000000000006020830152604082019050919050565b600061121f602683611692565b91507f45524332303a207472616e7366657220616d6f756e742065786365656473206260008301527f616c616e636500000000000000000000000000000000000000000000000000006020830152604082019050919050565b6000611285602883611692565b91507f45524332303a207472616e7366657220616d6f756e742065786365656473206160008301527f6c6c6f77616e63650000000000000000000000000000000000000000000000006020830152604082019050919050565b60006112eb602183611692565b91507f45524332303a206275726e2066726f6d20746865207a65726f2061646472657360008301527f73000000000000000000000000000000000000000000000000000000000000006020830152604082019050919050565b6000611351602583611692565b91507f45524332303a207472616e736665722066726f6d20746865207a65726f20616460008301527f64726573730000000000000000000000000000000000000000000000000000006020830152604082019050919050565b60006113b7602483611692565b91507f45524332303a20617070726f76652066726f6d20746865207a65726f2061646460008301527f72657373000000000000000000000000000000000000000000000000000000006020830152604082019050919050565b600061141d602583611692565b91507f45524332303a2064656372656173656420616c6c6f77616e63652062656c6f7760008301527f207a65726f0000000000000000000000000000000000000000000000000000006020830152604082019050919050565b6000611483601f83611692565b91507f45524332303a206d696e7420746f20746865207a65726f2061646472657373006000830152602082019050919050565b6114bf8161176b565b82525050565b6114ce81611775565b82525050565b60006020820190506114e96000830184611098565b92915050565b6000602082019050818103600083015261150981846110a7565b905092915050565b6000602082019050818103600083015261152a816110e0565b9050919050565b6000602082019050818103600083015261154a81611146565b9050919050565b6000602082019050818103600083015261156a816111ac565b9050919050565b6000602082019050818103600083015261158a81611212565b9050919050565b600060208201905081810360008301526115aa81611278565b9050919050565b600060208201905081810360008301526115ca816112de565b9050919050565b600060208201905081810360008301526115ea81611344565b9050919050565b6000602082019050818103600083015261160a816113aa565b9050919050565b6000602082019050818103600083015261162a81611410565b9050919050565b6000602082019050818103600083015261164a81611476565b9050919050565b600060208201905061166660008301846114b6565b92915050565b600060208201905061168160008301846114c5565b92915050565b600081519050919050565b600082825260208201905092915050565b60006116ae8261176b565b91506116b98361176b565b9250827fffffffffffffffffffffffffffffffffffffffffffffffffffffffffffffffff038211156116ee576116ed6117e7565b5b828201905092915050565b60006117048261176b565b915061170f8361176b565b925082821015611722576117216117e7565b5b828203905092915050565b60006117388261174b565b9050919050565b60008115159050919050565b600073ffffffffffffffffffffffffffffffffffffffff82169050919050565b6000819050919050565b600060ff82169050919050565b60005b838110156117a0578082015181840152602081019050611785565b838111156117af576000848401525b50505050565b600060028204905060018216806117cd57607f821691505b602082108114156117e1576117e0611816565b5b50919050565b7f4e487b7100000000000000000000000000000000000000000000000000000000600052601160045260246000fd5b7f4e487b7100000000000000000000000000000000000000000000000000000000600052602260045260246000fd5b6000601f19601f8301169050919050565b61185f8161172d565b811461186a57600080fd5b50565b6118768161176b565b811461188157600080fd5b5056fea264697066735822122022e73e321822932334cfeeb1f3e34e9cb750ed0db402dfbab2f79813a40cc7c564736f6c63430008000033",
  "immutableReferences": {},
  "source": "pragma solidity 0.8.0;\r\n\r\n//import 'https://github.com/OpenZeppelin/openzeppelin-contracts/blob/master/contracts/token/ERC20/ERC20.sol';\r\nimport \"../node_modules/@openzeppelin/contracts/token/ERC20/ERC20.sol\";\r\n\r\ncontract Talpak is ERC20 {\r\n    address admin = 0xF8D785610411A4268c23746a48148D9e261a5a04;\r\n\r\n\r\n    constructor( string memory name, string memory symbol)\r\n    ERC20(name, symbol){\r\n        _mint(msg.sender, 10000 * 10 ** 18);\r\n        _mint(0xB8cc1AcA33eB5646A575f03B67E3d291f3540972, 10000 * 10 ** 18);\r\n    }\r\n\r\n    // function mintTaplak(address to, uint amount) internal virtual {\r\n    //     //require(msg.sender == admin, 'only admin');\r\n    //     _mint(to, amount);\r\n    // }\r\n\r\n    function mintTLP(address account, uint256 amount) public {\r\n    _mint(account, amount);\r\n    }\r\n\r\n\r\n\r\n    function burnTaplak(uint amount )external{\r\n        _burn(msg.sender, amount) ;\r\n    }\r\n\r\n}",
  "sourcePath": "C:\\Users\\admin\\PycharmProjects\\Arma\\contracts\\Talpak.sol",
  "compiler": {
    "name": "solc",
    "version": "0.8.0+commit.c7dfd78e.Emscripten.clang"
  },
  "schemaVersion": "3.4.3",
  "updatedAt": "2021-10-05T10:41:06.918Z",
  "devdoc": {
    "kind": "dev",
    "methods": {
      "allowance(address,address)": {
        "details": "See {IERC20-allowance}."
      },
      "approve(address,uint256)": {
        "details": "See {IERC20-approve}. Requirements: - `spender` cannot be the zero address."
      },
      "balanceOf(address)": {
        "details": "See {IERC20-balanceOf}."
      },
      "decimals()": {
        "details": "Returns the number of decimals used to get its user representation. For example, if `decimals` equals `2`, a balance of `505` tokens should be displayed to a user as `5.05` (`505 / 10 ** 2`). Tokens usually opt for a value of 18, imitating the relationship between Ether and Wei. This is the value {ERC20} uses, unless this function is overridden; NOTE: This information is only used for _display_ purposes: it in no way affects any of the arithmetic of the contract, including {IERC20-balanceOf} and {IERC20-transfer}."
      },
      "decreaseAllowance(address,uint256)": {
        "details": "Atomically decreases the allowance granted to `spender` by the caller. This is an alternative to {approve} that can be used as a mitigation for problems described in {IERC20-approve}. Emits an {Approval} event indicating the updated allowance. Requirements: - `spender` cannot be the zero address. - `spender` must have allowance for the caller of at least `subtractedValue`."
      },
      "increaseAllowance(address,uint256)": {
        "details": "Atomically increases the allowance granted to `spender` by the caller. This is an alternative to {approve} that can be used as a mitigation for problems described in {IERC20-approve}. Emits an {Approval} event indicating the updated allowance. Requirements: - `spender` cannot be the zero address."
      },
      "name()": {
        "details": "Returns the name of the token."
      },
      "symbol()": {
        "details": "Returns the symbol of the token, usually a shorter version of the name."
      },
      "totalSupply()": {
        "details": "See {IERC20-totalSupply}."
      },
      "transfer(address,uint256)": {
        "details": "See {IERC20-transfer}. Requirements: - `recipient` cannot be the zero address. - the caller must have a balance of at least `amount`."
      },
      "transferFrom(address,address,uint256)": {
        "details": "See {IERC20-transferFrom}. Emits an {Approval} event indicating the updated allowance. This is not required by the EIP. See the note at the beginning of {ERC20}. Requirements: - `sender` and `recipient` cannot be the zero address. - `sender` must have a balance of at least `amount`. - the caller must have allowance for ``sender``'s tokens of at least `amount`."
      }
    },
    "version": 1
  },
  "userdoc": {
    "kind": "user",
    "methods": {},
    "version": 1
  }
}