{
  "contractName": "Token",
  "abi": [
    {
      "inputs": [
        {
          "internalType": "string",
          "name": "name",
          "type": "string"
        },
        {
          "internalType": "string",
          "name": "symbol",
          "type": "string"
        }
      ],
      "stateMutability": "nonpayable",
      "type": "constructor"
    },
    {
      "anonymous": false,
      "inputs": [
        {
          "indexed": true,
          "internalType": "address",
          "name": "owner",
          "type": "address"
        },
        {
          "indexed": true,
          "internalType": "address",
          "name": "approved",
          "type": "address"
        },
        {
          "indexed": true,
          "internalType": "uint256",
          "name": "tokenId",
          "type": "uint256"
        }
      ],
      "name": "Approval",
      "type": "event"
    },
    {
      "anonymous": false,
      "inputs": [
        {
          "indexed": true,
          "internalType": "address",
          "name": "owner",
          "type": "address"
        },
        {
          "indexed": true,
          "internalType": "address",
          "name": "operator",
          "type": "address"
        },
        {
          "indexed": false,
          "internalType": "bool",
          "name": "approved",
          "type": "bool"
        }
      ],
      "name": "ApprovalForAll",
      "type": "event"
    },
    {
      "anonymous": false,
      "inputs": [
        {
          "indexed": true,
          "internalType": "address",
          "name": "previousOwner",
          "type": "address"
        },
        {
          "indexed": true,
          "internalType": "address",
          "name": "newOwner",
          "type": "address"
        }
      ],
      "name": "OwnershipTransferred",
      "type": "event"
    },
    {
      "anonymous": false,
      "inputs": [
        {
          "indexed": true,
          "internalType": "address",
          "name": "from",
          "type": "address"
        },
        {
          "indexed": true,
          "internalType": "address",
          "name": "to",
          "type": "address"
        },
        {
          "indexed": true,
          "internalType": "uint256",
          "name": "tokenId",
          "type": "uint256"
        }
      ],
      "name": "Transfer",
      "type": "event"
    },
    {
      "inputs": [
        {
          "internalType": "address",
          "name": "to",
          "type": "address"
        },
        {
          "internalType": "uint256",
          "name": "tokenId",
          "type": "uint256"
        }
      ],
      "name": "approve",
      "outputs": [],
      "stateMutability": "nonpayable",
      "type": "function"
    },
    {
      "inputs": [
        {
          "internalType": "address",
          "name": "owner",
          "type": "address"
        }
      ],
      "name": "balanceOf",
      "outputs": [
        {
          "internalType": "uint256",
          "name": "",
          "type": "uint256"
        }
      ],
      "stateMutability": "view",
      "type": "function",
      "constant": true
    },
    {
      "inputs": [
        {
          "internalType": "uint256",
          "name": "tokenId",
          "type": "uint256"
        }
      ],
      "name": "getApproved",
      "outputs": [
        {
          "internalType": "address",
          "name": "",
          "type": "address"
        }
      ],
      "stateMutability": "view",
      "type": "function",
      "constant": true
    },
    {
      "inputs": [
        {
          "internalType": "address",
          "name": "owner",
          "type": "address"
        },
        {
          "internalType": "address",
          "name": "operator",
          "type": "address"
        }
      ],
      "name": "isApprovedForAll",
      "outputs": [
        {
          "internalType": "bool",
          "name": "",
          "type": "bool"
        }
      ],
      "stateMutability": "view",
      "type": "function",
      "constant": true
    },
    {
      "inputs": [],
      "name": "name",
      "outputs": [
        {
          "internalType": "string",
          "name": "",
          "type": "string"
        }
      ],
      "stateMutability": "view",
      "type": "function",
      "constant": true
    },
    {
      "inputs": [],
      "name": "owner",
      "outputs": [
        {
          "internalType": "address",
          "name": "",
          "type": "address"
        }
      ],
      "stateMutability": "view",
      "type": "function",
      "constant": true
    },
    {
      "inputs": [
        {
          "internalType": "uint256",
          "name": "tokenId",
          "type": "uint256"
        }
      ],
      "name": "ownerOf",
      "outputs": [
        {
          "internalType": "address",
          "name": "",
          "type": "address"
        }
      ],
      "stateMutability": "view",
      "type": "function",
      "constant": true
    },
    {
      "inputs": [],
      "name": "renounceOwnership",
      "outputs": [],
      "stateMutability": "nonpayable",
      "type": "function"
    },
    {
      "inputs": [
        {
          "internalType": "address",
          "name": "from",
          "type": "address"
        },
        {
          "internalType": "address",
          "name": "to",
          "type": "address"
        },
        {
          "internalType": "uint256",
          "name": "tokenId",
          "type": "uint256"
        }
      ],
      "name": "safeTransferFrom",
      "outputs": [],
      "stateMutability": "nonpayable",
      "type": "function"
    },
    {
      "inputs": [
        {
          "internalType": "address",
          "name": "from",
          "type": "address"
        },
        {
          "internalType": "address",
          "name": "to",
          "type": "address"
        },
        {
          "internalType": "uint256",
          "name": "tokenId",
          "type": "uint256"
        },
        {
          "internalType": "bytes",
          "name": "_data",
          "type": "bytes"
        }
      ],
      "name": "safeTransferFrom",
      "outputs": [],
      "stateMutability": "nonpayable",
      "type": "function"
    },
    {
      "inputs": [
        {
          "internalType": "address",
          "name": "operator",
          "type": "address"
        },
        {
          "internalType": "bool",
          "name": "approved",
          "type": "bool"
        }
      ],
      "name": "setApprovalForAll",
      "outputs": [],
      "stateMutability": "nonpayable",
      "type": "function"
    },
    {
      "inputs": [
        {
          "internalType": "bytes4",
          "name": "interfaceId",
          "type": "bytes4"
        }
      ],
      "name": "supportsInterface",
      "outputs": [
        {
          "internalType": "bool",
          "name": "",
          "type": "bool"
        }
      ],
      "stateMutability": "view",
      "type": "function",
      "constant": true
    },
    {
      "inputs": [],
      "name": "symbol",
      "outputs": [
        {
          "internalType": "string",
          "name": "",
          "type": "string"
        }
      ],
      "stateMutability": "view",
      "type": "function",
      "constant": true
    },
    {
      "inputs": [
        {
          "internalType": "uint256",
          "name": "tokenId",
          "type": "uint256"
        }
      ],
      "name": "tokenURI",
      "outputs": [
        {
          "internalType": "string",
          "name": "",
          "type": "string"
        }
      ],
      "stateMutability": "view",
      "type": "function",
      "constant": true
    },
    {
      "inputs": [
        {
          "internalType": "address",
          "name": "from",
          "type": "address"
        },
        {
          "internalType": "address",
          "name": "to",
          "type": "address"
        },
        {
          "internalType": "uint256",
          "name": "tokenId",
          "type": "uint256"
        }
      ],
      "name": "transferFrom",
      "outputs": [],
      "stateMutability": "nonpayable",
      "type": "function"
    },
    {
      "inputs": [
        {
          "internalType": "address",
          "name": "newOwner",
          "type": "address"
        }
      ],
      "name": "transferOwnership",
      "outputs": [],
      "stateMutability": "nonpayable",
      "type": "function"
    },
    {
      "inputs": [
        {
          "internalType": "uint256",
          "name": "_fee",
          "type": "uint256"
        }
      ],
      "name": "updateFee",
      "outputs": [],
      "stateMutability": "nonpayable",
      "type": "function"
    },
    {
      "inputs": [],
      "name": "withdraw",
      "outputs": [],
      "stateMutability": "payable",
      "type": "function",
      "payable": true
    },
    {
      "inputs": [
        {
          "internalType": "address",
          "name": "_to",
          "type": "address"
        },
        {
          "internalType": "uint256",
          "name": "_tokenId",
          "type": "uint256"
        },
        {
          "internalType": "string",
          "name": "_uri",
          "type": "string"
        }
      ],
      "name": "mintToken",
      "outputs": [],
      "stateMutability": "nonpayable",
      "type": "function"
    },
    {
      "inputs": [
        {
          "internalType": "address",
          "name": "receiver",
          "type": "address"
        },
        {
          "internalType": "uint256",
          "name": "amount",
          "type": "uint256"
        }
      ],
      "name": "sendCoin",
      "outputs": [
        {
          "internalType": "bool",
          "name": "success",
          "type": "bool"
        }
      ],
      "stateMutability": "nonpayable",
      "type": "function"
    },
    {
      "inputs": [
        {
          "internalType": "uint8",
          "name": "damage",
          "type": "uint8"
        },
        {
          "internalType": "uint8",
          "name": "magic",
          "type": "uint8"
        },
        {
          "internalType": "uint256",
          "name": "endurance",
          "type": "uint256"
        }
      ],
      "name": "mint",
      "outputs": [],
      "stateMutability": "payable",
      "type": "function",
      "payable": true
    },
    {
      "inputs": [
        {
          "internalType": "uint256",
          "name": "tokenId",
          "type": "uint256"
        }
      ],
      "name": "feed",
      "outputs": [],
      "stateMutability": "nonpayable",
      "type": "function"
    },
    {
      "inputs": [
        {
          "internalType": "uint256",
          "name": "tokenId",
          "type": "uint256"
        }
      ],
      "name": "attack",
      "outputs": [],
      "stateMutability": "payable",
      "type": "function",
      "payable": true
    },
    {
      "inputs": [
        {
          "internalType": "uint256",
          "name": "tokenId",
          "type": "uint256"
        }
      ],
      "name": "getTokenDetails",
      "outputs": [
        {
          "components": [
            {
              "internalType": "uint8",
              "name": "damage",
              "type": "uint8"
            },
            {
              "internalType": "uint8",
              "name": "magic",
              "type": "uint8"
            },
            {
              "internalType": "uint256",
              "name": "lastMeal",
              "type": "uint256"
            },
            {
              "internalType": "uint256",
              "name": "endurance",
              "type": "uint256"
            },
            {
              "internalType": "uint8",
              "name": "rare",
              "type": "uint8"
            },
            {
              "internalType": "uint8",
              "name": "legs",
              "type": "uint8"
            },
            {
              "internalType": "uint8",
              "name": "wing",
              "type": "uint8"
            },
            {
              "internalType": "uint8",
              "name": "tail",
              "type": "uint8"
            }
          ],
          "internalType": "struct Token.Pet",
          "name": "",
          "type": "tuple"
        }
      ],
      "stateMutability": "view",
      "type": "function",
      "constant": true
    },
    {
      "inputs": [
        {
          "internalType": "address",
          "name": "user",
          "type": "address"
        }
      ],
      "name": "getAllTokensForUser",
      "outputs": [
        {
          "internalType": "uint256[]",
          "name": "",
          "type": "uint256[]"
        }
      ],
      "stateMutability": "view",
      "type": "function",
      "constant": true
    }
  ],
  "bytecode": "0x608060405260006007556000600860006101000a81548160ff021916908360ff16021790555066071afd498d00006009556032600a55730176c767110458db7eee8df1f234bbcfaefb5900600c60006101000a81548173ffffffffffffffffffffffffffffffffffffffff021916908373ffffffffffffffffffffffffffffffffffffffff1602179055503480156200009757600080fd5b50604051620040b0380380620040b08339818101604052810190620000bd91906200030b565b81818160009080519060200190620000d7929190620001e9565b508060019080519060200190620000f0929190620001e9565b50505062000113620001076200011b60201b60201c565b6200012360201b60201c565b5050620004af565b600033905090565b6000600660009054906101000a900473ffffffffffffffffffffffffffffffffffffffff16905081600660006101000a81548173ffffffffffffffffffffffffffffffffffffffff021916908373ffffffffffffffffffffffffffffffffffffffff1602179055508173ffffffffffffffffffffffffffffffffffffffff168173ffffffffffffffffffffffffffffffffffffffff167f8be0079c531659141344cd1fd0a4f28419497f9722a3daafe3b4186f6b6457e060405160405180910390a35050565b828054620001f7906200041b565b90600052602060002090601f0160209004810192826200021b576000855562000267565b82601f106200023657805160ff191683800117855562000267565b8280016001018555821562000267579182015b828111156200026657825182559160200191906001019062000249565b5b5090506200027691906200027a565b5090565b5b80821115620002955760008160009055506001016200027b565b5090565b6000620002b0620002aa84620003b2565b6200037e565b905082815260208101848484011115620002c957600080fd5b620002d6848285620003e5565b509392505050565b600082601f830112620002f057600080fd5b81516200030284826020860162000299565b91505092915050565b600080604083850312156200031f57600080fd5b600083015167ffffffffffffffff8111156200033a57600080fd5b6200034885828601620002de565b925050602083015167ffffffffffffffff8111156200036657600080fd5b6200037485828601620002de565b9150509250929050565b6000604051905081810181811067ffffffffffffffff82111715620003a857620003a762000480565b5b8060405250919050565b600067ffffffffffffffff821115620003d057620003cf62000480565b5b601f19601f8301169050602081019050919050565b60005b8381101562000405578082015181840152602081019050620003e8565b8381111562000415576000848401525b50505050565b600060028204905060018216806200043457607f821691505b602082108114156200044b576200044a62000451565b5b50919050565b7f4e487b7100000000000000000000000000000000000000000000000000000000600052602260045260246000fd5b7f4e487b7100000000000000000000000000000000000000000000000000000000600052604160045260246000fd5b613bf180620004bf6000396000f3fe6080604052600436106101665760003560e01c80638da5cb5b116100d1578063c1e037281161008a578063eb22ed3211610064578063eb22ed3214610544578063f2fde38b14610560578063f59dfdfb14610589578063f76e8ba9146105b257610166565b8063c1e037281461048d578063c87b56dd146104ca578063e985e9c51461050757610166565b80638da5cb5b1461037f5780639012c4a8146103aa57806390b98a11146103d357806395d89b4114610410578063a22cb4651461043b578063b88d4fde1461046457610166565b806342842e0e1161012357806342842e0e1461026c5780636352211e1461029557806364dd891a146102d257806370a08231146102ee578063715018a61461032b57806382de8fe91461034257610166565b806301ffc9a71461016b57806306fdde03146101a8578063081812fc146101d3578063095ea7b31461021057806323b872dd146102395780633ccfd60b14610262575b600080fd5b34801561017757600080fd5b50610192600480360381019061018d9190612a06565b6105db565b60405161019f91906133ee565b60405180910390f35b3480156101b457600080fd5b506101bd6106bd565b6040516101ca9190613409565b60405180910390f35b3480156101df57600080fd5b506101fa60048036038101906101f59190612a58565b61074f565b604051610207919061333c565b60405180910390f35b34801561021c57600080fd5b506102376004803603810190610232919061295e565b6107d4565b005b34801561024557600080fd5b50610260600480360381019061025b9190612858565b6108ec565b005b61026a61094c565b005b34801561027857600080fd5b50610293600480360381019061028e9190612858565b610a1e565b005b3480156102a157600080fd5b506102bc60048036038101906102b79190612a58565b610a3e565b6040516102c9919061333c565b60405180910390f35b6102ec60048036038101906102e79190612a58565b610af0565b005b3480156102fa57600080fd5b50610315600480360381019061031091906127f3565b610c5b565b6040516103229190613647565b60405180910390f35b34801561033757600080fd5b50610340610d13565b005b34801561034e57600080fd5b50610369600480360381019061036491906127f3565b610d9b565b60405161037691906133cc565b60405180910390f35b34801561038b57600080fd5b50610394610f63565b6040516103a1919061333c565b60405180910390f35b3480156103b657600080fd5b506103d160048036038101906103cc9190612a58565b610f8d565b005b3480156103df57600080fd5b506103fa60048036038101906103f5919061295e565b611013565b60405161040791906133ee565b60405180910390f35b34801561041c57600080fd5b50610425611177565b6040516104329190613409565b60405180910390f35b34801561044757600080fd5b50610462600480360381019061045d9190612922565b611209565b005b34801561047057600080fd5b5061048b600480360381019061048691906128a7565b61138a565b005b34801561049957600080fd5b506104b460048036038101906104af9190612a58565b6113ec565b6040516104c1919061362b565b60405180910390f35b3480156104d657600080fd5b506104f160048036038101906104ec9190612a58565b6114dc565b6040516104fe9190613409565b60405180910390f35b34801561051357600080fd5b5061052e6004803603810190610529919061281c565b611583565b60405161053b91906133ee565b60405180910390f35b61055e60048036038101906105599190612a81565b611617565b005b34801561056c57600080fd5b50610587600480360381019061058291906127f3565b611861565b005b34801561059557600080fd5b506105b060048036038101906105ab9190612a58565b611959565b005b3480156105be57600080fd5b506105d960048036038101906105d4919061299a565b61199c565b005b60007f80ac58cd000000000000000000000000000000000000000000000000000000007bffffffffffffffffffffffffffffffffffffffffffffffffffffffff1916827bffffffffffffffffffffffffffffffffffffffffffffffffffffffff191614806106a657507f5b5e139f000000000000000000000000000000000000000000000000000000007bffffffffffffffffffffffffffffffffffffffffffffffffffffffff1916827bffffffffffffffffffffffffffffffffffffffffffffffffffffffff1916145b806106b657506106b582611a28565b5b9050919050565b6060600080546106cc90613994565b80601f01602080910402602001604051908101604052809291908181526020018280546106f890613994565b80156107455780601f1061071a57610100808354040283529160200191610745565b820191906000526020600020905b81548152906001019060200180831161072857829003601f168201915b5050505050905090565b600061075a82611a92565b610799576040517f08c379a00000000000000000000000000000000000000000000000000000000081526004016107909061356b565b60405180910390fd5b6004600083815260200190815260200160002060009054906101000a900473ffffffffffffffffffffffffffffffffffffffff169050919050565b60006107df82610a3e565b90508073ffffffffffffffffffffffffffffffffffffffff168373ffffffffffffffffffffffffffffffffffffffff161415610850576040517f08c379a0000000000000000000000000000000000000000000000000000000008152600401610847906135eb565b60405180910390fd5b8073ffffffffffffffffffffffffffffffffffffffff1661086f611afe565b73ffffffffffffffffffffffffffffffffffffffff16148061089e575061089d81610898611afe565b611583565b5b6108dd576040517f08c379a00000000000000000000000000000000000000000000000000000000081526004016108d4906134eb565b60405180910390fd5b6108e78383611b06565b505050565b6108fd6108f7611afe565b82611bbf565b61093c576040517f08c379a00000000000000000000000000000000000000000000000000000000081526004016109339061360b565b60405180910390fd5b610947838383611c9d565b505050565b610954611afe565b73ffffffffffffffffffffffffffffffffffffffff16610972610f63565b73ffffffffffffffffffffffffffffffffffffffff16146109c8576040517f08c379a00000000000000000000000000000000000000000000000000000000081526004016109bf9061358b565b60405180910390fd5b60006109d2610f63565b90508073ffffffffffffffffffffffffffffffffffffffff166108fc479081150290604051600060405180830381858888f19350505050158015610a1a573d6000803e3d6000fd5b5050565b610a398383836040518060200160405280600081525061138a565b505050565b6000806002600084815260200190815260200160002060009054906101000a900473ffffffffffffffffffffffffffffffffffffffff169050600073ffffffffffffffffffffffffffffffffffffffff168173ffffffffffffffffffffffffffffffffffffffff161415610ae7576040517f08c379a0000000000000000000000000000000000000000000000000000000008152600401610ade9061352b565b60405180910390fd5b80915050919050565b600954341415610aff57600080fd5b6000600b600083815260200190815260200160002090504281600201548260010154610b2b919061373f565b11610b3557600080fd5b6000610b416064611ef9565b9050600a548111610c1b57600a8260000160009054906101000a900460ff16610b6a9190613795565b8260000160006101000a81548160ff021916908360ff160217905550600c60009054906101000a900473ffffffffffffffffffffffffffffffffffffffff1673ffffffffffffffffffffffffffffffffffffffff16639c02a8dd3360636040518363ffffffff1660e01b8152600401610be49291906133a3565b600060405180830381600087803b158015610bfe57600080fd5b505af1158015610c12573d6000803e3d6000fd5b50505050610c56565b60148260000160009054906101000a900460ff16610c39919061388b565b8260000160006101000a81548160ff021916908360ff1602179055505b505050565b60008073ffffffffffffffffffffffffffffffffffffffff168273ffffffffffffffffffffffffffffffffffffffff161415610ccc576040517f08c379a0000000000000000000000000000000000000000000000000000000008152600401610cc39061350b565b60405180910390fd5b600360008373ffffffffffffffffffffffffffffffffffffffff1673ffffffffffffffffffffffffffffffffffffffff168152602001908152602001600020549050919050565b610d1b611afe565b73ffffffffffffffffffffffffffffffffffffffff16610d39610f63565b73ffffffffffffffffffffffffffffffffffffffff1614610d8f576040517f08c379a0000000000000000000000000000000000000000000000000000000008152600401610d869061358b565b60405180910390fd5b610d996000611f57565b565b60606000610da883610c5b565b90506000811415610e2b57600067ffffffffffffffff811115610df4577f4e487b7100000000000000000000000000000000000000000000000000000000600052604160045260246000fd5b604051908082528060200260200182016040528015610e225781602001602082028036833780820191505090505b50915050610f5e565b60008167ffffffffffffffff811115610e6d577f4e487b7100000000000000000000000000000000000000000000000000000000600052604160045260246000fd5b604051908082528060200260200182016040528015610e9b5781602001602082028036833780820191505090505b509050600060075490506000805b82811015610f55578673ffffffffffffffffffffffffffffffffffffffff16610ed182610a3e565b73ffffffffffffffffffffffffffffffffffffffff161415610f425780848381518110610f27577f4e487b7100000000000000000000000000000000000000000000000000000000600052603260045260246000fd5b6020026020010181815250508180610f3e906139c6565b9250505b8080610f4d906139c6565b915050610ea9565b83955050505050505b919050565b6000600660009054906101000a900473ffffffffffffffffffffffffffffffffffffffff16905090565b610f95611afe565b73ffffffffffffffffffffffffffffffffffffffff16610fb3610f63565b73ffffffffffffffffffffffffffffffffffffffff1614611009576040517f08c379a00000000000000000000000000000000000000000000000000000000081526004016110009061358b565b60405180910390fd5b8060098190555050565b600081600d60003373ffffffffffffffffffffffffffffffffffffffff1673ffffffffffffffffffffffffffffffffffffffff1681526020019081526020016000205410156110655760009050611171565b81600d60003373ffffffffffffffffffffffffffffffffffffffff1673ffffffffffffffffffffffffffffffffffffffff16815260200190815260200160002060008282546110b49190613857565b9250508190555081600d60008573ffffffffffffffffffffffffffffffffffffffff1673ffffffffffffffffffffffffffffffffffffffff168152602001908152602001600020600082825461110a919061373f565b92505081905550818373ffffffffffffffffffffffffffffffffffffffff163373ffffffffffffffffffffffffffffffffffffffff167fddf252ad1be2c89b69c2b068fc378daa952ba7f163c4a11628f55a4df523b3ef60405160405180910390a4600190505b92915050565b60606001805461118690613994565b80601f01602080910402602001604051908101604052809291908181526020018280546111b290613994565b80156111ff5780601f106111d4576101008083540402835291602001916111ff565b820191906000526020600020905b8154815290600101906020018083116111e257829003601f168201915b5050505050905090565b611211611afe565b73ffffffffffffffffffffffffffffffffffffffff168273ffffffffffffffffffffffffffffffffffffffff16141561127f576040517f08c379a0000000000000000000000000000000000000000000000000000000008152600401611276906134ab565b60405180910390fd5b806005600061128c611afe565b73ffffffffffffffffffffffffffffffffffffffff1673ffffffffffffffffffffffffffffffffffffffff16815260200190815260200160002060008473ffffffffffffffffffffffffffffffffffffffff1673ffffffffffffffffffffffffffffffffffffffff16815260200190815260200160002060006101000a81548160ff0219169083151502179055508173ffffffffffffffffffffffffffffffffffffffff16611339611afe565b73ffffffffffffffffffffffffffffffffffffffff167f17307eab39ab6107e8899845ad3d59bd9653f200f220920489ca2b5937696c318360405161137e91906133ee565b60405180910390a35050565b61139b611395611afe565b83611bbf565b6113da576040517f08c379a00000000000000000000000000000000000000000000000000000000081526004016113d19061360b565b60405180910390fd5b6113e68484848461201d565b50505050565b6113f461266c565b600b6000838152602001908152602001600020604051806101000160405290816000820160009054906101000a900460ff1660ff1660ff1681526020016000820160019054906101000a900460ff1660ff1660ff16815260200160018201548152602001600282015481526020016003820160009054906101000a900460ff1660ff1660ff1681526020016003820160019054906101000a900460ff1660ff1660ff1681526020016003820160029054906101000a900460ff1660ff1660ff1681526020016003820160039054906101000a900460ff1660ff1660ff16815250509050919050565b60606114e782611a92565b611526576040517f08c379a000000000000000000000000000000000000000000000000000000000815260040161151d906135cb565b60405180910390fd5b6000611530612079565b90506000815111611550576040518060200160405280600081525061157b565b8061155a84612090565b60405160200161156b9291906132db565b6040516020818303038152906040525b915050919050565b6000600560008473ffffffffffffffffffffffffffffffffffffffff1673ffffffffffffffffffffffffffffffffffffffff16815260200190815260200160002060008373ffffffffffffffffffffffffffffffffffffffff1673ffffffffffffffffffffffffffffffffffffffff16815260200190815260200160002060009054906101000a900460ff16905092915050565b60095434141561162657600080fd5b60006116326064611ef9565b90506000603282101561164857600190506116a1565b6032821180156116585750605082105b1561166657600290506116a0565b6050821180156116765750605f82105b15611684576003905061169f565b605f821180156116945750606482105b1561169e57600490505b5b5b5b6116ab6050611ef9565b9150600060328310156116bd57600190505b6116c76046611ef9565b9250600060328410156116d957600190505b6116e3603c611ef9565b9350600060328510156116f557600190505b6040518061010001604052808960ff1681526020018860ff1681526020014281526020018781526020018560ff1681526020018460ff1681526020018360ff1681526020018260ff16815250600b6000600754815260200190815260200160002060008201518160000160006101000a81548160ff021916908360ff16021790555060208201518160000160016101000a81548160ff021916908360ff160217905550604082015181600101556060820151816002015560808201518160030160006101000a81548160ff021916908360ff16021790555060a08201518160030160016101000a81548160ff021916908360ff16021790555060c08201518160030160026101000a81548160ff021916908360ff16021790555060e08201518160030160036101000a81548160ff021916908360ff16021790555090505061183f3360075461223d565b60076000815480929190611852906139c6565b91905055505050505050505050565b611869611afe565b73ffffffffffffffffffffffffffffffffffffffff16611887610f63565b73ffffffffffffffffffffffffffffffffffffffff16146118dd576040517f08c379a00000000000000000000000000000000000000000000000000000000081526004016118d49061358b565b60405180910390fd5b600073ffffffffffffffffffffffffffffffffffffffff168173ffffffffffffffffffffffffffffffffffffffff16141561194d576040517f08c379a00000000000000000000000000000000000000000000000000000000081526004016119449061344b565b60405180910390fd5b61195681611f57565b50565b6000600b600083815260200190815260200160002090504281600201548260010154611985919061373f565b1161198f57600080fd5b4281600101819055505050565b6119a4611afe565b73ffffffffffffffffffffffffffffffffffffffff166119c2610f63565b73ffffffffffffffffffffffffffffffffffffffff1614611a18576040517f08c379a0000000000000000000000000000000000000000000000000000000008152600401611a0f9061358b565b60405180910390fd5b611a22848461223d565b50505050565b60007f01ffc9a7000000000000000000000000000000000000000000000000000000007bffffffffffffffffffffffffffffffffffffffffffffffffffffffff1916827bffffffffffffffffffffffffffffffffffffffffffffffffffffffff1916149050919050565b60008073ffffffffffffffffffffffffffffffffffffffff166002600084815260200190815260200160002060009054906101000a900473ffffffffffffffffffffffffffffffffffffffff1673ffffffffffffffffffffffffffffffffffffffff1614159050919050565b600033905090565b816004600083815260200190815260200160002060006101000a81548173ffffffffffffffffffffffffffffffffffffffff021916908373ffffffffffffffffffffffffffffffffffffffff160217905550808273ffffffffffffffffffffffffffffffffffffffff16611b7983610a3e565b73ffffffffffffffffffffffffffffffffffffffff167f8c5be1e5ebec7d5bd14f71427d1e84f3dd0314c0f7b2291e5b200ac8c7c3b92560405160405180910390a45050565b6000611bca82611a92565b611c09576040517f08c379a0000000000000000000000000000000000000000000000000000000008152600401611c00906134cb565b60405180910390fd5b6000611c1483610a3e565b90508073ffffffffffffffffffffffffffffffffffffffff168473ffffffffffffffffffffffffffffffffffffffff161480611c8357508373ffffffffffffffffffffffffffffffffffffffff16611c6b8461074f565b73ffffffffffffffffffffffffffffffffffffffff16145b80611c945750611c938185611583565b5b91505092915050565b8273ffffffffffffffffffffffffffffffffffffffff16611cbd82610a3e565b73ffffffffffffffffffffffffffffffffffffffff1614611d13576040517f08c379a0000000000000000000000000000000000000000000000000000000008152600401611d0a906135ab565b60405180910390fd5b600073ffffffffffffffffffffffffffffffffffffffff168273ffffffffffffffffffffffffffffffffffffffff161415611d83576040517f08c379a0000000000000000000000000000000000000000000000000000000008152600401611d7a9061348b565b60405180910390fd5b611d8e83838361225b565b611d99600082611b06565b6001600360008573ffffffffffffffffffffffffffffffffffffffff1673ffffffffffffffffffffffffffffffffffffffff1681526020019081526020016000206000828254611de99190613857565b925050819055506001600360008473ffffffffffffffffffffffffffffffffffffffff1673ffffffffffffffffffffffffffffffffffffffff1681526020019081526020016000206000828254611e40919061373f565b92505081905550816002600083815260200190815260200160002060006101000a81548173ffffffffffffffffffffffffffffffffffffffff021916908373ffffffffffffffffffffffffffffffffffffffff160217905550808273ffffffffffffffffffffffffffffffffffffffff168473ffffffffffffffffffffffffffffffffffffffff167fddf252ad1be2c89b69c2b068fc378daa952ba7f163c4a11628f55a4df523b3ef60405160405180910390a4505050565b6000806049600754611f0b91906137fd565b905060008360ff16423384604051602001611f28939291906132ff565b6040516020818303038152906040528051906020012060001c611f4b9190613a3d565b90508092505050919050565b6000600660009054906101000a900473ffffffffffffffffffffffffffffffffffffffff16905081600660006101000a81548173ffffffffffffffffffffffffffffffffffffffff021916908373ffffffffffffffffffffffffffffffffffffffff1602179055508173ffffffffffffffffffffffffffffffffffffffff168173ffffffffffffffffffffffffffffffffffffffff167f8be0079c531659141344cd1fd0a4f28419497f9722a3daafe3b4186f6b6457e060405160405180910390a35050565b612028848484611c9d565b61203484848484612299565b612073576040517f08c379a000000000000000000000000000000000000000000000000000000000815260040161206a9061342b565b60405180910390fd5b50505050565b606060405180602001604052806000815250905090565b606060008214156120d8576040518060400160405280600181526020017f30000000000000000000000000000000000000000000000000000000000000008152509050612238565b600082905060005b6000821461210a5780806120f3906139c6565b915050600a8261210391906137cc565b91506120e0565b60008167ffffffffffffffff81111561214c577f4e487b7100000000000000000000000000000000000000000000000000000000600052604160045260246000fd5b6040519080825280601f01601f19166020018201604052801561217e5781602001600182028036833780820191505090505b5090505b60008514612231576001826121979190613857565b9150600a856121a69190613a3d565b60306121b2919061373f565b60f81b8183815181106121ee577f4e487b7100000000000000000000000000000000000000000000000000000000600052603260045260246000fd5b60200101907effffffffffffffffffffffffffffffffffffffffffffffffffffffffffffff1916908160001a905350600a8561222a91906137cc565b9450612182565b8093505050505b919050565b612257828260405180602001604052806000815250612430565b5050565b6000600b6000600754815260200190815260200160002090504281600201548260010154612289919061373f565b1161229357600080fd5b50505050565b60006122ba8473ffffffffffffffffffffffffffffffffffffffff1661248b565b15612423578373ffffffffffffffffffffffffffffffffffffffff1663150b7a026122e3611afe565b8786866040518563ffffffff1660e01b81526004016123059493929190613357565b602060405180830381600087803b15801561231f57600080fd5b505af192505050801561235057506040513d601f19601f8201168201806040525081019061234d9190612a2f565b60015b6123d3573d8060008114612380576040519150601f19603f3d011682016040523d82523d6000602084013e612385565b606091505b506000815114156123cb576040517f08c379a00000000000000000000000000000000000000000000000000000000081526004016123c29061342b565b60405180910390fd5b805181602001fd5b63150b7a0260e01b7bffffffffffffffffffffffffffffffffffffffffffffffffffffffff1916817bffffffffffffffffffffffffffffffffffffffffffffffffffffffff191614915050612428565b600190505b949350505050565b61243a838361249e565b6124476000848484612299565b612486576040517f08c379a000000000000000000000000000000000000000000000000000000000815260040161247d9061342b565b60405180910390fd5b505050565b600080823b905060008111915050919050565b600073ffffffffffffffffffffffffffffffffffffffff168273ffffffffffffffffffffffffffffffffffffffff16141561250e576040517f08c379a00000000000000000000000000000000000000000000000000000000081526004016125059061354b565b60405180910390fd5b61251781611a92565b15612557576040517f08c379a000000000000000000000000000000000000000000000000000000000815260040161254e9061346b565b60405180910390fd5b6125636000838361225b565b6001600360008473ffffffffffffffffffffffffffffffffffffffff1673ffffffffffffffffffffffffffffffffffffffff16815260200190815260200160002060008282546125b3919061373f565b92505081905550816002600083815260200190815260200160002060006101000a81548173ffffffffffffffffffffffffffffffffffffffff021916908373ffffffffffffffffffffffffffffffffffffffff160217905550808273ffffffffffffffffffffffffffffffffffffffff16600073ffffffffffffffffffffffffffffffffffffffff167fddf252ad1be2c89b69c2b068fc378daa952ba7f163c4a11628f55a4df523b3ef60405160405180910390a45050565b604051806101000160405280600060ff168152602001600060ff1681526020016000815260200160008152602001600060ff168152602001600060ff168152602001600060ff168152602001600060ff1681525090565b60006126d66126d184613693565b613662565b9050828152602081018484840111156126ee57600080fd5b6126f9848285613952565b509392505050565b60008135905061271081613b48565b92915050565b60008135905061272581613b5f565b92915050565b60008135905061273a81613b76565b92915050565b60008151905061274f81613b76565b92915050565b600082601f83011261276657600080fd5b81356127768482602086016126c3565b91505092915050565b60008083601f84011261279157600080fd5b8235905067ffffffffffffffff8111156127aa57600080fd5b6020830191508360018202830111156127c257600080fd5b9250929050565b6000813590506127d881613b8d565b92915050565b6000813590506127ed81613ba4565b92915050565b60006020828403121561280557600080fd5b600061281384828501612701565b91505092915050565b6000806040838503121561282f57600080fd5b600061283d85828601612701565b925050602061284e85828601612701565b9150509250929050565b60008060006060848603121561286d57600080fd5b600061287b86828701612701565b935050602061288c86828701612701565b925050604061289d868287016127c9565b9150509250925092565b600080600080608085870312156128bd57600080fd5b60006128cb87828801612701565b94505060206128dc87828801612701565b93505060406128ed878288016127c9565b925050606085013567ffffffffffffffff81111561290a57600080fd5b61291687828801612755565b91505092959194509250565b6000806040838503121561293557600080fd5b600061294385828601612701565b925050602061295485828601612716565b9150509250929050565b6000806040838503121561297157600080fd5b600061297f85828601612701565b9250506020612990858286016127c9565b9150509250929050565b600080600080606085870312156129b057600080fd5b60006129be87828801612701565b94505060206129cf878288016127c9565b935050604085013567ffffffffffffffff8111156129ec57600080fd5b6129f88782880161277f565b925092505092959194509250565b600060208284031215612a1857600080fd5b6000612a268482850161272b565b91505092915050565b600060208284031215612a4157600080fd5b6000612a4f84828501612740565b91505092915050565b600060208284031215612a6a57600080fd5b6000612a78848285016127c9565b91505092915050565b600080600060608486031215612a9657600080fd5b6000612aa4868287016127de565b9350506020612ab5868287016127de565b9250506040612ac6868287016127c9565b9150509250925092565b6000612adc8383613297565b60208301905092915050565b612af1816138bf565b82525050565b612b08612b03826138bf565b613a0f565b82525050565b6000612b19826136d3565b612b238185613701565b9350612b2e836136c3565b8060005b83811015612b5f578151612b468882612ad0565b9750612b51836136f4565b925050600181019050612b32565b5085935050505092915050565b612b75816138d1565b82525050565b6000612b86826136de565b612b908185613712565b9350612ba0818560208601613961565b612ba981613b2a565b840191505092915050565b612bbd81613940565b82525050565b6000612bce826136e9565b612bd88185613723565b9350612be8818560208601613961565b612bf181613b2a565b840191505092915050565b6000612c07826136e9565b612c118185613734565b9350612c21818560208601613961565b80840191505092915050565b6000612c3a603283613723565b91507f4552433732313a207472616e7366657220746f206e6f6e20455243373231526560008301527f63656976657220696d706c656d656e74657200000000000000000000000000006020830152604082019050919050565b6000612ca0602683613723565b91507f4f776e61626c653a206e6577206f776e657220697320746865207a65726f206160008301527f64647265737300000000000000000000000000000000000000000000000000006020830152604082019050919050565b6000612d06601c83613723565b91507f4552433732313a20746f6b656e20616c7265616479206d696e746564000000006000830152602082019050919050565b6000612d46602483613723565b91507f4552433732313a207472616e7366657220746f20746865207a65726f2061646460008301527f72657373000000000000000000000000000000000000000000000000000000006020830152604082019050919050565b6000612dac601983613723565b91507f4552433732313a20617070726f766520746f2063616c6c6572000000000000006000830152602082019050919050565b6000612dec602c83613723565b91507f4552433732313a206f70657261746f7220717565727920666f72206e6f6e657860008301527f697374656e7420746f6b656e00000000000000000000000000000000000000006020830152604082019050919050565b6000612e52603883613723565b91507f4552433732313a20617070726f76652063616c6c6572206973206e6f74206f7760008301527f6e6572206e6f7220617070726f76656420666f7220616c6c00000000000000006020830152604082019050919050565b6000612eb8602a83613723565b91507f4552433732313a2062616c616e636520717565727920666f7220746865207a6560008301527f726f2061646472657373000000000000000000000000000000000000000000006020830152604082019050919050565b6000612f1e602983613723565b91507f4552433732313a206f776e657220717565727920666f72206e6f6e657869737460008301527f656e7420746f6b656e00000000000000000000000000000000000000000000006020830152604082019050919050565b6000612f84602083613723565b91507f4552433732313a206d696e7420746f20746865207a65726f20616464726573736000830152602082019050919050565b6000612fc4602c83613723565b91507f4552433732313a20617070726f76656420717565727920666f72206e6f6e657860008301527f697374656e7420746f6b656e00000000000000000000000000000000000000006020830152604082019050919050565b600061302a602083613723565b91507f4f776e61626c653a2063616c6c6572206973206e6f7420746865206f776e65726000830152602082019050919050565b600061306a602983613723565b91507f4552433732313a207472616e73666572206f6620746f6b656e2074686174206960008301527f73206e6f74206f776e00000000000000000000000000000000000000000000006020830152604082019050919050565b60006130d0602f83613723565b91507f4552433732314d657461646174613a2055524920717565727920666f72206e6f60008301527f6e6578697374656e7420746f6b656e00000000000000000000000000000000006020830152604082019050919050565b6000613136602183613723565b91507f4552433732313a20617070726f76616c20746f2063757272656e74206f776e6560008301527f72000000000000000000000000000000000000000000000000000000000000006020830152604082019050919050565b600061319c603183613723565b91507f4552433732313a207472616e736665722063616c6c6572206973206e6f74206f60008301527f776e6572206e6f7220617070726f7665640000000000000000000000000000006020830152604082019050919050565b6101008201600082015161320c60008501826132cc565b50602082015161321f60208501826132cc565b5060408201516132326040850182613297565b5060608201516132456060850182613297565b50608082015161325860808501826132cc565b5060a082015161326b60a08501826132cc565b5060c082015161327e60c08501826132cc565b5060e082015161329160e08501826132cc565b50505050565b6132a081613929565b82525050565b6132af81613929565b82525050565b6132c66132c182613929565b613a33565b82525050565b6132d581613933565b82525050565b60006132e78285612bfc565b91506132f38284612bfc565b91508190509392505050565b600061330b82866132b5565b60208201915061331b8285612af7565b60148201915061332b82846132b5565b602082019150819050949350505050565b60006020820190506133516000830184612ae8565b92915050565b600060808201905061336c6000830187612ae8565b6133796020830186612ae8565b61338660408301856132a6565b81810360608301526133988184612b7b565b905095945050505050565b60006040820190506133b86000830185612ae8565b6133c56020830184612bb4565b9392505050565b600060208201905081810360008301526133e68184612b0e565b905092915050565b60006020820190506134036000830184612b6c565b92915050565b600060208201905081810360008301526134238184612bc3565b905092915050565b6000602082019050818103600083015261344481612c2d565b9050919050565b6000602082019050818103600083015261346481612c93565b9050919050565b6000602082019050818103600083015261348481612cf9565b9050919050565b600060208201905081810360008301526134a481612d39565b9050919050565b600060208201905081810360008301526134c481612d9f565b9050919050565b600060208201905081810360008301526134e481612ddf565b9050919050565b6000602082019050818103600083015261350481612e45565b9050919050565b6000602082019050818103600083015261352481612eab565b9050919050565b6000602082019050818103600083015261354481612f11565b9050919050565b6000602082019050818103600083015261356481612f77565b9050919050565b6000602082019050818103600083015261358481612fb7565b9050919050565b600060208201905081810360008301526135a48161301d565b9050919050565b600060208201905081810360008301526135c48161305d565b9050919050565b600060208201905081810360008301526135e4816130c3565b9050919050565b6000602082019050818103600083015261360481613129565b9050919050565b600060208201905081810360008301526136248161318f565b9050919050565b60006101008201905061364160008301846131f5565b92915050565b600060208201905061365c60008301846132a6565b92915050565b6000604051905081810181811067ffffffffffffffff8211171561368957613688613afb565b5b8060405250919050565b600067ffffffffffffffff8211156136ae576136ad613afb565b5b601f19601f8301169050602081019050919050565b6000819050602082019050919050565b600081519050919050565b600081519050919050565b600081519050919050565b6000602082019050919050565b600082825260208201905092915050565b600082825260208201905092915050565b600082825260208201905092915050565b600081905092915050565b600061374a82613929565b915061375583613929565b9250827fffffffffffffffffffffffffffffffffffffffffffffffffffffffffffffffff0382111561378a57613789613a6e565b5b828201905092915050565b60006137a082613933565b91506137ab83613933565b92508260ff038211156137c1576137c0613a6e565b5b828201905092915050565b60006137d782613929565b91506137e283613929565b9250826137f2576137f1613a9d565b5b828204905092915050565b600061380882613929565b915061381383613929565b9250817fffffffffffffffffffffffffffffffffffffffffffffffffffffffffffffffff048311821515161561384c5761384b613a6e565b5b828202905092915050565b600061386282613929565b915061386d83613929565b9250828210156138805761387f613a6e565b5b828203905092915050565b600061389682613933565b91506138a183613933565b9250828210156138b4576138b3613a6e565b5b828203905092915050565b60006138ca82613909565b9050919050565b60008115159050919050565b60007fffffffff0000000000000000000000000000000000000000000000000000000082169050919050565b600073ffffffffffffffffffffffffffffffffffffffff82169050919050565b6000819050919050565b600060ff82169050919050565b600061394b82613929565b9050919050565b82818337600083830152505050565b60005b8381101561397f578082015181840152602081019050613964565b8381111561398e576000848401525b50505050565b600060028204905060018216806139ac57607f821691505b602082108114156139c0576139bf613acc565b5b50919050565b60006139d182613929565b91507fffffffffffffffffffffffffffffffffffffffffffffffffffffffffffffffff821415613a0457613a03613a6e565b5b600182019050919050565b6000613a1a82613a21565b9050919050565b6000613a2c82613b3b565b9050919050565b6000819050919050565b6000613a4882613929565b9150613a5383613929565b925082613a6357613a62613a9d565b5b828206905092915050565b7f4e487b7100000000000000000000000000000000000000000000000000000000600052601160045260246000fd5b7f4e487b7100000000000000000000000000000000000000000000000000000000600052601260045260246000fd5b7f4e487b7100000000000000000000000000000000000000000000000000000000600052602260045260246000fd5b7f4e487b7100000000000000000000000000000000000000000000000000000000600052604160045260246000fd5b6000601f19601f8301169050919050565b60008160601b9050919050565b613b51816138bf565b8114613b5c57600080fd5b50565b613b68816138d1565b8114613b7357600080fd5b50565b613b7f816138dd565b8114613b8a57600080fd5b50565b613b9681613929565b8114613ba157600080fd5b50565b613bad81613933565b8114613bb857600080fd5b5056fea2646970667358221220270228d4337b3708e8e71f1e4117570dc248b7c49906ffbc443f7289003fe3de64736f6c63430008000033",
  "immutableReferences": {},
  "source": "pragma solidity 0.8.0;\r\nimport \"../node_modules/@openzeppelin/contracts/token/ERC721/ERC721.sol\";\r\nimport \"../node_modules/@openzeppelin/contracts/access/Ownable.sol\";\r\n\r\n\r\ninterface MyCoin {\r\nfunction mintTLP(address to,uint256 amount) external;\r\n}\r\n\r\n\r\ncontract Token is ERC721, Ownable {\r\n\r\n\r\n    struct Pet{\r\n        uint8 damage;\r\n        uint8 magic;\r\n        uint256 lastMeal;\r\n        uint256 endurance;\r\n        uint8 rare;\r\n        uint8 legs;\r\n        uint8 wing;\r\n        uint8 tail;\r\n    }\r\n\r\n    uint256 nextId = 0;\r\n    uint8 randNonce = 0;\r\n\r\n    uint256 fee = 0.002 ether;\r\n\r\n\r\n\r\n\r\n    //string fees = 0.002;\r\n\r\n    uint attackVictoryProbability = 50;\r\n    mapping ( uint256 => Pet) private _tokenDetails;\r\n    address myTokenAddress = 0x0176c767110458dB7eEE8dF1F234bbcFaEfB5900;\r\n\r\n    constructor( string memory name, string memory symbol)\r\n    ERC721(name, symbol){}\r\n\r\n    function updateFee(uint256 _fee) external onlyOwner(){\r\n        fee = _fee;\r\n    }\r\n\r\n    function withdraw() external payable onlyOwner(){\r\n        address payable _owner = payable(owner());\r\n        _owner.transfer(address(this).balance);\r\n    }\r\n\r\n\r\n   function mintToken(address _to, uint256 _tokenId, string calldata _uri) external onlyOwner {\r\n    _safeMint(_to, _tokenId);\r\n    //super._setTokenUri(_tokenId, _uri);\r\n  }\r\n\r\n   mapping (address => uint) balances;\r\n\r\n\r\n    function sendCoin(address receiver, uint amount)\r\n    public returns(bool success) {\r\n        if (balances[msg.sender] < amount) return false;\r\n        balances[msg.sender] -= amount;\r\n        balances[receiver] += amount;\r\n        emit Transfer(msg.sender, receiver, amount);\r\n        return true;    }\r\n\r\n    function mint(uint8 damage, uint8 magic, uint256 endurance) public payable {\r\n        require(msg.value != fee);\r\n        uint ran_number = randMod(100);\r\n        uint8 rooster_class = 0;\r\n        if (ran_number < 50) {\r\n        rooster_class = 1; }\r\n        else if  (ran_number > 50 && ran_number < 80) {\r\n        rooster_class = 2;}\r\n        else if  (ran_number > 80 && ran_number < 95) {\r\n        rooster_class = 3;}\r\n        else if  (ran_number > 95 && ran_number < 100) {\r\n        rooster_class = 4;}\r\n\r\n        ran_number = randMod(80);\r\n        uint8 leg = 0;\r\n        if (ran_number < 50) {\r\n        leg = 1; }\r\n        ran_number = randMod(70);\r\n        uint8 wing = 0;\r\n        if (ran_number < 50) {\r\n        wing = 1; }\r\n\r\n        ran_number = randMod(60);\r\n        uint8 tail = 0;\r\n        if (ran_number < 50) {\r\n        tail = 1; }\r\n\r\n\r\n        _tokenDetails[nextId] = Pet(damage, magic, block.timestamp, endurance,rooster_class,leg,wing,tail);\r\n        _safeMint(msg.sender, nextId);\r\n\r\n        nextId++;\r\n    }\r\n\r\n    function randMod(uint8 _modulus) internal returns(uint256) {\r\n\r\n            uint256 ran_n = nextId * 73;\r\n            uint256 abc = uint(keccak256(abi.encodePacked(block.timestamp, msg.sender,ran_n))) % _modulus;\r\n    return abc ;\r\n    }\r\n\r\n\r\n    // function gift(uint8 damage, uint8 magic, uint256 endurance,address _to) public payable onlyOwner() {\r\n    //     //require(msg.value >= fee );\r\n    //     _tokenDetails[nextId] = Pet(damage, magic, block.timestamp, endurance);\r\n    //     //_safeMint(_to, nextId);\r\n    //     _safeMint(msg.sender, nextId);\r\n    //     nextId++;\r\n    // }\r\n\r\n    function feed(uint256 tokenId) public{\r\n            Pet storage pet = _tokenDetails[tokenId];\r\n            require(pet.lastMeal + pet.endurance > block.timestamp);\r\n            pet.lastMeal = block.timestamp;\r\n\r\n        }\r\n\r\n\r\n    //MyCoin public myCoin = new MyCoin(\"MyCoin\",\"COIN\");\r\n\r\n    function attack(uint256 tokenId) public payable{\r\n            require(msg.value != fee );\r\n            Pet storage pet = _tokenDetails[tokenId];\r\n            require(pet.lastMeal + pet.endurance > block.timestamp);\r\n            uint rand = randMod(100);\r\n            //_mint(msg.sender,1000);\r\n            if (rand <= attackVictoryProbability) {\r\n                 pet.damage = pet.damage +10;\r\n                 //myCoin.mintTLP(msg.sender,100);\r\n                MyCoin(myTokenAddress).mintTLP(msg.sender,99);\r\n            } else {\r\n                 pet.damage = pet.damage -20;\r\n            }\r\n\r\n        }\r\n\r\n\r\n    function _beforeTokenTransfer(address from, address to, uint256 tokenId) internal override {\r\n                Pet storage pet = _tokenDetails[nextId];\r\n                require(pet.lastMeal + pet.endurance > block.timestamp);\r\n            }\r\n\r\n    function getTokenDetails(uint256 tokenId) public view returns (Pet memory)\r\n                {\r\n                    return _tokenDetails[tokenId];\r\n                }\r\n\r\n    function getAllTokensForUser(address user) public view returns (uint256[] memory){\r\n                    uint256 tokenCount = balanceOf(user);\r\n                    if(tokenCount ==0){\r\n                        return new uint256[](0);\r\n\r\n                    }\r\n                    else{\r\n                        uint[] memory result = new uint256[](tokenCount);\r\n                        uint256 totalPets = nextId;\r\n                        uint256 resultIndex = 0;\r\n                        uint256 i;\r\n                        for (i =0; i< totalPets; i++){\r\n                            if(ownerOf(i) == user){\r\n                                result[resultIndex] = i;\r\n                                resultIndex++;\r\n                            }\r\n                        }\r\n                        return result;\r\n                    }\r\n\r\n                }\r\n}",
  "sourcePath": "C:\\Users\\admin\\PycharmProjects\\Arma\\contracts\\Token.sol",
  "compiler": {
    "name": "solc",
    "version": "0.8.0+commit.c7dfd78e.Emscripten.clang"
  },
  "schemaVersion": "3.4.3",
  "updatedAt": "2021-10-05T10:41:17.375Z",
  "networkType": "ethereum",
  "devdoc": {
    "kind": "dev",
    "methods": {
      "approve(address,uint256)": {
        "details": "See {IERC721-approve}."
      },
      "balanceOf(address)": {
        "details": "See {IERC721-balanceOf}."
      },
      "getApproved(uint256)": {
        "details": "See {IERC721-getApproved}."
      },
      "isApprovedForAll(address,address)": {
        "details": "See {IERC721-isApprovedForAll}."
      },
      "name()": {
        "details": "See {IERC721Metadata-name}."
      },
      "owner()": {
        "details": "Returns the address of the current owner."
      },
      "ownerOf(uint256)": {
        "details": "See {IERC721-ownerOf}."
      },
      "renounceOwnership()": {
        "details": "Leaves the contract without owner. It will not be possible to call `onlyOwner` functions anymore. Can only be called by the current owner. NOTE: Renouncing ownership will leave the contract without an owner, thereby removing any functionality that is only available to the owner."
      },
      "safeTransferFrom(address,address,uint256)": {
        "details": "See {IERC721-safeTransferFrom}."
      },
      "safeTransferFrom(address,address,uint256,bytes)": {
        "details": "See {IERC721-safeTransferFrom}."
      },
      "setApprovalForAll(address,bool)": {
        "details": "See {IERC721-setApprovalForAll}."
      },
      "supportsInterface(bytes4)": {
        "details": "See {IERC165-supportsInterface}."
      },
      "symbol()": {
        "details": "See {IERC721Metadata-symbol}."
      },
      "tokenURI(uint256)": {
        "details": "See {IERC721Metadata-tokenURI}."
      },
      "transferFrom(address,address,uint256)": {
        "details": "See {IERC721-transferFrom}."
      },
      "transferOwnership(address)": {
        "details": "Transfers ownership of the contract to a new account (`newOwner`). Can only be called by the current owner."
      }
    },
    "version": 1
  },
  "userdoc": {
    "kind": "user",
    "methods": {},
    "version": 1
  }
}