{
  "contractName": "Char",
  "abi": [
    {
      "inputs": [
        {
          "internalType": "string",
          "name": "name",
          "type": "string"
        },
        {
          "internalType": "string",
          "name": "symbol",
          "type": "string"
        }
      ],
      "stateMutability": "nonpayable",
      "type": "constructor"
    },
    {
      "anonymous": false,
      "inputs": [
        {
          "indexed": true,
          "internalType": "address",
          "name": "owner",
          "type": "address"
        },
        {
          "indexed": true,
          "internalType": "address",
          "name": "approved",
          "type": "address"
        },
        {
          "indexed": true,
          "internalType": "uint256",
          "name": "tokenId",
          "type": "uint256"
        }
      ],
      "name": "Approval",
      "type": "event"
    },
    {
      "anonymous": false,
      "inputs": [
        {
          "indexed": true,
          "internalType": "address",
          "name": "owner",
          "type": "address"
        },
        {
          "indexed": true,
          "internalType": "address",
          "name": "operator",
          "type": "address"
        },
        {
          "indexed": false,
          "internalType": "bool",
          "name": "approved",
          "type": "bool"
        }
      ],
      "name": "ApprovalForAll",
      "type": "event"
    },
    {
      "anonymous": false,
      "inputs": [
        {
          "indexed": true,
          "internalType": "address",
          "name": "previousOwner",
          "type": "address"
        },
        {
          "indexed": true,
          "internalType": "address",
          "name": "newOwner",
          "type": "address"
        }
      ],
      "name": "OwnershipTransferred",
      "type": "event"
    },
    {
      "anonymous": false,
      "inputs": [
        {
          "indexed": true,
          "internalType": "address",
          "name": "from",
          "type": "address"
        },
        {
          "indexed": true,
          "internalType": "address",
          "name": "to",
          "type": "address"
        },
        {
          "indexed": true,
          "internalType": "uint256",
          "name": "tokenId",
          "type": "uint256"
        }
      ],
      "name": "Transfer",
      "type": "event"
    },
    {
      "inputs": [
        {
          "internalType": "address",
          "name": "to",
          "type": "address"
        },
        {
          "internalType": "uint256",
          "name": "tokenId",
          "type": "uint256"
        }
      ],
      "name": "approve",
      "outputs": [],
      "stateMutability": "nonpayable",
      "type": "function"
    },
    {
      "inputs": [
        {
          "internalType": "address",
          "name": "owner",
          "type": "address"
        }
      ],
      "name": "balanceOf",
      "outputs": [
        {
          "internalType": "uint256",
          "name": "",
          "type": "uint256"
        }
      ],
      "stateMutability": "view",
      "type": "function",
      "constant": true
    },
    {
      "inputs": [
        {
          "internalType": "uint256",
          "name": "tokenId",
          "type": "uint256"
        }
      ],
      "name": "getApproved",
      "outputs": [
        {
          "internalType": "address",
          "name": "",
          "type": "address"
        }
      ],
      "stateMutability": "view",
      "type": "function",
      "constant": true
    },
    {
      "inputs": [
        {
          "internalType": "address",
          "name": "owner",
          "type": "address"
        },
        {
          "internalType": "address",
          "name": "operator",
          "type": "address"
        }
      ],
      "name": "isApprovedForAll",
      "outputs": [
        {
          "internalType": "bool",
          "name": "",
          "type": "bool"
        }
      ],
      "stateMutability": "view",
      "type": "function",
      "constant": true
    },
    {
      "inputs": [],
      "name": "name",
      "outputs": [
        {
          "internalType": "string",
          "name": "",
          "type": "string"
        }
      ],
      "stateMutability": "view",
      "type": "function",
      "constant": true
    },
    {
      "inputs": [],
      "name": "owner",
      "outputs": [
        {
          "internalType": "address",
          "name": "",
          "type": "address"
        }
      ],
      "stateMutability": "view",
      "type": "function",
      "constant": true
    },
    {
      "inputs": [
        {
          "internalType": "uint256",
          "name": "tokenId",
          "type": "uint256"
        }
      ],
      "name": "ownerOf",
      "outputs": [
        {
          "internalType": "address",
          "name": "",
          "type": "address"
        }
      ],
      "stateMutability": "view",
      "type": "function",
      "constant": true
    },
    {
      "inputs": [],
      "name": "renounceOwnership",
      "outputs": [],
      "stateMutability": "nonpayable",
      "type": "function"
    },
    {
      "inputs": [
        {
          "internalType": "address",
          "name": "from",
          "type": "address"
        },
        {
          "internalType": "address",
          "name": "to",
          "type": "address"
        },
        {
          "internalType": "uint256",
          "name": "tokenId",
          "type": "uint256"
        }
      ],
      "name": "safeTransferFrom",
      "outputs": [],
      "stateMutability": "nonpayable",
      "type": "function"
    },
    {
      "inputs": [
        {
          "internalType": "address",
          "name": "from",
          "type": "address"
        },
        {
          "internalType": "address",
          "name": "to",
          "type": "address"
        },
        {
          "internalType": "uint256",
          "name": "tokenId",
          "type": "uint256"
        },
        {
          "internalType": "bytes",
          "name": "_data",
          "type": "bytes"
        }
      ],
      "name": "safeTransferFrom",
      "outputs": [],
      "stateMutability": "nonpayable",
      "type": "function"
    },
    {
      "inputs": [
        {
          "internalType": "address",
          "name": "operator",
          "type": "address"
        },
        {
          "internalType": "bool",
          "name": "approved",
          "type": "bool"
        }
      ],
      "name": "setApprovalForAll",
      "outputs": [],
      "stateMutability": "nonpayable",
      "type": "function"
    },
    {
      "inputs": [
        {
          "internalType": "bytes4",
          "name": "interfaceId",
          "type": "bytes4"
        }
      ],
      "name": "supportsInterface",
      "outputs": [
        {
          "internalType": "bool",
          "name": "",
          "type": "bool"
        }
      ],
      "stateMutability": "view",
      "type": "function",
      "constant": true
    },
    {
      "inputs": [],
      "name": "symbol",
      "outputs": [
        {
          "internalType": "string",
          "name": "",
          "type": "string"
        }
      ],
      "stateMutability": "view",
      "type": "function",
      "constant": true
    },
    {
      "inputs": [
        {
          "internalType": "uint256",
          "name": "tokenId",
          "type": "uint256"
        }
      ],
      "name": "tokenURI",
      "outputs": [
        {
          "internalType": "string",
          "name": "",
          "type": "string"
        }
      ],
      "stateMutability": "view",
      "type": "function",
      "constant": true
    },
    {
      "inputs": [
        {
          "internalType": "address",
          "name": "from",
          "type": "address"
        },
        {
          "internalType": "address",
          "name": "to",
          "type": "address"
        },
        {
          "internalType": "uint256",
          "name": "tokenId",
          "type": "uint256"
        }
      ],
      "name": "transferFrom",
      "outputs": [],
      "stateMutability": "nonpayable",
      "type": "function"
    },
    {
      "inputs": [
        {
          "internalType": "address",
          "name": "newOwner",
          "type": "address"
        }
      ],
      "name": "transferOwnership",
      "outputs": [],
      "stateMutability": "nonpayable",
      "type": "function"
    },
    {
      "inputs": [
        {
          "internalType": "uint256",
          "name": "_fee",
          "type": "uint256"
        }
      ],
      "name": "updateFee",
      "outputs": [],
      "stateMutability": "nonpayable",
      "type": "function"
    },
    {
      "inputs": [],
      "name": "withdraw",
      "outputs": [],
      "stateMutability": "payable",
      "type": "function",
      "payable": true
    },
    {
      "inputs": [
        {
          "internalType": "address",
          "name": "_to",
          "type": "address"
        },
        {
          "internalType": "uint256",
          "name": "_tokenId",
          "type": "uint256"
        },
        {
          "internalType": "string",
          "name": "_uri",
          "type": "string"
        }
      ],
      "name": "mintToken",
      "outputs": [],
      "stateMutability": "nonpayable",
      "type": "function"
    },
    {
      "inputs": [
        {
          "internalType": "address",
          "name": "receiver",
          "type": "address"
        },
        {
          "internalType": "uint256",
          "name": "amount",
          "type": "uint256"
        }
      ],
      "name": "sendCoin",
      "outputs": [
        {
          "internalType": "bool",
          "name": "success",
          "type": "bool"
        }
      ],
      "stateMutability": "nonpayable",
      "type": "function"
    },
    {
      "inputs": [],
      "name": "mint",
      "outputs": [],
      "stateMutability": "payable",
      "type": "function",
      "payable": true
    },
    {
      "inputs": [
        {
          "internalType": "uint256",
          "name": "tokenId",
          "type": "uint256"
        }
      ],
      "name": "feed",
      "outputs": [],
      "stateMutability": "nonpayable",
      "type": "function"
    },
    {
      "inputs": [
        {
          "internalType": "uint256",
          "name": "tokenId",
          "type": "uint256"
        }
      ],
      "name": "attack",
      "outputs": [],
      "stateMutability": "payable",
      "type": "function",
      "payable": true
    },
    {
      "inputs": [
        {
          "internalType": "uint256",
          "name": "tokenId",
          "type": "uint256"
        }
      ],
      "name": "getTokenDetails",
      "outputs": [
        {
          "components": [
            {
              "internalType": "uint8",
              "name": "head",
              "type": "uint8"
            },
            {
              "internalType": "uint8",
              "name": "eye",
              "type": "uint8"
            },
            {
              "internalType": "uint256",
              "name": "eyebrow",
              "type": "uint256"
            },
            {
              "internalType": "uint8",
              "name": "mount",
              "type": "uint8"
            },
            {
              "internalType": "uint8",
              "name": "nose",
              "type": "uint8"
            },
            {
              "internalType": "uint8",
              "name": "background",
              "type": "uint8"
            }
          ],
          "internalType": "struct Char.Face",
          "name": "",
          "type": "tuple"
        }
      ],
      "stateMutability": "view",
      "type": "function",
      "constant": true
    },
    {
      "inputs": [
        {
          "internalType": "address",
          "name": "user",
          "type": "address"
        }
      ],
      "name": "getAllTokensForUser",
      "outputs": [
        {
          "internalType": "uint256[]",
          "name": "",
          "type": "uint256[]"
        }
      ],
      "stateMutability": "view",
      "type": "function",
      "constant": true
    }
  ],
  "bytecode": "0x608060405260006007556000600860006101000a81548160ff021916908360ff16021790555066071afd498d00006009556063600a55730176c767110458db7eee8df1f234bbcfaefb5900600c60006101000a81548173ffffffffffffffffffffffffffffffffffffffff021916908373ffffffffffffffffffffffffffffffffffffffff1602179055503480156200009757600080fd5b5060405162003da438038062003da48339818101604052810190620000bd91906200030b565b81818160009080519060200190620000d7929190620001e9565b508060019080519060200190620000f0929190620001e9565b50505062000113620001076200011b60201b60201c565b6200012360201b60201c565b5050620004af565b600033905090565b6000600660009054906101000a900473ffffffffffffffffffffffffffffffffffffffff16905081600660006101000a81548173ffffffffffffffffffffffffffffffffffffffff021916908373ffffffffffffffffffffffffffffffffffffffff1602179055508173ffffffffffffffffffffffffffffffffffffffff168173ffffffffffffffffffffffffffffffffffffffff167f8be0079c531659141344cd1fd0a4f28419497f9722a3daafe3b4186f6b6457e060405160405180910390a35050565b828054620001f7906200041b565b90600052602060002090601f0160209004810192826200021b576000855562000267565b82601f106200023657805160ff191683800117855562000267565b8280016001018555821562000267579182015b828111156200026657825182559160200191906001019062000249565b5b5090506200027691906200027a565b5090565b5b80821115620002955760008160009055506001016200027b565b5090565b6000620002b0620002aa84620003b2565b6200037e565b905082815260208101848484011115620002c957600080fd5b620002d6848285620003e5565b509392505050565b600082601f830112620002f057600080fd5b81516200030284826020860162000299565b91505092915050565b600080604083850312156200031f57600080fd5b600083015167ffffffffffffffff8111156200033a57600080fd5b6200034885828601620002de565b925050602083015167ffffffffffffffff8111156200036657600080fd5b6200037485828601620002de565b9150509250929050565b6000604051905081810181811067ffffffffffffffff82111715620003a857620003a762000480565b5b8060405250919050565b600067ffffffffffffffff821115620003d057620003cf62000480565b5b601f19601f8301169050602081019050919050565b60005b8381101562000405578082015181840152602081019050620003e8565b8381111562000415576000848401525b50505050565b600060028204905060018216806200043457607f821691505b602082108114156200044b576200044a62000451565b5b50919050565b7f4e487b7100000000000000000000000000000000000000000000000000000000600052602260045260246000fd5b7f4e487b7100000000000000000000000000000000000000000000000000000000600052604160045260246000fd5b6138e580620004bf6000396000f3fe6080604052600436106101665760003560e01c806382de8fe9116100d1578063b88d4fde1161008a578063e985e9c511610064578063e985e9c514610511578063f2fde38b1461054e578063f59dfdfb14610577578063f76e8ba9146105a057610166565b8063b88d4fde1461046e578063c1e0372814610497578063c87b56dd146104d457610166565b806382de8fe91461034c5780638da5cb5b146103895780639012c4a8146103b457806390b98a11146103dd57806395d89b411461041a578063a22cb4651461044557610166565b80633ccfd60b116101235780633ccfd60b1461026c57806342842e0e146102765780636352211e1461029f57806364dd891a146102dc57806370a08231146102f8578063715018a61461033557610166565b806301ffc9a71461016b57806306fdde03146101a8578063081812fc146101d3578063095ea7b3146102105780631249c58b1461023957806323b872dd14610243575b600080fd5b34801561017757600080fd5b50610192600480360381019061018d9190612813565b6105c9565b60405161019f919061314d565b60405180910390f35b3480156101b457600080fd5b506101bd6106ab565b6040516101ca9190613168565b60405180910390f35b3480156101df57600080fd5b506101fa60048036038101906101f59190612865565b61073d565b60405161020791906130c4565b60405180910390f35b34801561021c57600080fd5b506102376004803603810190610232919061276b565b6107c2565b005b6102416108da565b005b34801561024f57600080fd5b5061026a60048036038101906102659190612665565b610afa565b005b610274610b5a565b005b34801561028257600080fd5b5061029d60048036038101906102989190612665565b610c2c565b005b3480156102ab57600080fd5b506102c660048036038101906102c19190612865565b610c4c565b6040516102d391906130c4565b60405180910390f35b6102f660048036038101906102f19190612865565b610cfe565b005b34801561030457600080fd5b5061031f600480360381019061031a9190612600565b610d39565b60405161032c91906133a5565b60405180910390f35b34801561034157600080fd5b5061034a610df1565b005b34801561035857600080fd5b50610373600480360381019061036e9190612600565b610e79565b604051610380919061312b565b60405180910390f35b34801561039557600080fd5b5061039e611041565b6040516103ab91906130c4565b60405180910390f35b3480156103c057600080fd5b506103db60048036038101906103d69190612865565b61106b565b005b3480156103e957600080fd5b5061040460048036038101906103ff919061276b565b6110f1565b604051610411919061314d565b60405180910390f35b34801561042657600080fd5b5061042f611255565b60405161043c9190613168565b60405180910390f35b34801561045157600080fd5b5061046c6004803603810190610467919061272f565b6112e7565b005b34801561047a57600080fd5b50610495600480360381019061049091906126b4565b611468565b005b3480156104a357600080fd5b506104be60048036038101906104b99190612865565b6114ca565b6040516104cb919061338a565b60405180910390f35b3480156104e057600080fd5b506104fb60048036038101906104f69190612865565b611592565b6040516105089190613168565b60405180910390f35b34801561051d57600080fd5b5061053860048036038101906105339190612629565b611639565b604051610545919061314d565b60405180910390f35b34801561055a57600080fd5b5061057560048036038101906105709190612600565b6116cd565b005b34801561058357600080fd5b5061059e60048036038101906105999190612865565b6117c5565b005b3480156105ac57600080fd5b506105c760048036038101906105c291906127a7565b6117e0565b005b60007f80ac58cd000000000000000000000000000000000000000000000000000000007bffffffffffffffffffffffffffffffffffffffffffffffffffffffff1916827bffffffffffffffffffffffffffffffffffffffffffffffffffffffff1916148061069457507f5b5e139f000000000000000000000000000000000000000000000000000000007bffffffffffffffffffffffffffffffffffffffffffffffffffffffff1916827bffffffffffffffffffffffffffffffffffffffffffffffffffffffff1916145b806106a457506106a38261186c565b5b9050919050565b6060600080546106ba90613675565b80601f01602080910402602001604051908101604052809291908181526020018280546106e690613675565b80156107335780601f1061070857610100808354040283529160200191610733565b820191906000526020600020905b81548152906001019060200180831161071657829003601f168201915b5050505050905090565b6000610748826118d6565b610787576040517f08c379a000000000000000000000000000000000000000000000000000000000815260040161077e906132ca565b60405180910390fd5b6004600083815260200190815260200160002060009054906101000a900473ffffffffffffffffffffffffffffffffffffffff169050919050565b60006107cd82610c4c565b90508073ffffffffffffffffffffffffffffffffffffffff168373ffffffffffffffffffffffffffffffffffffffff16141561083e576040517f08c379a00000000000000000000000000000000000000000000000000000000081526004016108359061334a565b60405180910390fd5b8073ffffffffffffffffffffffffffffffffffffffff1661085d611942565b73ffffffffffffffffffffffffffffffffffffffff16148061088c575061088b81610886611942565b611639565b5b6108cb576040517f08c379a00000000000000000000000000000000000000000000000000000000081526004016108c29061324a565b60405180910390fd5b6108d5838361194a565b505050565b60005b60038160ff1614610af757600060019050600060019050600060019050600060019050600060019050600060029050600061091a60646003611a03565b9050603281101561092a57600296505b6109366064600a611a03565b9050603281101561094657600295505b61095260646012611a03565b9050603281101561096257600294505b61096e60646017611a03565b9050603281101561097e57600293505b61098a60646041611a03565b9050603281101561099a57600292505b6109a660646037611a03565b905060558111156109b657600191505b6040518060c001604052808860ff1681526020018760ff1681526020018681526020018560ff1681526020018460ff1681526020018360ff16815250600b6000600754815260200190815260200160002060008201518160000160006101000a81548160ff021916908360ff16021790555060208201518160000160016101000a81548160ff021916908360ff1602179055506040820151816001015560608201518160020160006101000a81548160ff021916908360ff16021790555060808201518160020160016101000a81548160ff021916908360ff16021790555060a08201518160020160026101000a81548160ff021916908360ff160217905550905050610ac533600754611a70565b60076000815480929190610ad8906136a7565b91905055508780610ae8906136f0565b985050505050505050506108dd565b50565b610b0b610b05611942565b82611a8e565b610b4a576040517f08c379a0000000000000000000000000000000000000000000000000000000008152600401610b419061336a565b60405180910390fd5b610b55838383611b6c565b505050565b610b62611942565b73ffffffffffffffffffffffffffffffffffffffff16610b80611041565b73ffffffffffffffffffffffffffffffffffffffff1614610bd6576040517f08c379a0000000000000000000000000000000000000000000000000000000008152600401610bcd906132ea565b60405180910390fd5b6000610be0611041565b90508073ffffffffffffffffffffffffffffffffffffffff166108fc479081150290604051600060405180830381858888f19350505050158015610c28573d6000803e3d6000fd5b5050565b610c4783838360405180602001604052806000815250611468565b505050565b6000806002600084815260200190815260200160002060009054906101000a900473ffffffffffffffffffffffffffffffffffffffff169050600073ffffffffffffffffffffffffffffffffffffffff168173ffffffffffffffffffffffffffffffffffffffff161415610cf5576040517f08c379a0000000000000000000000000000000000000000000000000000000008152600401610cec9061328a565b60405180910390fd5b80915050919050565b600954341415610d0d57600080fd5b6000600b600083815260200190815260200160002090506000610d3260646063611a03565b9050505050565b60008073ffffffffffffffffffffffffffffffffffffffff168273ffffffffffffffffffffffffffffffffffffffff161415610daa576040517f08c379a0000000000000000000000000000000000000000000000000000000008152600401610da19061326a565b60405180910390fd5b600360008373ffffffffffffffffffffffffffffffffffffffff1673ffffffffffffffffffffffffffffffffffffffff168152602001908152602001600020549050919050565b610df9611942565b73ffffffffffffffffffffffffffffffffffffffff16610e17611041565b73ffffffffffffffffffffffffffffffffffffffff1614610e6d576040517f08c379a0000000000000000000000000000000000000000000000000000000008152600401610e64906132ea565b60405180910390fd5b610e776000611dc8565b565b60606000610e8683610d39565b90506000811415610f0957600067ffffffffffffffff811115610ed2577f4e487b7100000000000000000000000000000000000000000000000000000000600052604160045260246000fd5b604051908082528060200260200182016040528015610f005781602001602082028036833780820191505090505b5091505061103c565b60008167ffffffffffffffff811115610f4b577f4e487b7100000000000000000000000000000000000000000000000000000000600052604160045260246000fd5b604051908082528060200260200182016040528015610f795781602001602082028036833780820191505090505b509050600060075490506000805b82811015611033578673ffffffffffffffffffffffffffffffffffffffff16610faf82610c4c565b73ffffffffffffffffffffffffffffffffffffffff1614156110205780848381518110611005577f4e487b7100000000000000000000000000000000000000000000000000000000600052603260045260246000fd5b602002602001018181525050818061101c906136a7565b9250505b808061102b906136a7565b915050610f87565b83955050505050505b919050565b6000600660009054906101000a900473ffffffffffffffffffffffffffffffffffffffff16905090565b611073611942565b73ffffffffffffffffffffffffffffffffffffffff16611091611041565b73ffffffffffffffffffffffffffffffffffffffff16146110e7576040517f08c379a00000000000000000000000000000000000000000000000000000000081526004016110de906132ea565b60405180910390fd5b8060098190555050565b600081600d60003373ffffffffffffffffffffffffffffffffffffffff1673ffffffffffffffffffffffffffffffffffffffff168152602001908152602001600020541015611143576000905061124f565b81600d60003373ffffffffffffffffffffffffffffffffffffffff1673ffffffffffffffffffffffffffffffffffffffff1681526020019081526020016000206000828254611192919061357e565b9250508190555081600d60008573ffffffffffffffffffffffffffffffffffffffff1673ffffffffffffffffffffffffffffffffffffffff16815260200190815260200160002060008282546111e8919061349d565b92505081905550818373ffffffffffffffffffffffffffffffffffffffff163373ffffffffffffffffffffffffffffffffffffffff167fddf252ad1be2c89b69c2b068fc378daa952ba7f163c4a11628f55a4df523b3ef60405160405180910390a4600190505b92915050565b60606001805461126490613675565b80601f016020809104026020016040519081016040528092919081815260200182805461129090613675565b80156112dd5780601f106112b2576101008083540402835291602001916112dd565b820191906000526020600020905b8154815290600101906020018083116112c057829003601f168201915b5050505050905090565b6112ef611942565b73ffffffffffffffffffffffffffffffffffffffff168273ffffffffffffffffffffffffffffffffffffffff16141561135d576040517f08c379a00000000000000000000000000000000000000000000000000000000081526004016113549061320a565b60405180910390fd5b806005600061136a611942565b73ffffffffffffffffffffffffffffffffffffffff1673ffffffffffffffffffffffffffffffffffffffff16815260200190815260200160002060008473ffffffffffffffffffffffffffffffffffffffff1673ffffffffffffffffffffffffffffffffffffffff16815260200190815260200160002060006101000a81548160ff0219169083151502179055508173ffffffffffffffffffffffffffffffffffffffff16611417611942565b73ffffffffffffffffffffffffffffffffffffffff167f17307eab39ab6107e8899845ad3d59bd9653f200f220920489ca2b5937696c318360405161145c919061314d565b60405180910390a35050565b611479611473611942565b83611a8e565b6114b8576040517f08c379a00000000000000000000000000000000000000000000000000000000081526004016114af9061336a565b60405180910390fd5b6114c484848484611e8e565b50505050565b6114d26124a0565b600b60008381526020019081526020016000206040518060c00160405290816000820160009054906101000a900460ff1660ff1660ff1681526020016000820160019054906101000a900460ff1660ff1660ff168152602001600182015481526020016002820160009054906101000a900460ff1660ff1660ff1681526020016002820160019054906101000a900460ff1660ff1660ff1681526020016002820160029054906101000a900460ff1660ff1660ff16815250509050919050565b606061159d826118d6565b6115dc576040517f08c379a00000000000000000000000000000000000000000000000000000000081526004016115d39061332a565b60405180910390fd5b60006115e6611eea565b905060008151116116065760405180602001604052806000815250611631565b8061161084611f01565b604051602001611621929190613063565b6040516020818303038152906040525b915050919050565b6000600560008473ffffffffffffffffffffffffffffffffffffffff1673ffffffffffffffffffffffffffffffffffffffff16815260200190815260200160002060008373ffffffffffffffffffffffffffffffffffffffff1673ffffffffffffffffffffffffffffffffffffffff16815260200190815260200160002060009054906101000a900460ff16905092915050565b6116d5611942565b73ffffffffffffffffffffffffffffffffffffffff166116f3611041565b73ffffffffffffffffffffffffffffffffffffffff1614611749576040517f08c379a0000000000000000000000000000000000000000000000000000000008152600401611740906132ea565b60405180910390fd5b600073ffffffffffffffffffffffffffffffffffffffff168173ffffffffffffffffffffffffffffffffffffffff1614156117b9576040517f08c379a00000000000000000000000000000000000000000000000000000000081526004016117b0906131aa565b60405180910390fd5b6117c281611dc8565b50565b6000600b600083815260200190815260200160002090505050565b6117e8611942565b73ffffffffffffffffffffffffffffffffffffffff16611806611041565b73ffffffffffffffffffffffffffffffffffffffff161461185c576040517f08c379a0000000000000000000000000000000000000000000000000000000008152600401611853906132ea565b60405180910390fd5b6118668484611a70565b50505050565b60007f01ffc9a7000000000000000000000000000000000000000000000000000000007bffffffffffffffffffffffffffffffffffffffffffffffffffffffff1916827bffffffffffffffffffffffffffffffffffffffffffffffffffffffff1916149050919050565b60008073ffffffffffffffffffffffffffffffffffffffff166002600084815260200190815260200160002060009054906101000a900473ffffffffffffffffffffffffffffffffffffffff1673ffffffffffffffffffffffffffffffffffffffff1614159050919050565b600033905090565b816004600083815260200190815260200160002060006101000a81548173ffffffffffffffffffffffffffffffffffffffff021916908373ffffffffffffffffffffffffffffffffffffffff160217905550808273ffffffffffffffffffffffffffffffffffffffff166119bd83610c4c565b73ffffffffffffffffffffffffffffffffffffffff167f8c5be1e5ebec7d5bd14f71427d1e84f3dd0314c0f7b2291e5b200ac8c7c3b92560405160405180910390a45050565b6000808260ff166049600754611a199190613524565b611a239190613524565b905060008460ff16423384604051602001611a4093929190613087565b6040516020818303038152906040528051906020012060001c611a639190613748565b9050809250505092915050565b611a8a8282604051806020016040528060008152506120ae565b5050565b6000611a99826118d6565b611ad8576040517f08c379a0000000000000000000000000000000000000000000000000000000008152600401611acf9061322a565b60405180910390fd5b6000611ae383610c4c565b90508073ffffffffffffffffffffffffffffffffffffffff168473ffffffffffffffffffffffffffffffffffffffff161480611b5257508373ffffffffffffffffffffffffffffffffffffffff16611b3a8461073d565b73ffffffffffffffffffffffffffffffffffffffff16145b80611b635750611b628185611639565b5b91505092915050565b8273ffffffffffffffffffffffffffffffffffffffff16611b8c82610c4c565b73ffffffffffffffffffffffffffffffffffffffff1614611be2576040517f08c379a0000000000000000000000000000000000000000000000000000000008152600401611bd99061330a565b60405180910390fd5b600073ffffffffffffffffffffffffffffffffffffffff168273ffffffffffffffffffffffffffffffffffffffff161415611c52576040517f08c379a0000000000000000000000000000000000000000000000000000000008152600401611c49906131ea565b60405180910390fd5b611c5d838383612109565b611c6860008261194a565b6001600360008573ffffffffffffffffffffffffffffffffffffffff1673ffffffffffffffffffffffffffffffffffffffff1681526020019081526020016000206000828254611cb8919061357e565b925050819055506001600360008473ffffffffffffffffffffffffffffffffffffffff1673ffffffffffffffffffffffffffffffffffffffff1681526020019081526020016000206000828254611d0f919061349d565b92505081905550816002600083815260200190815260200160002060006101000a81548173ffffffffffffffffffffffffffffffffffffffff021916908373ffffffffffffffffffffffffffffffffffffffff160217905550808273ffffffffffffffffffffffffffffffffffffffff168473ffffffffffffffffffffffffffffffffffffffff167fddf252ad1be2c89b69c2b068fc378daa952ba7f163c4a11628f55a4df523b3ef60405160405180910390a4505050565b6000600660009054906101000a900473ffffffffffffffffffffffffffffffffffffffff16905081600660006101000a81548173ffffffffffffffffffffffffffffffffffffffff021916908373ffffffffffffffffffffffffffffffffffffffff1602179055508173ffffffffffffffffffffffffffffffffffffffff168173ffffffffffffffffffffffffffffffffffffffff167f8be0079c531659141344cd1fd0a4f28419497f9722a3daafe3b4186f6b6457e060405160405180910390a35050565b611e99848484611b6c565b611ea584848484612128565b611ee4576040517f08c379a0000000000000000000000000000000000000000000000000000000008152600401611edb9061318a565b60405180910390fd5b50505050565b606060405180602001604052806000815250905090565b60606000821415611f49576040518060400160405280600181526020017f300000000000000000000000000000000000000000000000000000000000000081525090506120a9565b600082905060005b60008214611f7b578080611f64906136a7565b915050600a82611f7491906134f3565b9150611f51565b60008167ffffffffffffffff811115611fbd577f4e487b7100000000000000000000000000000000000000000000000000000000600052604160045260246000fd5b6040519080825280601f01601f191660200182016040528015611fef5781602001600182028036833780820191505090505b5090505b600085146120a257600182612008919061357e565b9150600a856120179190613748565b6030612023919061349d565b60f81b81838151811061205f577f4e487b7100000000000000000000000000000000000000000000000000000000600052603260045260246000fd5b60200101907effffffffffffffffffffffffffffffffffffffffffffffffffffffffffffff1916908160001a905350600a8561209b91906134f3565b9450611ff3565b8093505050505b919050565b6120b883836122bf565b6120c56000848484612128565b612104576040517f08c379a00000000000000000000000000000000000000000000000000000000081526004016120fb9061318a565b60405180910390fd5b505050565b6000600b60006007548152602001908152602001600020905050505050565b60006121498473ffffffffffffffffffffffffffffffffffffffff1661248d565b156122b2578373ffffffffffffffffffffffffffffffffffffffff1663150b7a02612172611942565b8786866040518563ffffffff1660e01b815260040161219494939291906130df565b602060405180830381600087803b1580156121ae57600080fd5b505af19250505080156121df57506040513d601f19601f820116820180604052508101906121dc919061283c565b60015b612262573d806000811461220f576040519150601f19603f3d011682016040523d82523d6000602084013e612214565b606091505b5060008151141561225a576040517f08c379a00000000000000000000000000000000000000000000000000000000081526004016122519061318a565b60405180910390fd5b805181602001fd5b63150b7a0260e01b7bffffffffffffffffffffffffffffffffffffffffffffffffffffffff1916817bffffffffffffffffffffffffffffffffffffffffffffffffffffffff1916149150506122b7565b600190505b949350505050565b600073ffffffffffffffffffffffffffffffffffffffff168273ffffffffffffffffffffffffffffffffffffffff16141561232f576040517f08c379a0000000000000000000000000000000000000000000000000000000008152600401612326906132aa565b60405180910390fd5b612338816118d6565b15612378576040517f08c379a000000000000000000000000000000000000000000000000000000000815260040161236f906131ca565b60405180910390fd5b61238460008383612109565b6001600360008473ffffffffffffffffffffffffffffffffffffffff1673ffffffffffffffffffffffffffffffffffffffff16815260200190815260200160002060008282546123d4919061349d565b92505081905550816002600083815260200190815260200160002060006101000a81548173ffffffffffffffffffffffffffffffffffffffff021916908373ffffffffffffffffffffffffffffffffffffffff160217905550808273ffffffffffffffffffffffffffffffffffffffff16600073ffffffffffffffffffffffffffffffffffffffff167fddf252ad1be2c89b69c2b068fc378daa952ba7f163c4a11628f55a4df523b3ef60405160405180910390a45050565b600080823b905060008111915050919050565b6040518060c00160405280600060ff168152602001600060ff16815260200160008152602001600060ff168152602001600060ff168152602001600060ff1681525090565b60006124f86124f3846133f1565b6133c0565b90508281526020810184848401111561251057600080fd5b61251b848285613633565b509392505050565b60008135905061253281613853565b92915050565b6000813590506125478161386a565b92915050565b60008135905061255c81613881565b92915050565b60008151905061257181613881565b92915050565b600082601f83011261258857600080fd5b81356125988482602086016124e5565b91505092915050565b60008083601f8401126125b357600080fd5b8235905067ffffffffffffffff8111156125cc57600080fd5b6020830191508360018202830111156125e457600080fd5b9250929050565b6000813590506125fa81613898565b92915050565b60006020828403121561261257600080fd5b600061262084828501612523565b91505092915050565b6000806040838503121561263c57600080fd5b600061264a85828601612523565b925050602061265b85828601612523565b9150509250929050565b60008060006060848603121561267a57600080fd5b600061268886828701612523565b935050602061269986828701612523565b92505060406126aa868287016125eb565b9150509250925092565b600080600080608085870312156126ca57600080fd5b60006126d887828801612523565b94505060206126e987828801612523565b93505060406126fa878288016125eb565b925050606085013567ffffffffffffffff81111561271757600080fd5b61272387828801612577565b91505092959194509250565b6000806040838503121561274257600080fd5b600061275085828601612523565b925050602061276185828601612538565b9150509250929050565b6000806040838503121561277e57600080fd5b600061278c85828601612523565b925050602061279d858286016125eb565b9150509250929050565b600080600080606085870312156127bd57600080fd5b60006127cb87828801612523565b94505060206127dc878288016125eb565b935050604085013567ffffffffffffffff8111156127f957600080fd5b612805878288016125a1565b925092505092959194509250565b60006020828403121561282557600080fd5b60006128338482850161254d565b91505092915050565b60006020828403121561284e57600080fd5b600061285c84828501612562565b91505092915050565b60006020828403121561287757600080fd5b6000612885848285016125eb565b91505092915050565b600061289a838361301f565b60208301905092915050565b6128af816135b2565b82525050565b6128c66128c1826135b2565b61371a565b82525050565b60006128d782613431565b6128e1818561345f565b93506128ec83613421565b8060005b8381101561291d578151612904888261288e565b975061290f83613452565b9250506001810190506128f0565b5085935050505092915050565b612933816135c4565b82525050565b60006129448261343c565b61294e8185613470565b935061295e818560208601613642565b61296781613835565b840191505092915050565b600061297d82613447565b6129878185613481565b9350612997818560208601613642565b6129a081613835565b840191505092915050565b60006129b682613447565b6129c08185613492565b93506129d0818560208601613642565b80840191505092915050565b60006129e9603283613481565b91507f4552433732313a207472616e7366657220746f206e6f6e20455243373231526560008301527f63656976657220696d706c656d656e74657200000000000000000000000000006020830152604082019050919050565b6000612a4f602683613481565b91507f4f776e61626c653a206e6577206f776e657220697320746865207a65726f206160008301527f64647265737300000000000000000000000000000000000000000000000000006020830152604082019050919050565b6000612ab5601c83613481565b91507f4552433732313a20746f6b656e20616c7265616479206d696e746564000000006000830152602082019050919050565b6000612af5602483613481565b91507f4552433732313a207472616e7366657220746f20746865207a65726f2061646460008301527f72657373000000000000000000000000000000000000000000000000000000006020830152604082019050919050565b6000612b5b601983613481565b91507f4552433732313a20617070726f766520746f2063616c6c6572000000000000006000830152602082019050919050565b6000612b9b602c83613481565b91507f4552433732313a206f70657261746f7220717565727920666f72206e6f6e657860008301527f697374656e7420746f6b656e00000000000000000000000000000000000000006020830152604082019050919050565b6000612c01603883613481565b91507f4552433732313a20617070726f76652063616c6c6572206973206e6f74206f7760008301527f6e6572206e6f7220617070726f76656420666f7220616c6c00000000000000006020830152604082019050919050565b6000612c67602a83613481565b91507f4552433732313a2062616c616e636520717565727920666f7220746865207a6560008301527f726f2061646472657373000000000000000000000000000000000000000000006020830152604082019050919050565b6000612ccd602983613481565b91507f4552433732313a206f776e657220717565727920666f72206e6f6e657869737460008301527f656e7420746f6b656e00000000000000000000000000000000000000000000006020830152604082019050919050565b6000612d33602083613481565b91507f4552433732313a206d696e7420746f20746865207a65726f20616464726573736000830152602082019050919050565b6000612d73602c83613481565b91507f4552433732313a20617070726f76656420717565727920666f72206e6f6e657860008301527f697374656e7420746f6b656e00000000000000000000000000000000000000006020830152604082019050919050565b6000612dd9602083613481565b91507f4f776e61626c653a2063616c6c6572206973206e6f7420746865206f776e65726000830152602082019050919050565b6000612e19602983613481565b91507f4552433732313a207472616e73666572206f6620746f6b656e2074686174206960008301527f73206e6f74206f776e00000000000000000000000000000000000000000000006020830152604082019050919050565b6000612e7f602f83613481565b91507f4552433732314d657461646174613a2055524920717565727920666f72206e6f60008301527f6e6578697374656e7420746f6b656e00000000000000000000000000000000006020830152604082019050919050565b6000612ee5602183613481565b91507f4552433732313a20617070726f76616c20746f2063757272656e74206f776e6560008301527f72000000000000000000000000000000000000000000000000000000000000006020830152604082019050919050565b6000612f4b603183613481565b91507f4552433732313a207472616e736665722063616c6c6572206973206e6f74206f60008301527f776e6572206e6f7220617070726f7665640000000000000000000000000000006020830152604082019050919050565b60c082016000820151612fba6000850182613054565b506020820151612fcd6020850182613054565b506040820151612fe0604085018261301f565b506060820151612ff36060850182613054565b5060808201516130066080850182613054565b5060a082015161301960a0850182613054565b50505050565b6130288161361c565b82525050565b6130378161361c565b82525050565b61304e6130498261361c565b61373e565b82525050565b61305d81613626565b82525050565b600061306f82856129ab565b915061307b82846129ab565b91508190509392505050565b6000613093828661303d565b6020820191506130a382856128b5565b6014820191506130b3828461303d565b602082019150819050949350505050565b60006020820190506130d960008301846128a6565b92915050565b60006080820190506130f460008301876128a6565b61310160208301866128a6565b61310e604083018561302e565b81810360608301526131208184612939565b905095945050505050565b6000602082019050818103600083015261314581846128cc565b905092915050565b6000602082019050613162600083018461292a565b92915050565b600060208201905081810360008301526131828184612972565b905092915050565b600060208201905081810360008301526131a3816129dc565b9050919050565b600060208201905081810360008301526131c381612a42565b9050919050565b600060208201905081810360008301526131e381612aa8565b9050919050565b6000602082019050818103600083015261320381612ae8565b9050919050565b6000602082019050818103600083015261322381612b4e565b9050919050565b6000602082019050818103600083015261324381612b8e565b9050919050565b6000602082019050818103600083015261326381612bf4565b9050919050565b6000602082019050818103600083015261328381612c5a565b9050919050565b600060208201905081810360008301526132a381612cc0565b9050919050565b600060208201905081810360008301526132c381612d26565b9050919050565b600060208201905081810360008301526132e381612d66565b9050919050565b6000602082019050818103600083015261330381612dcc565b9050919050565b6000602082019050818103600083015261332381612e0c565b9050919050565b6000602082019050818103600083015261334381612e72565b9050919050565b6000602082019050818103600083015261336381612ed8565b9050919050565b6000602082019050818103600083015261338381612f3e565b9050919050565b600060c08201905061339f6000830184612fa4565b92915050565b60006020820190506133ba600083018461302e565b92915050565b6000604051905081810181811067ffffffffffffffff821117156133e7576133e6613806565b5b8060405250919050565b600067ffffffffffffffff82111561340c5761340b613806565b5b601f19601f8301169050602081019050919050565b6000819050602082019050919050565b600081519050919050565b600081519050919050565b600081519050919050565b6000602082019050919050565b600082825260208201905092915050565b600082825260208201905092915050565b600082825260208201905092915050565b600081905092915050565b60006134a88261361c565b91506134b38361361c565b9250827fffffffffffffffffffffffffffffffffffffffffffffffffffffffffffffffff038211156134e8576134e7613779565b5b828201905092915050565b60006134fe8261361c565b91506135098361361c565b925082613519576135186137a8565b5b828204905092915050565b600061352f8261361c565b915061353a8361361c565b9250817fffffffffffffffffffffffffffffffffffffffffffffffffffffffffffffffff048311821515161561357357613572613779565b5b828202905092915050565b60006135898261361c565b91506135948361361c565b9250828210156135a7576135a6613779565b5b828203905092915050565b60006135bd826135fc565b9050919050565b60008115159050919050565b60007fffffffff0000000000000000000000000000000000000000000000000000000082169050919050565b600073ffffffffffffffffffffffffffffffffffffffff82169050919050565b6000819050919050565b600060ff82169050919050565b82818337600083830152505050565b60005b83811015613660578082015181840152602081019050613645565b8381111561366f576000848401525b50505050565b6000600282049050600182168061368d57607f821691505b602082108114156136a1576136a06137d7565b5b50919050565b60006136b28261361c565b91507fffffffffffffffffffffffffffffffffffffffffffffffffffffffffffffffff8214156136e5576136e4613779565b5b600182019050919050565b60006136fb82613626565b915060ff82141561370f5761370e613779565b5b600182019050919050565b60006137258261372c565b9050919050565b600061373782613846565b9050919050565b6000819050919050565b60006137538261361c565b915061375e8361361c565b92508261376e5761376d6137a8565b5b828206905092915050565b7f4e487b7100000000000000000000000000000000000000000000000000000000600052601160045260246000fd5b7f4e487b7100000000000000000000000000000000000000000000000000000000600052601260045260246000fd5b7f4e487b7100000000000000000000000000000000000000000000000000000000600052602260045260246000fd5b7f4e487b7100000000000000000000000000000000000000000000000000000000600052604160045260246000fd5b6000601f19601f8301169050919050565b60008160601b9050919050565b61385c816135b2565b811461386757600080fd5b50565b613873816135c4565b811461387e57600080fd5b50565b61388a816135d0565b811461389557600080fd5b50565b6138a18161361c565b81146138ac57600080fd5b5056fea26469706673582212200a846652fd6a0089871c252fa24a94ba08f36fa8ba570d4299715c871ba8843864736f6c63430008000033",
  "immutableReferences": {},
  "source": "pragma solidity 0.8.0;\r\nimport \"../node_modules/@openzeppelin/contracts/token/ERC721/ERC721.sol\";\r\nimport \"../node_modules/@openzeppelin/contracts/access/Ownable.sol\";\r\n\r\n\r\ninterface MyCoin {\r\nfunction mintTLP(address to,uint256 amount) external;\r\n}\r\n\r\n\r\ncontract Char is ERC721, Ownable {\r\n\r\n\r\n    struct Face{\r\n        uint8 head;\r\n        uint8 eye;\r\n        uint256 eyebrow;\r\n        uint8 mount;\r\n        uint8 nose;\r\n        uint8 background;\r\n    }\r\n\r\n    uint256 nextId = 0;\r\n    uint8 randNonce = 0;\r\n\r\n    uint256 fee = 0.002 ether;\r\n\r\n\r\n\r\n\r\n    //string fees = 0.002;\r\n\r\n    uint attackVictoryProbability = 99;\r\n    mapping ( uint256 => Face) private _tokenDetails;\r\n    address myTokenAddress = 0x0176c767110458dB7eEE8dF1F234bbcFaEfB5900;\r\n\r\n    constructor( string memory name, string memory symbol)\r\n    ERC721(name, symbol){}\r\n\r\n    function updateFee(uint256 _fee) external onlyOwner(){\r\n        fee = _fee;\r\n    }\r\n\r\n    function withdraw() external payable onlyOwner(){\r\n        address payable _owner = payable(owner());\r\n        _owner.transfer(address(this).balance);\r\n    }\r\n\r\n\r\n   function mintToken(address _to, uint256 _tokenId, string calldata _uri) external onlyOwner {\r\n    _safeMint(_to, _tokenId);\r\n    //super._setTokenUri(_tokenId, _uri);\r\n  }\r\n\r\n   mapping (address => uint) balances;\r\n\r\n\r\n    function sendCoin(address receiver, uint amount)\r\n    public returns(bool success) {\r\n        if (balances[msg.sender] < amount) return false;\r\n        balances[msg.sender] -= amount;\r\n        balances[receiver] += amount;\r\n        emit Transfer(msg.sender, receiver, amount);\r\n        return true;    }\r\n\r\n    function mint() public payable {\r\n        uint8 x = 0;\r\n        while (x != 3) {\r\n\r\n        uint8 head = 1 ;\r\n        uint8 eye = 1 ;\r\n        uint256 eyebrow = 1 ;\r\n        uint8 mount = 1 ;\r\n        uint8 nose = 1 ;\r\n        uint8 background = 2 ;\r\n        uint ran_number = 0;\r\n        ran_number = randMod(100,3);\r\n        if (ran_number < 50) {head = 2; }\r\n         ran_number = randMod(100,10);\r\n        if (ran_number < 50) {eye = 2; }\r\n         ran_number = randMod(100,18);\r\n        if (ran_number < 50) {eyebrow = 2; }\r\n         ran_number = randMod(100,23);\r\n        if (ran_number < 50) {mount = 2; }\r\n         ran_number = randMod(100,65);\r\n        if (ran_number < 50) {nose = 2; }\r\n         ran_number = randMod(100,55);\r\n        if (ran_number > 85) {background = 1; }\r\n\r\n        _tokenDetails[nextId] = Face(head, eye, eyebrow, mount,nose,background);\r\n        _safeMint(msg.sender, nextId);\r\n\r\n        nextId++;\r\n        x++;\r\n         }\r\n    }\r\n\r\n    function randMod(uint8 _modulus,uint8 number) internal returns(uint256) {\r\n\r\n            uint256 ran_n = nextId * 73 * number;\r\n            uint256 abc = uint(keccak256(abi.encodePacked(block.timestamp, msg.sender,ran_n))) % _modulus;\r\n    return abc ;\r\n    }\r\n\r\n\r\n    // function gift(uint8 damage, uint8 magic, uint256 endurance,address _to) public payable onlyOwner() {\r\n    //     //require(msg.value >= fee );\r\n    //     _tokenDetails[nextId] = Pet(damage, magic, block.timestamp, endurance);\r\n    //     //_safeMint(_to, nextId);\r\n    //     _safeMint(msg.sender, nextId);\r\n    //     nextId++;\r\n    // }\r\n\r\n    function feed(uint256 tokenId) public{\r\n            Face storage face = _tokenDetails[tokenId];\r\n            //require(face.lastMeal + face.endurance > block.timestamp);\r\n            //face.eyebrow = block.timestamp;\r\n\r\n        }\r\n\r\n\r\n    //MyCoin public myCoin = new MyCoin(\"MyCoin\",\"COIN\");\r\n\r\n    function attack(uint256 tokenId) public payable{\r\n            require(msg.value != fee );\r\n            Face storage face = _tokenDetails[tokenId];\r\n            //require(face.lastMeal + face.endurance > block.timestamp);\r\n            uint rand = randMod(100,99);\r\n            //_mint(msg.sender,1000);\r\n            // if (rand <= attackVictoryProbability) {\r\n            //      face.damage = face.damage +10;\r\n            //      //myCoin.mintTLP(msg.sender,100);\r\n            //     MyCoin(myTokenAddress).mintTLP(msg.sender,22 * 10 ** 18);\r\n            // } else {\r\n            //      face.damage = face.damage -20;\r\n            // }\r\n\r\n        }\r\n\r\n\r\n    function _beforeTokenTransfer(address from, address to, uint256 tokenId) internal override {\r\n                Face storage face = _tokenDetails[nextId];\r\n                // require(face.lastMeal + face.endurance > block.timestamp);\r\n            }\r\n\r\n    function getTokenDetails(uint256 tokenId) public view returns (Face memory)\r\n                {\r\n                    return _tokenDetails[tokenId];\r\n                }\r\n\r\n    function getAllTokensForUser(address user) public view returns (uint256[] memory){\r\n                    uint256 tokenCount = balanceOf(user);\r\n                    if(tokenCount ==0){\r\n                        return new uint256[](0);\r\n\r\n                    }\r\n                    else{\r\n                        uint[] memory result = new uint256[](tokenCount);\r\n                        uint256 totalPets = nextId;\r\n                        uint256 resultIndex = 0;\r\n                        uint256 i;\r\n                        for (i =0; i< totalPets; i++){\r\n                            if(ownerOf(i) == user){\r\n                                result[resultIndex] = i;\r\n                                resultIndex++;\r\n                            }\r\n                        }\r\n                        return result;\r\n                    }\r\n\r\n                }\r\n}",
  "sourcePath": "C:\\Users\\admin\\PycharmProjects\\Arma\\contracts\\Char.sol",
  "compiler": {
    "name": "solc",
    "version": "0.8.0+commit.c7dfd78e.Emscripten.clang"
  },
  "schemaVersion": "3.4.3",
  "updatedAt": "2021-10-06T10:54:24.506Z",
  "networkType": "ethereum",
  "devdoc": {
    "kind": "dev",
    "methods": {
      "approve(address,uint256)": {
        "details": "See {IERC721-approve}."
      },
      "balanceOf(address)": {
        "details": "See {IERC721-balanceOf}."
      },
      "getApproved(uint256)": {
        "details": "See {IERC721-getApproved}."
      },
      "isApprovedForAll(address,address)": {
        "details": "See {IERC721-isApprovedForAll}."
      },
      "name()": {
        "details": "See {IERC721Metadata-name}."
      },
      "owner()": {
        "details": "Returns the address of the current owner."
      },
      "ownerOf(uint256)": {
        "details": "See {IERC721-ownerOf}."
      },
      "renounceOwnership()": {
        "details": "Leaves the contract without owner. It will not be possible to call `onlyOwner` functions anymore. Can only be called by the current owner. NOTE: Renouncing ownership will leave the contract without an owner, thereby removing any functionality that is only available to the owner."
      },
      "safeTransferFrom(address,address,uint256)": {
        "details": "See {IERC721-safeTransferFrom}."
      },
      "safeTransferFrom(address,address,uint256,bytes)": {
        "details": "See {IERC721-safeTransferFrom}."
      },
      "setApprovalForAll(address,bool)": {
        "details": "See {IERC721-setApprovalForAll}."
      },
      "supportsInterface(bytes4)": {
        "details": "See {IERC165-supportsInterface}."
      },
      "symbol()": {
        "details": "See {IERC721Metadata-symbol}."
      },
      "tokenURI(uint256)": {
        "details": "See {IERC721Metadata-tokenURI}."
      },
      "transferFrom(address,address,uint256)": {
        "details": "See {IERC721-transferFrom}."
      },
      "transferOwnership(address)": {
        "details": "Transfers ownership of the contract to a new account (`newOwner`). Can only be called by the current owner."
      }
    },
    "version": 1
  },
  "userdoc": {
    "kind": "user",
    "methods": {},
    "version": 1
  }
}