{
  "contractName": "Token",
  "abi": [
    {
      "inputs": [
        {
          "internalType": "string",
          "name": "name",
          "type": "string"
        },
        {
          "internalType": "string",
          "name": "symbol",
          "type": "string"
        }
      ],
      "stateMutability": "nonpayable",
      "type": "constructor"
    },
    {
      "anonymous": false,
      "inputs": [
        {
          "indexed": true,
          "internalType": "address",
          "name": "owner",
          "type": "address"
        },
        {
          "indexed": true,
          "internalType": "address",
          "name": "approved",
          "type": "address"
        },
        {
          "indexed": true,
          "internalType": "uint256",
          "name": "tokenId",
          "type": "uint256"
        }
      ],
      "name": "Approval",
      "type": "event"
    },
    {
      "anonymous": false,
      "inputs": [
        {
          "indexed": true,
          "internalType": "address",
          "name": "owner",
          "type": "address"
        },
        {
          "indexed": true,
          "internalType": "address",
          "name": "operator",
          "type": "address"
        },
        {
          "indexed": false,
          "internalType": "bool",
          "name": "approved",
          "type": "bool"
        }
      ],
      "name": "ApprovalForAll",
      "type": "event"
    },
    {
      "anonymous": false,
      "inputs": [
        {
          "indexed": true,
          "internalType": "address",
          "name": "previousOwner",
          "type": "address"
        },
        {
          "indexed": true,
          "internalType": "address",
          "name": "newOwner",
          "type": "address"
        }
      ],
      "name": "OwnershipTransferred",
      "type": "event"
    },
    {
      "anonymous": false,
      "inputs": [
        {
          "indexed": true,
          "internalType": "address",
          "name": "from",
          "type": "address"
        },
        {
          "indexed": true,
          "internalType": "address",
          "name": "to",
          "type": "address"
        },
        {
          "indexed": true,
          "internalType": "uint256",
          "name": "tokenId",
          "type": "uint256"
        }
      ],
      "name": "Transfer",
      "type": "event"
    },
    {
      "inputs": [
        {
          "internalType": "address",
          "name": "to",
          "type": "address"
        },
        {
          "internalType": "uint256",
          "name": "tokenId",
          "type": "uint256"
        }
      ],
      "name": "approve",
      "outputs": [],
      "stateMutability": "nonpayable",
      "type": "function"
    },
    {
      "inputs": [
        {
          "internalType": "address",
          "name": "owner",
          "type": "address"
        }
      ],
      "name": "balanceOf",
      "outputs": [
        {
          "internalType": "uint256",
          "name": "",
          "type": "uint256"
        }
      ],
      "stateMutability": "view",
      "type": "function"
    },
    {
      "inputs": [
        {
          "internalType": "uint256",
          "name": "tokenId",
          "type": "uint256"
        }
      ],
      "name": "getApproved",
      "outputs": [
        {
          "internalType": "address",
          "name": "",
          "type": "address"
        }
      ],
      "stateMutability": "view",
      "type": "function"
    },
    {
      "inputs": [
        {
          "internalType": "address",
          "name": "owner",
          "type": "address"
        },
        {
          "internalType": "address",
          "name": "operator",
          "type": "address"
        }
      ],
      "name": "isApprovedForAll",
      "outputs": [
        {
          "internalType": "bool",
          "name": "",
          "type": "bool"
        }
      ],
      "stateMutability": "view",
      "type": "function"
    },
    {
      "inputs": [],
      "name": "name",
      "outputs": [
        {
          "internalType": "string",
          "name": "",
          "type": "string"
        }
      ],
      "stateMutability": "view",
      "type": "function"
    },
    {
      "inputs": [],
      "name": "owner",
      "outputs": [
        {
          "internalType": "address",
          "name": "",
          "type": "address"
        }
      ],
      "stateMutability": "view",
      "type": "function"
    },
    {
      "inputs": [
        {
          "internalType": "uint256",
          "name": "tokenId",
          "type": "uint256"
        }
      ],
      "name": "ownerOf",
      "outputs": [
        {
          "internalType": "address",
          "name": "",
          "type": "address"
        }
      ],
      "stateMutability": "view",
      "type": "function"
    },
    {
      "inputs": [],
      "name": "renounceOwnership",
      "outputs": [],
      "stateMutability": "nonpayable",
      "type": "function"
    },
    {
      "inputs": [
        {
          "internalType": "address",
          "name": "from",
          "type": "address"
        },
        {
          "internalType": "address",
          "name": "to",
          "type": "address"
        },
        {
          "internalType": "uint256",
          "name": "tokenId",
          "type": "uint256"
        }
      ],
      "name": "safeTransferFrom",
      "outputs": [],
      "stateMutability": "nonpayable",
      "type": "function"
    },
    {
      "inputs": [
        {
          "internalType": "address",
          "name": "from",
          "type": "address"
        },
        {
          "internalType": "address",
          "name": "to",
          "type": "address"
        },
        {
          "internalType": "uint256",
          "name": "tokenId",
          "type": "uint256"
        },
        {
          "internalType": "bytes",
          "name": "_data",
          "type": "bytes"
        }
      ],
      "name": "safeTransferFrom",
      "outputs": [],
      "stateMutability": "nonpayable",
      "type": "function"
    },
    {
      "inputs": [
        {
          "internalType": "address",
          "name": "operator",
          "type": "address"
        },
        {
          "internalType": "bool",
          "name": "approved",
          "type": "bool"
        }
      ],
      "name": "setApprovalForAll",
      "outputs": [],
      "stateMutability": "nonpayable",
      "type": "function"
    },
    {
      "inputs": [
        {
          "internalType": "bytes4",
          "name": "interfaceId",
          "type": "bytes4"
        }
      ],
      "name": "supportsInterface",
      "outputs": [
        {
          "internalType": "bool",
          "name": "",
          "type": "bool"
        }
      ],
      "stateMutability": "view",
      "type": "function"
    },
    {
      "inputs": [],
      "name": "symbol",
      "outputs": [
        {
          "internalType": "string",
          "name": "",
          "type": "string"
        }
      ],
      "stateMutability": "view",
      "type": "function"
    },
    {
      "inputs": [
        {
          "internalType": "uint256",
          "name": "tokenId",
          "type": "uint256"
        }
      ],
      "name": "tokenURI",
      "outputs": [
        {
          "internalType": "string",
          "name": "",
          "type": "string"
        }
      ],
      "stateMutability": "view",
      "type": "function"
    },
    {
      "inputs": [
        {
          "internalType": "address",
          "name": "from",
          "type": "address"
        },
        {
          "internalType": "address",
          "name": "to",
          "type": "address"
        },
        {
          "internalType": "uint256",
          "name": "tokenId",
          "type": "uint256"
        }
      ],
      "name": "transferFrom",
      "outputs": [],
      "stateMutability": "nonpayable",
      "type": "function"
    },
    {
      "inputs": [
        {
          "internalType": "address",
          "name": "newOwner",
          "type": "address"
        }
      ],
      "name": "transferOwnership",
      "outputs": [],
      "stateMutability": "nonpayable",
      "type": "function"
    },
    {
      "inputs": [
        {
          "internalType": "uint256",
          "name": "_fee",
          "type": "uint256"
        }
      ],
      "name": "updateFee",
      "outputs": [],
      "stateMutability": "nonpayable",
      "type": "function"
    },
    {
      "inputs": [],
      "name": "withdraw",
      "outputs": [],
      "stateMutability": "payable",
      "type": "function"
    },
    {
      "inputs": [
        {
          "internalType": "address",
          "name": "_to",
          "type": "address"
        },
        {
          "internalType": "uint256",
          "name": "_tokenId",
          "type": "uint256"
        },
        {
          "internalType": "string",
          "name": "_uri",
          "type": "string"
        }
      ],
      "name": "mintToken",
      "outputs": [],
      "stateMutability": "nonpayable",
      "type": "function"
    },
    {
      "inputs": [
        {
          "internalType": "address",
          "name": "receiver",
          "type": "address"
        },
        {
          "internalType": "uint256",
          "name": "amount",
          "type": "uint256"
        }
      ],
      "name": "sendCoin",
      "outputs": [
        {
          "internalType": "bool",
          "name": "success",
          "type": "bool"
        }
      ],
      "stateMutability": "nonpayable",
      "type": "function"
    },
    {
      "inputs": [
        {
          "internalType": "uint8",
          "name": "damage",
          "type": "uint8"
        },
        {
          "internalType": "uint8",
          "name": "magic",
          "type": "uint8"
        },
        {
          "internalType": "uint256",
          "name": "endurance",
          "type": "uint256"
        }
      ],
      "name": "mint",
      "outputs": [],
      "stateMutability": "payable",
      "type": "function"
    },
    {
      "inputs": [
        {
          "internalType": "uint256",
          "name": "tokenId",
          "type": "uint256"
        }
      ],
      "name": "feed",
      "outputs": [],
      "stateMutability": "nonpayable",
      "type": "function"
    },
    {
      "inputs": [
        {
          "internalType": "uint256",
          "name": "tokenId",
          "type": "uint256"
        }
      ],
      "name": "attack",
      "outputs": [],
      "stateMutability": "payable",
      "type": "function"
    },
    {
      "inputs": [
        {
          "internalType": "uint256",
          "name": "tokenId",
          "type": "uint256"
        }
      ],
      "name": "getTokenDetails",
      "outputs": [
        {
          "components": [
            {
              "internalType": "uint8",
              "name": "damage",
              "type": "uint8"
            },
            {
              "internalType": "uint8",
              "name": "magic",
              "type": "uint8"
            },
            {
              "internalType": "uint256",
              "name": "lastMeal",
              "type": "uint256"
            },
            {
              "internalType": "uint256",
              "name": "endurance",
              "type": "uint256"
            },
            {
              "internalType": "uint8",
              "name": "rare",
              "type": "uint8"
            },
            {
              "internalType": "uint8",
              "name": "legs",
              "type": "uint8"
            },
            {
              "internalType": "uint8",
              "name": "wing",
              "type": "uint8"
            },
            {
              "internalType": "uint8",
              "name": "tail",
              "type": "uint8"
            }
          ],
          "internalType": "struct Token.Pet",
          "name": "",
          "type": "tuple"
        }
      ],
      "stateMutability": "view",
      "type": "function"
    },
    {
      "inputs": [
        {
          "internalType": "address",
          "name": "user",
          "type": "address"
        }
      ],
      "name": "getAllTokensForUser",
      "outputs": [
        {
          "internalType": "uint256[]",
          "name": "",
          "type": "uint256[]"
        }
      ],
      "stateMutability": "view",
      "type": "function"
    }
  ],
  "bytecode": "0x608060405260006007556000600860006101000a81548160ff021916908360ff16021790555066071afd498d00006009556063600a55730176c767110458db7eee8df1f234bbcfaefb5900600c60006101000a81548173ffffffffffffffffffffffffffffffffffffffff021916908373ffffffffffffffffffffffffffffffffffffffff1602179055503480156200009757600080fd5b50604051620040b8380380620040b88339818101604052810190620000bd91906200030b565b81818160009080519060200190620000d7929190620001e9565b508060019080519060200190620000f0929190620001e9565b50505062000113620001076200011b60201b60201c565b6200012360201b60201c565b5050620004af565b600033905090565b6000600660009054906101000a900473ffffffffffffffffffffffffffffffffffffffff16905081600660006101000a81548173ffffffffffffffffffffffffffffffffffffffff021916908373ffffffffffffffffffffffffffffffffffffffff1602179055508173ffffffffffffffffffffffffffffffffffffffff168173ffffffffffffffffffffffffffffffffffffffff167f8be0079c531659141344cd1fd0a4f28419497f9722a3daafe3b4186f6b6457e060405160405180910390a35050565b828054620001f7906200041b565b90600052602060002090601f0160209004810192826200021b576000855562000267565b82601f106200023657805160ff191683800117855562000267565b8280016001018555821562000267579182015b828111156200026657825182559160200191906001019062000249565b5b5090506200027691906200027a565b5090565b5b80821115620002955760008160009055506001016200027b565b5090565b6000620002b0620002aa84620003b2565b6200037e565b905082815260208101848484011115620002c957600080fd5b620002d6848285620003e5565b509392505050565b600082601f830112620002f057600080fd5b81516200030284826020860162000299565b91505092915050565b600080604083850312156200031f57600080fd5b600083015167ffffffffffffffff8111156200033a57600080fd5b6200034885828601620002de565b925050602083015167ffffffffffffffff8111156200036657600080fd5b6200037485828601620002de565b9150509250929050565b6000604051905081810181811067ffffffffffffffff82111715620003a857620003a762000480565b5b8060405250919050565b600067ffffffffffffffff821115620003d057620003cf62000480565b5b601f19601f8301169050602081019050919050565b60005b8381101562000405578082015181840152602081019050620003e8565b8381111562000415576000848401525b50505050565b600060028204905060018216806200043457607f821691505b602082108114156200044b576200044a62000451565b5b50919050565b7f4e487b7100000000000000000000000000000000000000000000000000000000600052602260045260246000fd5b7f4e487b7100000000000000000000000000000000000000000000000000000000600052604160045260246000fd5b613bf980620004bf6000396000f3fe6080604052600436106101665760003560e01c80638da5cb5b116100d1578063c1e037281161008a578063eb22ed3211610064578063eb22ed3214610544578063f2fde38b14610560578063f59dfdfb14610589578063f76e8ba9146105b257610166565b8063c1e037281461048d578063c87b56dd146104ca578063e985e9c51461050757610166565b80638da5cb5b1461037f5780639012c4a8146103aa57806390b98a11146103d357806395d89b4114610410578063a22cb4651461043b578063b88d4fde1461046457610166565b806342842e0e1161012357806342842e0e1461026c5780636352211e1461029557806364dd891a146102d257806370a08231146102ee578063715018a61461032b57806382de8fe91461034257610166565b806301ffc9a71461016b57806306fdde03146101a8578063081812fc146101d3578063095ea7b31461021057806323b872dd146102395780633ccfd60b14610262575b600080fd5b34801561017757600080fd5b50610192600480360381019061018d9190612a0e565b6105db565b60405161019f91906133f6565b60405180910390f35b3480156101b457600080fd5b506101bd6106bd565b6040516101ca9190613411565b60405180910390f35b3480156101df57600080fd5b506101fa60048036038101906101f59190612a60565b61074f565b6040516102079190613344565b60405180910390f35b34801561021c57600080fd5b5061023760048036038101906102329190612966565b6107d4565b005b34801561024557600080fd5b50610260600480360381019061025b9190612860565b6108ec565b005b61026a61094c565b005b34801561027857600080fd5b50610293600480360381019061028e9190612860565b610a1e565b005b3480156102a157600080fd5b506102bc60048036038101906102b79190612a60565b610a3e565b6040516102c99190613344565b60405180910390f35b6102ec60048036038101906102e79190612a60565b610af0565b005b3480156102fa57600080fd5b50610315600480360381019061031091906127fb565b610c63565b604051610322919061364f565b60405180910390f35b34801561033757600080fd5b50610340610d1b565b005b34801561034e57600080fd5b50610369600480360381019061036491906127fb565b610da3565b60405161037691906133d4565b60405180910390f35b34801561038b57600080fd5b50610394610f6b565b6040516103a19190613344565b60405180910390f35b3480156103b657600080fd5b506103d160048036038101906103cc9190612a60565b610f95565b005b3480156103df57600080fd5b506103fa60048036038101906103f59190612966565b61101b565b60405161040791906133f6565b60405180910390f35b34801561041c57600080fd5b5061042561117f565b6040516104329190613411565b60405180910390f35b34801561044757600080fd5b50610462600480360381019061045d919061292a565b611211565b005b34801561047057600080fd5b5061048b600480360381019061048691906128af565b611392565b005b34801561049957600080fd5b506104b460048036038101906104af9190612a60565b6113f4565b6040516104c19190613633565b60405180910390f35b3480156104d657600080fd5b506104f160048036038101906104ec9190612a60565b6114e4565b6040516104fe9190613411565b60405180910390f35b34801561051357600080fd5b5061052e60048036038101906105299190612824565b61158b565b60405161053b91906133f6565b60405180910390f35b61055e60048036038101906105599190612a89565b61161f565b005b34801561056c57600080fd5b50610587600480360381019061058291906127fb565b611869565b005b34801561059557600080fd5b506105b060048036038101906105ab9190612a60565b611961565b005b3480156105be57600080fd5b506105d960048036038101906105d491906129a2565b6119a4565b005b60007f80ac58cd000000000000000000000000000000000000000000000000000000007bffffffffffffffffffffffffffffffffffffffffffffffffffffffff1916827bffffffffffffffffffffffffffffffffffffffffffffffffffffffff191614806106a657507f5b5e139f000000000000000000000000000000000000000000000000000000007bffffffffffffffffffffffffffffffffffffffffffffffffffffffff1916827bffffffffffffffffffffffffffffffffffffffffffffffffffffffff1916145b806106b657506106b582611a30565b5b9050919050565b6060600080546106cc9061399c565b80601f01602080910402602001604051908101604052809291908181526020018280546106f89061399c565b80156107455780601f1061071a57610100808354040283529160200191610745565b820191906000526020600020905b81548152906001019060200180831161072857829003601f168201915b5050505050905090565b600061075a82611a9a565b610799576040517f08c379a000000000000000000000000000000000000000000000000000000000815260040161079090613573565b60405180910390fd5b6004600083815260200190815260200160002060009054906101000a900473ffffffffffffffffffffffffffffffffffffffff169050919050565b60006107df82610a3e565b90508073ffffffffffffffffffffffffffffffffffffffff168373ffffffffffffffffffffffffffffffffffffffff161415610850576040517f08c379a0000000000000000000000000000000000000000000000000000000008152600401610847906135f3565b60405180910390fd5b8073ffffffffffffffffffffffffffffffffffffffff1661086f611b06565b73ffffffffffffffffffffffffffffffffffffffff16148061089e575061089d81610898611b06565b61158b565b5b6108dd576040517f08c379a00000000000000000000000000000000000000000000000000000000081526004016108d4906134f3565b60405180910390fd5b6108e78383611b0e565b505050565b6108fd6108f7611b06565b82611bc7565b61093c576040517f08c379a000000000000000000000000000000000000000000000000000000000815260040161093390613613565b60405180910390fd5b610947838383611ca5565b505050565b610954611b06565b73ffffffffffffffffffffffffffffffffffffffff16610972610f6b565b73ffffffffffffffffffffffffffffffffffffffff16146109c8576040517f08c379a00000000000000000000000000000000000000000000000000000000081526004016109bf90613593565b60405180910390fd5b60006109d2610f6b565b90508073ffffffffffffffffffffffffffffffffffffffff166108fc479081150290604051600060405180830381858888f19350505050158015610a1a573d6000803e3d6000fd5b5050565b610a3983838360405180602001604052806000815250611392565b505050565b6000806002600084815260200190815260200160002060009054906101000a900473ffffffffffffffffffffffffffffffffffffffff169050600073ffffffffffffffffffffffffffffffffffffffff168173ffffffffffffffffffffffffffffffffffffffff161415610ae7576040517f08c379a0000000000000000000000000000000000000000000000000000000008152600401610ade90613533565b60405180910390fd5b80915050919050565b600954341415610aff57600080fd5b6000600b600083815260200190815260200160002090504281600201548260010154610b2b9190613747565b11610b3557600080fd5b6000610b416064611f01565b9050600a548111610c2357600a8260000160009054906101000a900460ff16610b6a919061379d565b8260000160006101000a81548160ff021916908360ff160217905550600c60009054906101000a900473ffffffffffffffffffffffffffffffffffffffff1673ffffffffffffffffffffffffffffffffffffffff16639c02a8dd336801314fb370629800006040518363ffffffff1660e01b8152600401610bec9291906133ab565b600060405180830381600087803b158015610c0657600080fd5b505af1158015610c1a573d6000803e3d6000fd5b50505050610c5e565b60148260000160009054906101000a900460ff16610c419190613893565b8260000160006101000a81548160ff021916908360ff1602179055505b505050565b60008073ffffffffffffffffffffffffffffffffffffffff168273ffffffffffffffffffffffffffffffffffffffff161415610cd4576040517f08c379a0000000000000000000000000000000000000000000000000000000008152600401610ccb90613513565b60405180910390fd5b600360008373ffffffffffffffffffffffffffffffffffffffff1673ffffffffffffffffffffffffffffffffffffffff168152602001908152602001600020549050919050565b610d23611b06565b73ffffffffffffffffffffffffffffffffffffffff16610d41610f6b565b73ffffffffffffffffffffffffffffffffffffffff1614610d97576040517f08c379a0000000000000000000000000000000000000000000000000000000008152600401610d8e90613593565b60405180910390fd5b610da16000611f5f565b565b60606000610db083610c63565b90506000811415610e3357600067ffffffffffffffff811115610dfc577f4e487b7100000000000000000000000000000000000000000000000000000000600052604160045260246000fd5b604051908082528060200260200182016040528015610e2a5781602001602082028036833780820191505090505b50915050610f66565b60008167ffffffffffffffff811115610e75577f4e487b7100000000000000000000000000000000000000000000000000000000600052604160045260246000fd5b604051908082528060200260200182016040528015610ea35781602001602082028036833780820191505090505b509050600060075490506000805b82811015610f5d578673ffffffffffffffffffffffffffffffffffffffff16610ed982610a3e565b73ffffffffffffffffffffffffffffffffffffffff161415610f4a5780848381518110610f2f577f4e487b7100000000000000000000000000000000000000000000000000000000600052603260045260246000fd5b6020026020010181815250508180610f46906139ce565b9250505b8080610f55906139ce565b915050610eb1565b83955050505050505b919050565b6000600660009054906101000a900473ffffffffffffffffffffffffffffffffffffffff16905090565b610f9d611b06565b73ffffffffffffffffffffffffffffffffffffffff16610fbb610f6b565b73ffffffffffffffffffffffffffffffffffffffff1614611011576040517f08c379a000000000000000000000000000000000000000000000000000000000815260040161100890613593565b60405180910390fd5b8060098190555050565b600081600d60003373ffffffffffffffffffffffffffffffffffffffff1673ffffffffffffffffffffffffffffffffffffffff16815260200190815260200160002054101561106d5760009050611179565b81600d60003373ffffffffffffffffffffffffffffffffffffffff1673ffffffffffffffffffffffffffffffffffffffff16815260200190815260200160002060008282546110bc919061385f565b9250508190555081600d60008573ffffffffffffffffffffffffffffffffffffffff1673ffffffffffffffffffffffffffffffffffffffff16815260200190815260200160002060008282546111129190613747565b92505081905550818373ffffffffffffffffffffffffffffffffffffffff163373ffffffffffffffffffffffffffffffffffffffff167fddf252ad1be2c89b69c2b068fc378daa952ba7f163c4a11628f55a4df523b3ef60405160405180910390a4600190505b92915050565b60606001805461118e9061399c565b80601f01602080910402602001604051908101604052809291908181526020018280546111ba9061399c565b80156112075780601f106111dc57610100808354040283529160200191611207565b820191906000526020600020905b8154815290600101906020018083116111ea57829003601f168201915b5050505050905090565b611219611b06565b73ffffffffffffffffffffffffffffffffffffffff168273ffffffffffffffffffffffffffffffffffffffff161415611287576040517f08c379a000000000000000000000000000000000000000000000000000000000815260040161127e906134b3565b60405180910390fd5b8060056000611294611b06565b73ffffffffffffffffffffffffffffffffffffffff1673ffffffffffffffffffffffffffffffffffffffff16815260200190815260200160002060008473ffffffffffffffffffffffffffffffffffffffff1673ffffffffffffffffffffffffffffffffffffffff16815260200190815260200160002060006101000a81548160ff0219169083151502179055508173ffffffffffffffffffffffffffffffffffffffff16611341611b06565b73ffffffffffffffffffffffffffffffffffffffff167f17307eab39ab6107e8899845ad3d59bd9653f200f220920489ca2b5937696c318360405161138691906133f6565b60405180910390a35050565b6113a361139d611b06565b83611bc7565b6113e2576040517f08c379a00000000000000000000000000000000000000000000000000000000081526004016113d990613613565b60405180910390fd5b6113ee84848484612025565b50505050565b6113fc612674565b600b6000838152602001908152602001600020604051806101000160405290816000820160009054906101000a900460ff1660ff1660ff1681526020016000820160019054906101000a900460ff1660ff1660ff16815260200160018201548152602001600282015481526020016003820160009054906101000a900460ff1660ff1660ff1681526020016003820160019054906101000a900460ff1660ff1660ff1681526020016003820160029054906101000a900460ff1660ff1660ff1681526020016003820160039054906101000a900460ff1660ff1660ff16815250509050919050565b60606114ef82611a9a565b61152e576040517f08c379a0000000000000000000000000000000000000000000000000000000008152600401611525906135d3565b60405180910390fd5b6000611538612081565b905060008151116115585760405180602001604052806000815250611583565b8061156284612098565b6040516020016115739291906132e3565b6040516020818303038152906040525b915050919050565b6000600560008473ffffffffffffffffffffffffffffffffffffffff1673ffffffffffffffffffffffffffffffffffffffff16815260200190815260200160002060008373ffffffffffffffffffffffffffffffffffffffff1673ffffffffffffffffffffffffffffffffffffffff16815260200190815260200160002060009054906101000a900460ff16905092915050565b60095434141561162e57600080fd5b600061163a6064611f01565b90506000603282101561165057600190506116a9565b6032821180156116605750605082105b1561166e57600290506116a8565b60508211801561167e5750605f82105b1561168c57600390506116a7565b605f8211801561169c5750606482105b156116a657600490505b5b5b5b6116b36050611f01565b9150600060328310156116c557600190505b6116cf6046611f01565b9250600060328410156116e157600190505b6116eb603c611f01565b9350600060328510156116fd57600190505b6040518061010001604052808960ff1681526020018860ff1681526020014281526020018781526020018560ff1681526020018460ff1681526020018360ff1681526020018260ff16815250600b6000600754815260200190815260200160002060008201518160000160006101000a81548160ff021916908360ff16021790555060208201518160000160016101000a81548160ff021916908360ff160217905550604082015181600101556060820151816002015560808201518160030160006101000a81548160ff021916908360ff16021790555060a08201518160030160016101000a81548160ff021916908360ff16021790555060c08201518160030160026101000a81548160ff021916908360ff16021790555060e08201518160030160036101000a81548160ff021916908360ff16021790555090505061184733600754612245565b6007600081548092919061185a906139ce565b91905055505050505050505050565b611871611b06565b73ffffffffffffffffffffffffffffffffffffffff1661188f610f6b565b73ffffffffffffffffffffffffffffffffffffffff16146118e5576040517f08c379a00000000000000000000000000000000000000000000000000000000081526004016118dc90613593565b60405180910390fd5b600073ffffffffffffffffffffffffffffffffffffffff168173ffffffffffffffffffffffffffffffffffffffff161415611955576040517f08c379a000000000000000000000000000000000000000000000000000000000815260040161194c90613453565b60405180910390fd5b61195e81611f5f565b50565b6000600b60008381526020019081526020016000209050428160020154826001015461198d9190613747565b1161199757600080fd5b4281600101819055505050565b6119ac611b06565b73ffffffffffffffffffffffffffffffffffffffff166119ca610f6b565b73ffffffffffffffffffffffffffffffffffffffff1614611a20576040517f08c379a0000000000000000000000000000000000000000000000000000000008152600401611a1790613593565b60405180910390fd5b611a2a8484612245565b50505050565b60007f01ffc9a7000000000000000000000000000000000000000000000000000000007bffffffffffffffffffffffffffffffffffffffffffffffffffffffff1916827bffffffffffffffffffffffffffffffffffffffffffffffffffffffff1916149050919050565b60008073ffffffffffffffffffffffffffffffffffffffff166002600084815260200190815260200160002060009054906101000a900473ffffffffffffffffffffffffffffffffffffffff1673ffffffffffffffffffffffffffffffffffffffff1614159050919050565b600033905090565b816004600083815260200190815260200160002060006101000a81548173ffffffffffffffffffffffffffffffffffffffff021916908373ffffffffffffffffffffffffffffffffffffffff160217905550808273ffffffffffffffffffffffffffffffffffffffff16611b8183610a3e565b73ffffffffffffffffffffffffffffffffffffffff167f8c5be1e5ebec7d5bd14f71427d1e84f3dd0314c0f7b2291e5b200ac8c7c3b92560405160405180910390a45050565b6000611bd282611a9a565b611c11576040517f08c379a0000000000000000000000000000000000000000000000000000000008152600401611c08906134d3565b60405180910390fd5b6000611c1c83610a3e565b90508073ffffffffffffffffffffffffffffffffffffffff168473ffffffffffffffffffffffffffffffffffffffff161480611c8b57508373ffffffffffffffffffffffffffffffffffffffff16611c738461074f565b73ffffffffffffffffffffffffffffffffffffffff16145b80611c9c5750611c9b818561158b565b5b91505092915050565b8273ffffffffffffffffffffffffffffffffffffffff16611cc582610a3e565b73ffffffffffffffffffffffffffffffffffffffff1614611d1b576040517f08c379a0000000000000000000000000000000000000000000000000000000008152600401611d12906135b3565b60405180910390fd5b600073ffffffffffffffffffffffffffffffffffffffff168273ffffffffffffffffffffffffffffffffffffffff161415611d8b576040517f08c379a0000000000000000000000000000000000000000000000000000000008152600401611d8290613493565b60405180910390fd5b611d96838383612263565b611da1600082611b0e565b6001600360008573ffffffffffffffffffffffffffffffffffffffff1673ffffffffffffffffffffffffffffffffffffffff1681526020019081526020016000206000828254611df1919061385f565b925050819055506001600360008473ffffffffffffffffffffffffffffffffffffffff1673ffffffffffffffffffffffffffffffffffffffff1681526020019081526020016000206000828254611e489190613747565b92505081905550816002600083815260200190815260200160002060006101000a81548173ffffffffffffffffffffffffffffffffffffffff021916908373ffffffffffffffffffffffffffffffffffffffff160217905550808273ffffffffffffffffffffffffffffffffffffffff168473ffffffffffffffffffffffffffffffffffffffff167fddf252ad1be2c89b69c2b068fc378daa952ba7f163c4a11628f55a4df523b3ef60405160405180910390a4505050565b6000806049600754611f139190613805565b905060008360ff16423384604051602001611f3093929190613307565b6040516020818303038152906040528051906020012060001c611f539190613a45565b90508092505050919050565b6000600660009054906101000a900473ffffffffffffffffffffffffffffffffffffffff16905081600660006101000a81548173ffffffffffffffffffffffffffffffffffffffff021916908373ffffffffffffffffffffffffffffffffffffffff1602179055508173ffffffffffffffffffffffffffffffffffffffff168173ffffffffffffffffffffffffffffffffffffffff167f8be0079c531659141344cd1fd0a4f28419497f9722a3daafe3b4186f6b6457e060405160405180910390a35050565b612030848484611ca5565b61203c848484846122a1565b61207b576040517f08c379a000000000000000000000000000000000000000000000000000000000815260040161207290613433565b60405180910390fd5b50505050565b606060405180602001604052806000815250905090565b606060008214156120e0576040518060400160405280600181526020017f30000000000000000000000000000000000000000000000000000000000000008152509050612240565b600082905060005b600082146121125780806120fb906139ce565b915050600a8261210b91906137d4565b91506120e8565b60008167ffffffffffffffff811115612154577f4e487b7100000000000000000000000000000000000000000000000000000000600052604160045260246000fd5b6040519080825280601f01601f1916602001820160405280156121865781602001600182028036833780820191505090505b5090505b600085146122395760018261219f919061385f565b9150600a856121ae9190613a45565b60306121ba9190613747565b60f81b8183815181106121f6577f4e487b7100000000000000000000000000000000000000000000000000000000600052603260045260246000fd5b60200101907effffffffffffffffffffffffffffffffffffffffffffffffffffffffffffff1916908160001a905350600a8561223291906137d4565b945061218a565b8093505050505b919050565b61225f828260405180602001604052806000815250612438565b5050565b6000600b60006007548152602001908152602001600020905042816002015482600101546122919190613747565b1161229b57600080fd5b50505050565b60006122c28473ffffffffffffffffffffffffffffffffffffffff16612493565b1561242b578373ffffffffffffffffffffffffffffffffffffffff1663150b7a026122eb611b06565b8786866040518563ffffffff1660e01b815260040161230d949392919061335f565b602060405180830381600087803b15801561232757600080fd5b505af192505050801561235857506040513d601f19601f820116820180604052508101906123559190612a37565b60015b6123db573d8060008114612388576040519150601f19603f3d011682016040523d82523d6000602084013e61238d565b606091505b506000815114156123d3576040517f08c379a00000000000000000000000000000000000000000000000000000000081526004016123ca90613433565b60405180910390fd5b805181602001fd5b63150b7a0260e01b7bffffffffffffffffffffffffffffffffffffffffffffffffffffffff1916817bffffffffffffffffffffffffffffffffffffffffffffffffffffffff191614915050612430565b600190505b949350505050565b61244283836124a6565b61244f60008484846122a1565b61248e576040517f08c379a000000000000000000000000000000000000000000000000000000000815260040161248590613433565b60405180910390fd5b505050565b600080823b905060008111915050919050565b600073ffffffffffffffffffffffffffffffffffffffff168273ffffffffffffffffffffffffffffffffffffffff161415612516576040517f08c379a000000000000000000000000000000000000000000000000000000000815260040161250d90613553565b60405180910390fd5b61251f81611a9a565b1561255f576040517f08c379a000000000000000000000000000000000000000000000000000000000815260040161255690613473565b60405180910390fd5b61256b60008383612263565b6001600360008473ffffffffffffffffffffffffffffffffffffffff1673ffffffffffffffffffffffffffffffffffffffff16815260200190815260200160002060008282546125bb9190613747565b92505081905550816002600083815260200190815260200160002060006101000a81548173ffffffffffffffffffffffffffffffffffffffff021916908373ffffffffffffffffffffffffffffffffffffffff160217905550808273ffffffffffffffffffffffffffffffffffffffff16600073ffffffffffffffffffffffffffffffffffffffff167fddf252ad1be2c89b69c2b068fc378daa952ba7f163c4a11628f55a4df523b3ef60405160405180910390a45050565b604051806101000160405280600060ff168152602001600060ff1681526020016000815260200160008152602001600060ff168152602001600060ff168152602001600060ff168152602001600060ff1681525090565b60006126de6126d98461369b565b61366a565b9050828152602081018484840111156126f657600080fd5b61270184828561395a565b509392505050565b60008135905061271881613b50565b92915050565b60008135905061272d81613b67565b92915050565b60008135905061274281613b7e565b92915050565b60008151905061275781613b7e565b92915050565b600082601f83011261276e57600080fd5b813561277e8482602086016126cb565b91505092915050565b60008083601f84011261279957600080fd5b8235905067ffffffffffffffff8111156127b257600080fd5b6020830191508360018202830111156127ca57600080fd5b9250929050565b6000813590506127e081613b95565b92915050565b6000813590506127f581613bac565b92915050565b60006020828403121561280d57600080fd5b600061281b84828501612709565b91505092915050565b6000806040838503121561283757600080fd5b600061284585828601612709565b925050602061285685828601612709565b9150509250929050565b60008060006060848603121561287557600080fd5b600061288386828701612709565b935050602061289486828701612709565b92505060406128a5868287016127d1565b9150509250925092565b600080600080608085870312156128c557600080fd5b60006128d387828801612709565b94505060206128e487828801612709565b93505060406128f5878288016127d1565b925050606085013567ffffffffffffffff81111561291257600080fd5b61291e8782880161275d565b91505092959194509250565b6000806040838503121561293d57600080fd5b600061294b85828601612709565b925050602061295c8582860161271e565b9150509250929050565b6000806040838503121561297957600080fd5b600061298785828601612709565b9250506020612998858286016127d1565b9150509250929050565b600080600080606085870312156129b857600080fd5b60006129c687828801612709565b94505060206129d7878288016127d1565b935050604085013567ffffffffffffffff8111156129f457600080fd5b612a0087828801612787565b925092505092959194509250565b600060208284031215612a2057600080fd5b6000612a2e84828501612733565b91505092915050565b600060208284031215612a4957600080fd5b6000612a5784828501612748565b91505092915050565b600060208284031215612a7257600080fd5b6000612a80848285016127d1565b91505092915050565b600080600060608486031215612a9e57600080fd5b6000612aac868287016127e6565b9350506020612abd868287016127e6565b9250506040612ace868287016127d1565b9150509250925092565b6000612ae4838361329f565b60208301905092915050565b612af9816138c7565b82525050565b612b10612b0b826138c7565b613a17565b82525050565b6000612b21826136db565b612b2b8185613709565b9350612b36836136cb565b8060005b83811015612b67578151612b4e8882612ad8565b9750612b59836136fc565b925050600181019050612b3a565b5085935050505092915050565b612b7d816138d9565b82525050565b6000612b8e826136e6565b612b98818561371a565b9350612ba8818560208601613969565b612bb181613b32565b840191505092915050565b612bc581613948565b82525050565b6000612bd6826136f1565b612be0818561372b565b9350612bf0818560208601613969565b612bf981613b32565b840191505092915050565b6000612c0f826136f1565b612c19818561373c565b9350612c29818560208601613969565b80840191505092915050565b6000612c4260328361372b565b91507f4552433732313a207472616e7366657220746f206e6f6e20455243373231526560008301527f63656976657220696d706c656d656e74657200000000000000000000000000006020830152604082019050919050565b6000612ca860268361372b565b91507f4f776e61626c653a206e6577206f776e657220697320746865207a65726f206160008301527f64647265737300000000000000000000000000000000000000000000000000006020830152604082019050919050565b6000612d0e601c8361372b565b91507f4552433732313a20746f6b656e20616c7265616479206d696e746564000000006000830152602082019050919050565b6000612d4e60248361372b565b91507f4552433732313a207472616e7366657220746f20746865207a65726f2061646460008301527f72657373000000000000000000000000000000000000000000000000000000006020830152604082019050919050565b6000612db460198361372b565b91507f4552433732313a20617070726f766520746f2063616c6c6572000000000000006000830152602082019050919050565b6000612df4602c8361372b565b91507f4552433732313a206f70657261746f7220717565727920666f72206e6f6e657860008301527f697374656e7420746f6b656e00000000000000000000000000000000000000006020830152604082019050919050565b6000612e5a60388361372b565b91507f4552433732313a20617070726f76652063616c6c6572206973206e6f74206f7760008301527f6e6572206e6f7220617070726f76656420666f7220616c6c00000000000000006020830152604082019050919050565b6000612ec0602a8361372b565b91507f4552433732313a2062616c616e636520717565727920666f7220746865207a6560008301527f726f2061646472657373000000000000000000000000000000000000000000006020830152604082019050919050565b6000612f2660298361372b565b91507f4552433732313a206f776e657220717565727920666f72206e6f6e657869737460008301527f656e7420746f6b656e00000000000000000000000000000000000000000000006020830152604082019050919050565b6000612f8c60208361372b565b91507f4552433732313a206d696e7420746f20746865207a65726f20616464726573736000830152602082019050919050565b6000612fcc602c8361372b565b91507f4552433732313a20617070726f76656420717565727920666f72206e6f6e657860008301527f697374656e7420746f6b656e00000000000000000000000000000000000000006020830152604082019050919050565b600061303260208361372b565b91507f4f776e61626c653a2063616c6c6572206973206e6f7420746865206f776e65726000830152602082019050919050565b600061307260298361372b565b91507f4552433732313a207472616e73666572206f6620746f6b656e2074686174206960008301527f73206e6f74206f776e00000000000000000000000000000000000000000000006020830152604082019050919050565b60006130d8602f8361372b565b91507f4552433732314d657461646174613a2055524920717565727920666f72206e6f60008301527f6e6578697374656e7420746f6b656e00000000000000000000000000000000006020830152604082019050919050565b600061313e60218361372b565b91507f4552433732313a20617070726f76616c20746f2063757272656e74206f776e6560008301527f72000000000000000000000000000000000000000000000000000000000000006020830152604082019050919050565b60006131a460318361372b565b91507f4552433732313a207472616e736665722063616c6c6572206973206e6f74206f60008301527f776e6572206e6f7220617070726f7665640000000000000000000000000000006020830152604082019050919050565b6101008201600082015161321460008501826132d4565b50602082015161322760208501826132d4565b50604082015161323a604085018261329f565b50606082015161324d606085018261329f565b50608082015161326060808501826132d4565b5060a082015161327360a08501826132d4565b5060c082015161328660c08501826132d4565b5060e082015161329960e08501826132d4565b50505050565b6132a881613931565b82525050565b6132b781613931565b82525050565b6132ce6132c982613931565b613a3b565b82525050565b6132dd8161393b565b82525050565b60006132ef8285612c04565b91506132fb8284612c04565b91508190509392505050565b600061331382866132bd565b6020820191506133238285612aff565b60148201915061333382846132bd565b602082019150819050949350505050565b60006020820190506133596000830184612af0565b92915050565b60006080820190506133746000830187612af0565b6133816020830186612af0565b61338e60408301856132ae565b81810360608301526133a08184612b83565b905095945050505050565b60006040820190506133c06000830185612af0565b6133cd6020830184612bbc565b9392505050565b600060208201905081810360008301526133ee8184612b16565b905092915050565b600060208201905061340b6000830184612b74565b92915050565b6000602082019050818103600083015261342b8184612bcb565b905092915050565b6000602082019050818103600083015261344c81612c35565b9050919050565b6000602082019050818103600083015261346c81612c9b565b9050919050565b6000602082019050818103600083015261348c81612d01565b9050919050565b600060208201905081810360008301526134ac81612d41565b9050919050565b600060208201905081810360008301526134cc81612da7565b9050919050565b600060208201905081810360008301526134ec81612de7565b9050919050565b6000602082019050818103600083015261350c81612e4d565b9050919050565b6000602082019050818103600083015261352c81612eb3565b9050919050565b6000602082019050818103600083015261354c81612f19565b9050919050565b6000602082019050818103600083015261356c81612f7f565b9050919050565b6000602082019050818103600083015261358c81612fbf565b9050919050565b600060208201905081810360008301526135ac81613025565b9050919050565b600060208201905081810360008301526135cc81613065565b9050919050565b600060208201905081810360008301526135ec816130cb565b9050919050565b6000602082019050818103600083015261360c81613131565b9050919050565b6000602082019050818103600083015261362c81613197565b9050919050565b60006101008201905061364960008301846131fd565b92915050565b600060208201905061366460008301846132ae565b92915050565b6000604051905081810181811067ffffffffffffffff8211171561369157613690613b03565b5b8060405250919050565b600067ffffffffffffffff8211156136b6576136b5613b03565b5b601f19601f8301169050602081019050919050565b6000819050602082019050919050565b600081519050919050565b600081519050919050565b600081519050919050565b6000602082019050919050565b600082825260208201905092915050565b600082825260208201905092915050565b600082825260208201905092915050565b600081905092915050565b600061375282613931565b915061375d83613931565b9250827fffffffffffffffffffffffffffffffffffffffffffffffffffffffffffffffff0382111561379257613791613a76565b5b828201905092915050565b60006137a88261393b565b91506137b38361393b565b92508260ff038211156137c9576137c8613a76565b5b828201905092915050565b60006137df82613931565b91506137ea83613931565b9250826137fa576137f9613aa5565b5b828204905092915050565b600061381082613931565b915061381b83613931565b9250817fffffffffffffffffffffffffffffffffffffffffffffffffffffffffffffffff048311821515161561385457613853613a76565b5b828202905092915050565b600061386a82613931565b915061387583613931565b92508282101561388857613887613a76565b5b828203905092915050565b600061389e8261393b565b91506138a98361393b565b9250828210156138bc576138bb613a76565b5b828203905092915050565b60006138d282613911565b9050919050565b60008115159050919050565b60007fffffffff0000000000000000000000000000000000000000000000000000000082169050919050565b600073ffffffffffffffffffffffffffffffffffffffff82169050919050565b6000819050919050565b600060ff82169050919050565b600061395382613931565b9050919050565b82818337600083830152505050565b60005b8381101561398757808201518184015260208101905061396c565b83811115613996576000848401525b50505050565b600060028204905060018216806139b457607f821691505b602082108114156139c8576139c7613ad4565b5b50919050565b60006139d982613931565b91507fffffffffffffffffffffffffffffffffffffffffffffffffffffffffffffffff821415613a0c57613a0b613a76565b5b600182019050919050565b6000613a2282613a29565b9050919050565b6000613a3482613b43565b9050919050565b6000819050919050565b6000613a5082613931565b9150613a5b83613931565b925082613a6b57613a6a613aa5565b5b828206905092915050565b7f4e487b7100000000000000000000000000000000000000000000000000000000600052601160045260246000fd5b7f4e487b7100000000000000000000000000000000000000000000000000000000600052601260045260246000fd5b7f4e487b7100000000000000000000000000000000000000000000000000000000600052602260045260246000fd5b7f4e487b7100000000000000000000000000000000000000000000000000000000600052604160045260246000fd5b6000601f19601f8301169050919050565b60008160601b9050919050565b613b59816138c7565b8114613b6457600080fd5b50565b613b70816138d9565b8114613b7b57600080fd5b50565b613b87816138e5565b8114613b9257600080fd5b50565b613b9e81613931565b8114613ba957600080fd5b50565b613bb58161393b565b8114613bc057600080fd5b5056fea2646970667358221220654591bc7cf1153d06fa4b636360c5afc66dcd5cf4b05fcfefcec6a1a6488c3f64736f6c63430008000033",
  "immutableReferences": {},
  "source": "pragma solidity 0.8.0;\r\nimport \"../node_modules/@openzeppelin/contracts/token/ERC721/ERC721.sol\";\r\nimport \"../node_modules/@openzeppelin/contracts/access/Ownable.sol\";\r\n\r\n\r\ninterface MyCoin {\r\nfunction mintTLP(address to,uint256 amount) external;\r\n}\r\n\r\n\r\ncontract Token is ERC721, Ownable {\r\n\r\n\r\n    struct Pet{\r\n        uint8 damage;\r\n        uint8 magic;\r\n        uint256 lastMeal;\r\n        uint256 endurance;\r\n        uint8 rare;\r\n        uint8 legs;\r\n        uint8 wing;\r\n        uint8 tail;\r\n    }\r\n\r\n    uint256 nextId = 0;\r\n    uint8 randNonce = 0;\r\n\r\n    uint256 fee = 0.002 ether;\r\n\r\n\r\n\r\n\r\n    //string fees = 0.002;\r\n\r\n    uint attackVictoryProbability = 99;\r\n    mapping ( uint256 => Pet) private _tokenDetails;\r\n    address myTokenAddress = 0x0176c767110458dB7eEE8dF1F234bbcFaEfB5900;\r\n\r\n    constructor( string memory name, string memory symbol)\r\n    ERC721(name, symbol){}\r\n\r\n    function updateFee(uint256 _fee) external onlyOwner(){\r\n        fee = _fee;\r\n    }\r\n\r\n    function withdraw() external payable onlyOwner(){\r\n        address payable _owner = payable(owner());\r\n        _owner.transfer(address(this).balance);\r\n    }\r\n\r\n\r\n   function mintToken(address _to, uint256 _tokenId, string calldata _uri) external onlyOwner {\r\n    _safeMint(_to, _tokenId);\r\n    //super._setTokenUri(_tokenId, _uri);\r\n  }\r\n\r\n   mapping (address => uint) balances;\r\n\r\n\r\n    function sendCoin(address receiver, uint amount)\r\n    public returns(bool success) {\r\n        if (balances[msg.sender] < amount) return false;\r\n        balances[msg.sender] -= amount;\r\n        balances[receiver] += amount;\r\n        emit Transfer(msg.sender, receiver, amount);\r\n        return true;    }\r\n\r\n    function mint(uint8 damage, uint8 magic, uint256 endurance) public payable {\r\n        require(msg.value != fee);\r\n        uint ran_number = randMod(100);\r\n        uint8 rooster_class = 0;\r\n        if (ran_number < 50) {\r\n        rooster_class = 1; }\r\n        else if  (ran_number > 50 && ran_number < 80) {\r\n        rooster_class = 2;}\r\n        else if  (ran_number > 80 && ran_number < 95) {\r\n        rooster_class = 3;}\r\n        else if  (ran_number > 95 && ran_number < 100) {\r\n        rooster_class = 4;}\r\n\r\n        ran_number = randMod(80);\r\n        uint8 leg = 0;\r\n        if (ran_number < 50) {\r\n        leg = 1; }\r\n        ran_number = randMod(70);\r\n        uint8 wing = 0;\r\n        if (ran_number < 50) {\r\n        wing = 1; }\r\n\r\n        ran_number = randMod(60);\r\n        uint8 tail = 0;\r\n        if (ran_number < 50) {\r\n        tail = 1; }\r\n\r\n\r\n        _tokenDetails[nextId] = Pet(damage, magic, block.timestamp, endurance,rooster_class,leg,wing,tail);\r\n        _safeMint(msg.sender, nextId);\r\n\r\n        nextId++;\r\n    }\r\n\r\n    function randMod(uint8 _modulus) internal returns(uint256) {\r\n\r\n            uint256 ran_n = nextId * 73;\r\n            uint256 abc = uint(keccak256(abi.encodePacked(block.timestamp, msg.sender,ran_n))) % _modulus;\r\n    return abc ;\r\n    }\r\n\r\n\r\n    // function gift(uint8 damage, uint8 magic, uint256 endurance,address _to) public payable onlyOwner() {\r\n    //     //require(msg.value >= fee );\r\n    //     _tokenDetails[nextId] = Pet(damage, magic, block.timestamp, endurance);\r\n    //     //_safeMint(_to, nextId);\r\n    //     _safeMint(msg.sender, nextId);\r\n    //     nextId++;\r\n    // }\r\n\r\n    function feed(uint256 tokenId) public{\r\n            Pet storage pet = _tokenDetails[tokenId];\r\n            require(pet.lastMeal + pet.endurance > block.timestamp);\r\n            pet.lastMeal = block.timestamp;\r\n\r\n        }\r\n\r\n\r\n    //MyCoin public myCoin = new MyCoin(\"MyCoin\",\"COIN\");\r\n\r\n    function attack(uint256 tokenId) public payable{\r\n            require(msg.value != fee );\r\n            Pet storage pet = _tokenDetails[tokenId];\r\n            require(pet.lastMeal + pet.endurance > block.timestamp);\r\n            uint rand = randMod(100);\r\n            //_mint(msg.sender,1000);\r\n            if (rand <= attackVictoryProbability) {\r\n                 pet.damage = pet.damage +10;\r\n                 //myCoin.mintTLP(msg.sender,100);\r\n                MyCoin(myTokenAddress).mintTLP(msg.sender,22 * 10 ** 18);\r\n            } else {\r\n                 pet.damage = pet.damage -20;\r\n            }\r\n\r\n        }\r\n\r\n\r\n    function _beforeTokenTransfer(address from, address to, uint256 tokenId) internal override {\r\n                Pet storage pet = _tokenDetails[nextId];\r\n                require(pet.lastMeal + pet.endurance > block.timestamp);\r\n            }\r\n\r\n    function getTokenDetails(uint256 tokenId) public view returns (Pet memory)\r\n                {\r\n                    return _tokenDetails[tokenId];\r\n                }\r\n\r\n    function getAllTokensForUser(address user) public view returns (uint256[] memory){\r\n                    uint256 tokenCount = balanceOf(user);\r\n                    if(tokenCount ==0){\r\n                        return new uint256[](0);\r\n\r\n                    }\r\n                    else{\r\n                        uint[] memory result = new uint256[](tokenCount);\r\n                        uint256 totalPets = nextId;\r\n                        uint256 resultIndex = 0;\r\n                        uint256 i;\r\n                        for (i =0; i< totalPets; i++){\r\n                            if(ownerOf(i) == user){\r\n                                result[resultIndex] = i;\r\n                                resultIndex++;\r\n                            }\r\n                        }\r\n                        return result;\r\n                    }\r\n\r\n                }\r\n}",
  "sourcePath": "C:\\Users\\admin\\PycharmProjects\\Arma\\contracts\\Token.sol",
  "compiler": {
    "name": "solc",
    "version": "0.8.0+commit.c7dfd78e.Emscripten.clang"
  },
  "schemaVersion": "3.4.3",
  "updatedAt": "2021-10-06T10:54:16.701Z",
  "devdoc": {
    "kind": "dev",
    "methods": {
      "approve(address,uint256)": {
        "details": "See {IERC721-approve}."
      },
      "balanceOf(address)": {
        "details": "See {IERC721-balanceOf}."
      },
      "getApproved(uint256)": {
        "details": "See {IERC721-getApproved}."
      },
      "isApprovedForAll(address,address)": {
        "details": "See {IERC721-isApprovedForAll}."
      },
      "name()": {
        "details": "See {IERC721Metadata-name}."
      },
      "owner()": {
        "details": "Returns the address of the current owner."
      },
      "ownerOf(uint256)": {
        "details": "See {IERC721-ownerOf}."
      },
      "renounceOwnership()": {
        "details": "Leaves the contract without owner. It will not be possible to call `onlyOwner` functions anymore. Can only be called by the current owner. NOTE: Renouncing ownership will leave the contract without an owner, thereby removing any functionality that is only available to the owner."
      },
      "safeTransferFrom(address,address,uint256)": {
        "details": "See {IERC721-safeTransferFrom}."
      },
      "safeTransferFrom(address,address,uint256,bytes)": {
        "details": "See {IERC721-safeTransferFrom}."
      },
      "setApprovalForAll(address,bool)": {
        "details": "See {IERC721-setApprovalForAll}."
      },
      "supportsInterface(bytes4)": {
        "details": "See {IERC165-supportsInterface}."
      },
      "symbol()": {
        "details": "See {IERC721Metadata-symbol}."
      },
      "tokenURI(uint256)": {
        "details": "See {IERC721Metadata-tokenURI}."
      },
      "transferFrom(address,address,uint256)": {
        "details": "See {IERC721-transferFrom}."
      },
      "transferOwnership(address)": {
        "details": "Transfers ownership of the contract to a new account (`newOwner`). Can only be called by the current owner."
      }
    },
    "version": 1
  },
  "userdoc": {
    "kind": "user",
    "methods": {},
    "version": 1
  }
}